:020000022000DC
:1060000000000120756302005D6302005F6302000F
:106010006163020063630200656302000000000028
:1060200000000000000000000000000067630200A4
:1060300069630200000000006B6302006D630200F0
:10604000CD9602006F630200119B02006F63020095
:106050006F6302006F6302008D990200359B02009E
:106060006F6302006F6302006F6302006F630200E0
:106070006F6302006F6302006F6302006F630200D0
:106080006F630200397002006F6302006F630200E9
:10609000D57002006F630200210303006F630200EA
:1060A0006F6302006F6302006F6302006F630200A0
:1060B0006F6302006F630200000000000000000038
:1060C0006F6302006F6302006F6302006F63020080
:1060D0006F6302006F6302006F6302000000000044
:1060E00000000000000000000000000000000000B0
:1060F00000000000000000000000000000000000A0
:10610000000000000000000000000000000000008F
:10611000000000000000000000000000000000007F
:10612000000000000000000000000000000000006F
:10613000000000000000000000000000000000005F
:10614000000000000000000000000000000000004F
:10615000000000000000000000000000000000003F
:10616000000000000000000000000000000000002F
:10617000000000000000000000000000000000001F
:10618000000000000000000000000000000000000F
:1061900000000000000000000000000000000000FF
:1061A00000000000000000000000000000000000EF
:1061B00000000000000000000000000000000000DF
:1061C00000000000000000000000000000000000CF
:1061D00000000000000000000000000000000000BF
:1061E00000000000000000000000000000000000AF
:1061F000000000000000000000000000000000009F
:10620000354936480A1A02D0072291438D4634494F
:1062100034480A1A06D00722914381F309880222E2
:1062200082F3148830483149314A00F044F831484B
:106230003149324A00F03FF831483249324A00F0E1
:106240003AF832483249334A00F035F83248334997
:10625000334A00F030F833483349344A00F02BF821
:1062600033483449344A00F026F83448344900228F
:1062700000F02CF833483449002200F027F8334866
:106280003349091A082902DB002202604160314AC1
:1062900090471F481F49884205D00268043003B464
:1062A000904703BCF7E700208646EC46002000211B
:1062B000294A9047FEE7884207D0521A05D0037852
:1062C00001300B700131013AF9D17047884202D098
:1062D00002700130FAE770470000012000E0002062
:1062E0000000012000000120F83D0300CC22002026
:1062F00010230020D4630200D4630200F80D0300D1
:10630000F83D0300CC220020CC220020800F0300A7
:10631000800F0300800F0300800F0300800F030035
:10632000800F0300800F0300800F0300F83D03007F
:106330003C3E0300102300201023002010230020E7
:106340002C3700202C3700202C3700202C37002041
:106350002C5700209D6302009DA50200FEE7FEE78A
:10636000FEE7FEE7FEE7FEE7FEE7FEE7FEE7FEE705
:10637000704700BF1048804710484FF0070188431E
:1063800085460F4880470F48016841F4700101605D
:10639000BFF34F8FBFF36F8FFFF732BF0A480B4930
:1063A0000B4A884207D0521A05D0037801300B708F
:1063B0000131013AF9D170477163020000000120F8
:1063C000D991020088ED00E06C0F0300B822002094
:0463D000CC220020BB
:1063D4007047000007B5044B0093044A402300F0C3
:1063E40030F803B05DF804FBF563020011230020CC
:1063F4002DE9F84389461446B2B10F4B0F4E0325DD
:10640400002743F00108224609EB0701002004F0AD
:10641400DBFD0744241A48B933782BB14FF47A4092
:10642400C047013D02D13570BDE8F88301233370C4
:10643400002CE8D1F8E700BF800F030010230020F0
:106444007047F0B595B008460D4616461C4601F057
:1064540058FC1A9A0D920023082205A928460A938B
:106464008DF82C300C93CDE9086401F067FC079B90
:106474000293069B039301238DF811309DF8143089
:1064840003F00302012A1DD1BDF81440059EC3F395
:10649400C203C4F383148DF81030A20008230EA99C
:1064A400284601F04BFCC6F3952608AB0093224620
:1064B40002AB0EA9304600F025FB284601F025FC6E
:1064C40015B0F0BD022AF8D1BDF81640C3F3C203DB
:1064D400A4098DF810300827082C264628BF082662
:1064E4003B4632460EA9284601F028FCA41B08AB03
:1064F40002AA31460EA8374400F068FB002CEBD109
:10650400DBE7037813F0040216D003F00303012B36
:1065140003D0022B09D0012070470A680088023298
:10652400C0F3831002440A60F5E70B684288023323
:1065340003EB92130B60EEE7104670472DE9F04F22
:1065440087B000230446851C0DF107000F469046D2
:106554008DF8073000F0BAFF454806683E60D0E980
:106564000132134401339B1B824600F21C4600F5A2
:10657400836900F21447AB421BD30022B8F1000F29
:1065840070D0052363F3070264F38912DAF800106C
:10659400DAF808309DF807000B4003330D444AF83D
:1065A4002320CAF8005000F0B5FF012007B0BDE871
:1065B400F08F0121304601F005F9484601F01BF93E
:1065C400384601F018F9DAF80400DAF808B0029055
:1065D40000EA0B0003300AEB800002A9FFF791FFE9
:1065E400029B50BB0BEA03020AEB820203F1020C8A
:1065F400D2680392013303EA0B0B0AEB8B0B02F014
:106604000302012ACDF808C0DBF80C1022D0022ABC
:1066140016D08346384601F0F1F810B1029BCAF84F
:1066240004305946304601F0CDF8DAE90123134429
:10663400DAF8002001339B1A9DE70BEA0300C9E74F
:10664400BDF80E309B0903334FEA114B0CEB930357
:106654000293DFE7BDF80C30C3F383134FEA114B09
:106664006344F5E7062363F3070264F39F528DE75F
:106674002424002030B50A4C71B10A4A0A49121B7D
:10668400D20800239A4201D1002030BD31F82350B2
:10669400854202D00133F5E7034654F83300F4E7AA
:1066A400A40E03005C0F0300CC220020094B013927
:1066B40003EBC000032909D8DFE801F00A0204064D
:1066C4000420704700797047407970470020704774
:1066D40002207047A40E0300034BD3E90030C31A11
:1066E40058425841704700BF242400202DE9F0434C
:1066F40087B0FFF7F1FF0646002840F0FB807E4D8F
:10670400C5F81804BFF34F8F6868AC680290204046
:10671400033005EB800002A9FFF7F3FE029B18B1DA
:10672400D5F81824002A5FD004EA0302991C013327
:1067340005EB8202234005EB8303D268DB680493F4
:1067440002F00303022B0392029162D1BDF80E30D2
:106754006A484FEA9318B8F1500FC14628BF4FF06A
:10676400500969F38F1309F10801ADF80E3001F0F7
:1067740099FA0746002800F0A88001F0C2FA03A99C
:1067840000230822384601F0CFFA029924EA0106D0
:106794000136B600B14535D95FFA89F97EB3F6B250
:1067A400A9EB0609214003315FFA89F4B146544E3E
:1067B40005EB810108234A46384601F0B5FA36B1A3
:1067C40009F1080322463146384601F0ADFA029B2E
:1067D40008F1030803EB98030293D5F81834002B4F
:1067E4004BD1D5F810445BE02A689A4204D86A6019
:1067F400304607B0BDE8F08304EA030088E7404967
:106804003446D7E72140033108234A4605EB81018A
:10681400DAE7012B59D1BDF80C303848C3F38311A2
:10682400062928BF062161F3891302318900ADF8D6
:106834000C3001F037FA0746002846D001F061FA1F
:106844000023082203A9384601F06EFA0026BDF899
:106854000C20C2F38312B300964203F10803BCD2A6
:1068640002994A1C21400331029205EB8101042262
:10687400384601F059FA0136E9E7384601F045FA9D
:10688400FFF72AFF80F00100C6B2B1E7E3685B7945
:1068940023B1236839461B6820469847E3681C687F
:1068A400002CF3D1384601F030FA0DF107008DF8D1
:1068B400074000F00BFED5F818340BB9029B6B604F
:1068C4009DF8070000F026FEDAE7D5F8104454B925
:1068D4000C4B0D480D49C01AC008000440F00200DA
:1068E40000F06EF8CCE7236820469B689847E3687D
:1068F4001C68ECE700267BE724240020900E0300AC
:1069040030240020A40E0300C40E0300A40F0300CF
:106914002DE9F74F284C80460F46924601A90122E3
:1069240018469B46D4F80890FFF708FE80B3019DF3
:106934000026A91C5E4506EB010233D100211F4845
:1069440000F0FFFE80F310006A1C02EA090204EB67
:106954008202000405EA0903033340EA1840D060C8
:1069640014F8232068F3C50204F8232034F8232004
:1069740066F3891224F8232054F8232067F39F2216
:1069840044F8232002F0F80242F0010204F8232024
:1069940094F820341BB1FFF7A9FE0028FBD103B003
:1069A400BDE8F08F09EA020204EB82025AF82630AD
:1069B400D3600136BEE700BF242400204028002015
:1069C40000231A46FFF7A4BF07B50123019201AAC9
:1069D400FFF79EFF03B05DF804FB07B5CDE9002384
:1069E40002236A46FFF794FF03B05DF804FB1FB56A
:1069F400CDE90123069B039301AA0323FFF788FF34
:106A040005B05DF804FB1FB5CDE90023069B029396
:106A1400079B03936A460423FFF77AFF05B05DF8EA
:106A240004FB0000094A38B50123D2F8104482F867
:106A340020341D4604B938BDE3685D7123682046DF
:106A44005B689847E3681C68F4E700BF24240020CF
:106A5400037A052B10B50C460FD0437A23B1084AAC
:106A64000849204600F016FF0749204600F012FFAF
:106A74002046BDE8104000F002BF002AF8D0F3E73A
:106A8400EF0F0300332B0300EE1E0300C38873B51E
:106A940004460D4633B1144A00921449144A284658
:106AA40000F0F8FE217A05291CD0637A4BB1A08846
:106AB400FFF7FCFD0F4B104953F82020284600F047
:106AC400E9FE227A0D4BA08853F822600021FFF7DB
:106AD400D1FD0B4903463246284602B0BDE870405A
:106AE40000F0D8BE02B070BDEF0F0300FC0F03002E
:106AF400F40F0300BC0F0300332B0300201003002A
:106B0400141003002DE9F04385B01F460C9D0023AB
:106B140006460C46904695F80C902B732946384649
:106B2400FFF7B4FFB8F1060F09D8DFE808F0041244
:106B3400181F283340003146284600F0ABFE0022DF
:106B440029463846FFF784FF85F80C9005B0BDE868
:106B5400F08322683146284600F09CFEEFE7D4E932
:106B640000233146284600F095FEE8E7A368009329
:106B74003146D4E90023284600F08CFEDFE7E368C1
:106B84000193A36800933146D4E90023284600F01A
:106B940081FED4E723690293E3680193A368009319
:106BA4003146D4E90023284600F074FEC7E7636940
:106BB400039323690293E3680193A3680093314626
:106BC400D4E90023284600F065FEB8E708292DE93A
:106BD400F84F80460E4617461C463AD8002593F8CF
:106BE4000C901D7319461046FFF750FFDFF884A080
:106BF400DFF884B0AE422ED918F805205946204655
:106C040000F048FE0135082DF4D11849DFF86CB0C6
:106C1400204600F03FFE4FF0000A564520D918F8F0
:106C24000A507E2D03D8284609F0F6FF00B92E2518
:106C34002A465946204600F02DFE0AF1010ABAF10F
:106C4400080FEAD1012221463846FFF701FF84F8F4
:106C54000C90BDE8F88F5146204600F01BFED1E7AA
:106C64000349204600F016FEE7E700BFEA0F0300E1
:106C7400E80F0300E60F0300E00F0300EC0F03002E
:106C84002DE9F04F394E87B04FF00009384B1B788F
:106C94005FFA89F5AB4202D807B0BDE8F08F354BF7
:106CA400D3F800A01AF835000124D6E9001EA0F19B
:106CB4002002C0F1200304FA02F224FA03F313437E
:106CC40004FA00FC009301EA0C030293009B0EEA11
:106CD40003030393DDE9022313430AEBC50B41D0FD
:106CE400009B21EA0C012EEA0303C6E9001302F01B
:106CF40041FE1AF835502049A5F12002C5F12003C0
:106D040004FA02F224FA03F31343D1E900C2AC40BB
:106D1400134004EA0C0105930024C3B2CDE9003406
:106D2400009A0491C5F12003A5F1200122FA03F38E
:106D340002FA01F848EA03081346AB401F46DDE9AE
:106D44000434444508BFBB420CD1DBF804304BB1DA
:106D54009BF801104A1E51425141081A41424141D7
:106D64002846984709F1010990E700BF78280020D8
:106D74004828002080280020702800202DE9F041B8
:106D84008046204800F088FBD0BB0125A8F12004F0
:106D9400C8F1200325FA03F305FA04F41C431A4B43
:106DA400D3E9001205FA08F501EA050602EA040728
:106DB40056EA07001E461DD1404602F0DBFD134B88
:106DC400D3E9001288B129432243C3E90012D6E96A
:106DD40000231C430E4B0B4819681543C6E90054A5
:106DE4000022BDE8F04100F011BB21EA050122EACE
:106DF4000402EAE721EA050522EA0404C3E900548F
:106E0400BDE8F08150280020782800207028002058
:106E14004C280020042A2DE9F34105460C46164669
:106E24003AD902F0E5FCD8B11C4B1D491D601D4B3D
:106E3400DFF884801C701C4B00221E600023C1E913
:106E440000231A49C1E90023013CE4B200260327C8
:106E5400FF2C0CD1164A1748002100F0C5FA03E0B4
:106E640002F08EFC0028DFD002B0BDE8F08123B22E
:106E740005EBC30201A992788DF8052015F83300BB
:106E84008DF8066042468DF8047002F0BBFC013CAC
:106E9400E4B20028DCD0E7E70720E5E780280020FB
:106EA40070280020482800204C2800207828002042
:106EB400856C020080100300816D020070B5084DDE
:106EC400084E00242B789C4201D3002070BD336807
:106ED400012113F8340002F009FD0134F2E700BF88
:106EE40048280020802800201FB50021039001AA13
:106EF40044F20100CDE9011100F004F805B05DF899
:106F040004FB000010B572B6FFF78CFDFFF7EEFB33
:106F14000028FBD10D4B0E4C0E49E41AE40824045E
:106F240044F00100FFF74CFD0B4944F00200FFF769
:106F340047FDBFF34F8F0949094BCA6802F4E06269
:106F44001343CB60BFF34F8F00BFFDE7A40E0300D4
:106F5400C40E0300841003009010030000ED00E051
:106F64000400FA05094A537891780133DBB2994257
:106F740008BF0023117899421FBF0370507818236B
:106F840003FB002014BF0430002070478428002035
:106F940073B5054600240DF107000E468DF8074031
:106FA40000F094FA0DF10600FFF7DCFF90B10670D3
:106FB400094B9DF8062045605A709DF8070000F0C3
:106FC400A9FA24B9054B4FF48012C3F800212046D6
:106FD40002B070BD0424F0E78428002000E100E042
:106FE400024B4FF43C6043F001031847A010030028
:106FF40038B50C4B0C4C4FF40032C3F880200125FB
:107004004FF48033C4F84833C4F808336560FFF79D
:10701400E7FF064BA56000241C60FFF7E1FF044B6B
:107024001C7038BD00E100E000100140A0290020E0
:1070340091290020F8B51F4B1F491B680025C1F892
:107044004051C1F84451C1F84851C1F84C51C1F8FC
:107054000051C1F804514BB3D1F8044517490968EC
:10706400641A24F07F442F461A68A24209D8A41A4D
:1070740015441A7CDE691AB11F74D3E905209047C0
:10708400AEB90F4A0F4B11781B788B4205D10133EF
:10709400DBB2022B08BF0023137012780A4B43F8AB
:1070A40022500A4B4FF48012C3F80021F8BD334636
:1070B400DAE700BFA429002000100140A029002025
:1070C4009D2900209C2900209429002000E100E053
:1070D4002DE9F04FA14AA24913780978A14D9942AC
:1070E40085B03CD00133DBB2022B08BF0023137000
:1070F4009D4912789D4B0F6853F822003B1823F0EA
:107104007F4300220B602B6816461446944613B93D
:1071140042B12B6006E0196881420ED902B12B609E
:10712400091A196001272B68DFF848A201934FF070
:107134000008BEB9DFF844B266E0401A0C44D968CE
:10714400C3F800C0D3F81CE031B13A1922F07F42F1
:10715400C3E90121DE611E4601227346D7E70026FA
:107164003746E0E73446F6697F4A63681268DFF819
:1071740010C2A068991A21F07F41614500F2A680EF
:1071840001442160012222742A680023C4E90133E6
:10719400E361002A40F0A3802C60CAE75A1C9BF8E4
:1071A4000210D2B291428BF8002004BF00228BF867
:1071B4000020182202FB03B31A799C68022A1CD00F
:1071C400032A12D0012A1FD1207CE8B9D3E9031283
:1071D400A2605A69E2609A69654BA2611B78002B30
:1071E4000CBF0B4603466360BEE700222B681146C2
:1071F400002B67D142B12B6006E029680A46894614
:10720400002A5AD1002323749BF800309BF80120F4
:107214009A42C3D12B68B8F1000F04D1019A9A4263
:1072240001D1002F43D0002B73D0D3F800A0514DCF
:107234004D4BD5F804751C68DFF848813E1B98F85F
:10724400003026F07F4603369BB94FF48033C5F8EF
:107254004433C5F80433484B4FF400324FF001096E
:10726400C3F880211A60C5F80090FFF7B9FE88F8CA
:107274000090B2452CBF5444A41924F07F44C5F8AF
:107284004045D5F80435DB1B23F07F43E41B03336F
:1072940024F07F44A3420AD9D5F80435C5F8403513
:1072A400FFF79EFE344B4FF40032C3F80021304BFD
:1072B40000221A7005B0BDE8F08F94422CD091469C
:1072C400D2699DE719740122DB6991E7D31A23F08F
:1072D4007F43834234BFC31A0023236052E72168EB
:1072E4001368994213D8591A1160E26154E7091AD4
:1072F400D8691A4638B1034618688842F7D3401A49
:107304001860184613462160E061DC6111E71346FA
:10731400F2E7FFF76DFECAE74C4511D1CB692B604C
:1073240073B9DFF844E00120CDE90212CAF808007D
:10733400CEF800300E4B1870FFF752FEDDE9021252
:107344001368D269C9F81C2012B110680344136091
:107354002B68994218BF4FF0010853E79C2900207D
:107364009D290020A4290020A02900209429002080
:10737400902900200010014000E100E08428002052
:10738400FEFF7F009129002008B5FFF731FE104B66
:1073940000200B2218809A700E4B18600E4B187048
:1073A4000E4B18700E4B4FF48012C021C3F880218D
:1073B40083F814131A6002F18042A2F56F22C2F816
:1073C400080583F81113074BD2F804251A6008BD89
:1073D40084280020A42900209C2900209D29002025
:1073E40000E100E0A0290020074B9B784BB132B1AB
:1073F40028B10368187C20B959745A617047072072
:1074040070470820704700BF842800202DE9F74307
:107414001E4FBB7805460E469046A3B398B3042985
:107424002FD943697BB3437C0024012B0DF1070062
:107434000CBF8946A1468DF8074000F047F80DF1CE
:107444000600FFF78FFDD0B101230370104B456098
:10745400D3F80435C0E90498C0E902369DF8063033
:107464007B709DF8070000F055F824B9094B4FF4E0
:107474008012C3F80021204603B0BDE8F083042441
:10748400EFE70724F7E70824F5E700BF8428002086
:107494000010014000E100E0064A92783AB130B1B0
:1074A400426922B1002202740221FFF771BD082053
:1074B400704700BF84280020014BD3F804057047AF
:1074C40000100140401A20F07F40704770B5EFF380
:1074D400108672B60C4A946801239CB993600B4BD6
:1074E4000B4DD3F8801029401160C3F88050D3F8B5
:1074F400841051604FF0FF32C3F88420047006B941
:1075040062B670BD0370FAE7A829002000E100E02C
:10751400FC06FFBD084B9A6810B55AB150B9EFF399
:10752400108172B6054A1C6814605C6854609860E7
:1075340001B962B610BD00BFA829002000E100E037
:1075440010B561B1B2FBF3F403FB1424A4B244B943
:10755400C0E9001484608281C381204610BD0E20DE
:10756400FCE70920FAE782B050E8022FC188B2EBA9
:10757400324F4FF0000317BF92B241EA014142EA91
:10758400014104E04268B2EB324F08BF012340E8F6
:107594000212002AE8D18DF807309DF80730002B3D
:1075A4000CBF1120002002B0704737B550E8013FEE
:1075B4009DB2C48925448489A54228BF2D1B048912
:1075C400A54202BFBFF32F8F002207E0C5EA0305DF
:1075D40040E80154002CE9D14FF001028DF803205A
:1075E4000193019B9DF803200B6002F0FF0322B17D
:1075F4000B880068184403B030BD1846FBE70A88BE
:107604004B889A4209D150E8012FC2EA024240E86D
:107614000123002BF7D1012070470020704737B5B4
:1076240050E8023F1FFAA3F5C488A54202BFBFF386
:107634002F8F00220DE0C48925448489A54228BFE8
:107644002D1BC3EA054540E80254002CE8D14FF055
:1076540001028DF803200193019B9DF803200B6028
:1076640002F0FF0322B14B880068184403B030BD18
:107674001846FBE70A884B889A4209D150E8022F42
:10768400C2EA224240E80223002BF7D101207047CE
:107694000020704701F01F024B090121914000EBCB
:1076A400830000F063B84B0910B501F01F040121F9
:1076B400A14000EB830000F04EF8E04000F0010030
:1076C40010BD01F01F0301229A404B0900EB830017
:1076D400D14300F061B84B0901F01F0150F82300B9
:1076E400C84000F0010070472DE9F0474E1E7609AE
:1076F40080460F460136002558F8254008EB8509D9
:10770400E44394FAA4F4B4FA84F44FEA451A202C1E
:1077140006D10135AE42EFD83C462046BDE8F0879D
:107724005444A742F5D921464046FFF7BCFF002840
:10773400F3D0D9F80040E44394FAA4F4B4FA84F4FE
:10774400E5E750E8002F0B4640E8003C9CF0000FB2
:10775400F7D11046704750E8002F42EA010340E891
:10776400003C9CF0000FF6D11046704750E8003FF3
:1077740043EA010240E8002C9CF0000FF6D11046C9
:10778400704750E8002F02EA010340E8003C9CF0F7
:10779400000FF6D11046704750E8003F03EA01029B
:1077A40040E8002C9CF0000FF6D11046704750E8DA
:1077B400002F02EB010340E8003C9CF0000FF6D1DF
:1077C4001046704750E8003F03EB010240E8002CEC
:1077D4009CF0000FF6D11046704750E8003FA3EB31
:1077E400010240E8002C9CF0000FF6D110467047CF
:1077F4000121FFF7B0BF0121FFF7B8BF0021FFF758
:10780400C0BF37B5054600240DF107008DF80740C9
:10781400FFF75CFE2A686B68116899420ED9481E0E
:10782400106011F8014CEB68298A01FB0434AB6841
:1078340011791B1ADBB2994238BF13719DF8070006
:10784400FFF768FE204603B030BD37B50546002378
:107854000DF107000C468DF80730FFF737FE2A6854
:107864001368591C1160E968641A298AB4FBF1F49D
:107874001C709DF80700FFF74DFE03B030BD826811
:1078840010B504462AB1436901680069984700238A
:10789400A36010BD0EB403B5039921B104AB01AAD2
:1078A400019300F06DF802B05DF804EB03B070478B
:1078B400826830B40468551C8560A154D0E9013253
:1078C4009A4202D330BCFFF7DABF30BC70470000E5
:1078D4002DE9F84F9946DDE90A4317468246884662
:1078E4000A460126BA420FD24E4538BF4E4613F01F
:1078F400010B01D164B900240125B9F1010F1AD992
:1079040009F1FF397D43F8E7B2FBF7F20136E9E705
:107914009B070ED5B9F1000F0CBF30252025A642D8
:10792400EAD2013C29465046FFF7C2FF002CF6D1AB
:10793400E1E72025F3E7B8FBF5F39F42E2D9DFF84E
:107944003C90B8FBF5F3504619F8031005FB138877
:10795400FFF7AEFFB5FBF7F3BD4207D2BBF1000F53
:1079640002D00CB1A64203D3BDE8F88F1D46E8E768
:1079740020215046013CFFF79BFFF2E7A6100300CD
:107984002DE9F74F054617468846002900F0308157
:1079940018F8011B49B92B7B002B00F029812846DC
:1079A40003B0BDE8F04FFFF76ABF252940F0C0805F
:1079B400002698F800302D2B424608F1010823D008
:1079C400302B24D02B2B25D000242A2B02F10101AB
:1079D40023D13B681A1D1B683A601C440A4613787D
:1079E4002E2B26D101324FF00009104610F8011B4E
:1079F400A1F1300CBCF1090F1DD80A2303FB0913B4
:107A0400A3F130090246F0E746F00106D1E746F05B
:107A14000206CEE746F00406CBE711F8013CA3F1D9
:107A240030000928DBD80A2202FB0434303C0A4621
:107A3400CBE74FF0000912F8011B01F0FB006828A6
:107A44009046F8D069290ED04AD8582964D006D86F
:107A540025296DD098F80030002B99D19BE7632934
:107A640062D06429F6D13A68D2F800A0111D8AEADE
:107A7400EA723960A2EBEA724FF0010B092A5BDC6F
:107A8400CB4538BFCB462CB1BAF1000F01DB7207EE
:107A940000D5013CB30702D5B9F1000F04D0F007BB
:107AA40002D4002C4ED10024BAF1000F52DACAF1EC
:107AB400000A2D212846FFF7FBFE06F00302022AE6
:107AC40005D1B9F1000F02D1002C47D10024CDE932
:107AD40000464B460A2251462846FFF7F9FEB9E70D
:107AE40073294CD014D87029B4D13B681A1D3A605C
:107AF400302128461C68FFF7DBFE78212846FFF773
:107B0400D7FE00220823CDE9003221461022E3E704
:107B140075292BD078299DD139680A1D3A60CDE9A1
:107B240000464B46102228E03B681A1D19783A603B
:107B34002846FFF7BDFE8DE70A230BF1010BB2FBCC
:107B4400F3F29BE7A345AFD220212846013CFFF77F
:107B5400AFFEA6E77107B0D52B21ABE7A345B6D29C
:107B640030212846013CFFF7A3FEADE73968CDE993
:107B740000460A1D3A604B460A220968ACE73B6896
:107B84001A1D3A6016F00106D3F800A020D1BAF10C
:107B9400000F03D0504609F0FDF80646B44200D960
:107BA400C4B90AF1FF3A1EE028460136FFF780FE09
:107BB4001AF806100029F7D1A642BFF44BAF002CE7
:107BC4003FF448AF20212846013CFFF771FEF3E75C
:107BD4000026EDE720212846013CFFF769FEDDE79A
:107BE4002846FFF765FE1AF8011F0029F8D131E78E
:107BF40003B0BDE8F08F2DE9F047B0F80690447962
:107C0400D2F800A09DF8208009FB04F4043C064649
:107C14000AEB0300A0420F4688BFA4EB030A191D18
:107C2400C2F800A0B1FBF9F509FB15114DB9A9EB98
:107C34000104544528BF5446BAF1000F04D1BDE8ED
:107C4400F0873668013DF1E704317B19701822464C
:107C5400B8F1000F0ED001461846AAEB040A09F049
:107C64001BF8D145254436684C464FF0000128BF27
:107C74005446E1E71946F0E7F8B546790146721E25
:107C84000546002393422D6803D30024A64202D85C
:107C9400F8BD0133F6E70F682846FFF7D6FD013437
:107CA4003946F3E72DE9F843068ACD1C0746FFF76A
:107CB400A8FD043E35440446B5FBF6F5F0B14FF497
:107CC4008073EDB28380C680013D076081464FF02A
:107CD4000008A84512D23846FFF793FD064648B17E
:107CE40063790133637108F10108C9F80000076082
:107CF4008146EEE72046FFF7BFFF34462046BDE845
:107D0400F88301210430FFF75DBD10B5012104465D
:107D14000430FFF762FD10F0FF0F04D12046BDE8E8
:107D24001040FFF7A9BF10BD1FB5039200220092B7
:107D340003AAFFF760FF05B05DF804FB1FB50392CB
:107D44000122009203AAFFF756FF05B05DF804FB79
:107D540041DF7047064B10B500241C70054B1C60B6
:107D6400BFF35F8F0449054800F030F8204610BD8A
:107D7400BC290020C0290020B8100300B429002029
:107D840007B500230DF107008DF80730FFF79EFBC0
:107D9400F1EE103A23F09F03E1EE103ABFF35F8F48
:107DA400094B4022C3F884219DF80700FFF7B2FB7A
:107DB40008F09AFA20B1FFF7CBFF03B05DF804FB9B
:107DC40020BF40BF20BFF8E700E100E00B684A682D
:107DD4004360934208BF0023016008BF43607047BB
:107DE400436843B10268916852680B44934243600C
:107DF40004BF00234360704710B50D49A1F5947288
:107E0400914201D800200FE08B1ADB1003EBD373EF
:107E14005B1002EBC30452F83330834205D802D21C
:107E240004F10802ECE7606810BD2146E8E700BFF2
:107E34000812030008B5FFF7DFFF024B002808BF54
:107E4400184608BDCD10030070B5064D0646002443
:107E540055F8043B0BB1304698470134042CF7D154
:107E640070BD00BFD0290020033080B240F2FD3342
:107E7400984230B51FD8124B1A783AB91C895D89DB
:107E84002C440444A4B2B4F5806F0AD31A7DA2B979
:107E94009A8BDC8B2244024492B2B2F5806F0CD2EE
:107EA40001220A801446142202FB04335A89104426
:107EB4005881002030BD0920FCE70720FAE700BF05
:107EC400042A00200B4A0C4B5188142000FB01317A
:107ED400CB6833B90420496810700122074800F0C8
:107EE4004BBF05230649137002238B800122002314
:107EF4000968F3E7E8290020042A0020B8220020BA
:107F0400CC2A002007B5002305490093054A0968D7
:107F14000548082300F09AFE03B05DF804FB00BF97
:107F2400CC2A0020D0150300B822002007B5002376
:107F3400009301460823034A034800F087FE03B078
:107F44005DF804FBC8150300B822002013B5002314
:107F54000C46009301460423074A084800F076FEC5
:107F640038B9074B142202FB04340123237402B0F2
:107F740010BD0E20FBE700BFC4150300B82200208B
:107F8400042A002037B50A480A4B42689C881968BD
:107F940053880325033305709BB2002000909B0097
:107FA40001EB8401044800F051FE03B030BD00BF72
:107FB400E8290020CC2A0020B822002010B5014670
:107FC4000448FFF7F2FA1C220446002108F08DFE53
:107FD400204610BDB82A002068B10268084B9A42B6
:107FE40009D14068074B984207D0013398420CBF2F
:107FF400012003207047032070470020704700BF12
:10800400DEC0ADDEFE011EF14388033300EB8303C3
:10801400994209D382884FF6FF739A4206D00088AA
:10802400B0FA80F040097047022070470120704781
:108034002DE9F8430223DFF860800B800D461746D4
:1080440000F5805600F108044FF00109B4420FD244
:10805400236801330CD031462046FFF7D5FF48B1E1
:108064000FB187F8009002280BD14FF480632B8066
:10807400BDE8F883A368D8F80020934201D9C8F872
:1080840000302B886288033313442B8063880333C6
:1080940004EB8304DAE700BFFC290020154A14230B
:1080A40003FB002070B50B6844680D4604F5805648
:1080B400ABB15C88033403EB8404B4420DD223686F
:1080C40001330AD031462046FFF79EFF01280BD02A
:1080D40010F0FF0F05D00228EFD1002003E0083490
:1080E400EBE72C60012070BD6388033304EB830449
:1080F400E3E700BF042A0020436873B504460D4635
:1081040063B3234AD1688B4228D31269934225D89A
:1081140013F0030022D11F4A2189128991421DD1F3
:1081240021689A68914219D11B4A51688B4203D93C
:1081340001F580518B420DD3926993420CD902F51B
:108144008052934208D201232B80B0FA80F0400978
:1081540002B070BD0346F7E70A20F6E700232B8040
:108164001E46019601A92888FFF798FF30B92B888D
:1081740001339BB2012B2B80F3D9E9E7019B2268E1
:1081840099689142EED16360024B1B892381DFE73A
:10819400B8220020E8290020042A00202DE9F84311
:1081A4001C461C4B1B7806460F4615466BB372B330
:1081B4006CB3DFF868804FF01409A388012B01D950
:1081C4000A2020E009FB03F318F803302BB92146F9
:1081D400A088FFF763FF20B92060A3880133A38040
:1081E400EBE723681EB1998832889142EFD11FB121
:1081F40019883A889142EAD19A68C5E90023064B66
:108204001B892B810020BDE8F8830220FBE70520B1
:10821400F9E700BFE0290020E8290020042A002013
:1082240008B5074B191D5888FFF738FF18B1BDE88A
:108234000840FFF7A7BEBDE80840FFF743BE00BFF4
:10824400E82900202DE9F04FA04FDFF8A49289B06F
:108254000646B8463B6823B949469D48FFF7DFF90F
:108264003860D8F8005029784B1E052B00F2FA80AC
:10827400DFE813F006005E005E00EE00EE005C0135
:1082840026B1944B00225A600124ECE02B79032B95
:108294001DD8DFE803F015022A358F490B78022B2D
:1082A400084619D00B7D022B4FF0010316D114227E
:1082B4005343C2180020C8545068FFF737FE03E048
:1082C40001232B71FFF71EFE002800F0BC80814BB8
:1082D40000225A600E24C6E00023E8E77D4A1370AA
:1082E4000023536041F61D54BDE07C497C480023C3
:1082F40002222B718A800122096800F03DFDE3E728
:10830400764C00262E712068734DFFF70FFE754BD7
:10831400D4F800C05A8814235343EA18EE54516821
:108324002160A188C2F804C011810222A280CBE797
:10833400B5F814A0AA7DDFF8A0B1AEB1022AEB888B
:1083440006D9142101FB0AB1DA1C088902440A8106
:10835400142202FB0ABAC3F57F43BAF80A20FD339C
:108364001344AAF80A308FE7142303FB0AB31889CD
:108374005C6804EB8004062A68D8DFE802F0274D25
:1083840035431D59040041F61D54AA7DEB88022A89
:1083940006D9142101FB0AB1DA1C088902440A81B6
:1083A400142202FB0ABAC3F57F43BAF80A20FD334C
:1083B4001344AAF80A3056E04B484C490023436062
:1083C400AB690360FFF798FE002871D00223AB75F8
:1083D400002300930423EA182146414800F036FCA8
:1083E400002830D00E24D0E72B69002B14BF0323C0
:1083F4000123AB750023009305F10C02042304F15F
:108404000801EAE70123AB750022EB8800929B0088
:108414002A6904F10C01E0E703290CBF05230623B4
:10842400AB7500230093042305F10802E118D4E797
:108434000623AB752D4B19882B4B5868FFF786FD27
:1084440004460028A1D109B0BDE8F08F0F249CE7B1
:10845400002E7FF419AF2B79012B4BD0E3B1022B03
:108464003FF440AF0F241422002103A808F03DFC80
:1084740041F61D539C4208BF0024D8F800300494F0
:108484001A78023A042A00F20581DFE812F0E600C5
:10849400F20015011D01240102232B710DF10A01C3
:1084A400EB68039303A8CDE90466FFF725FE08B93A
:1084B4000A24D8E70498BDF80A108388EB8003885F
:1084C4002B81FFF743FD044627E000BF002A00206C
:1084D400B82A0020E0290020042A0020CC2A002009
:1084E400B8220020E8290020C4290020D82A00202E
:1084F400F8290020DFF8FCA103AA53463146A81D41
:10850400FFF74CFE044658B9BAF804100498FFF774
:108514001DFD04460A2C3FF4E5AE002CA3D192E7DE
:1085240008223146504608F0E0FBF3E7002E7FF4C2
:10853400ABAE6B4B1A7BAAB11E731A78013A062AAA
:1085440090D801A151F822F0F385020019860200A7
:10855400378602003D8602006984020043860200D9
:10856400558602001A78072AE7D801A151F822F0AB
:10857400958502003F8502003F850200BB8502000D
:10858400CF850200EF850200EF850200B785020067
:108594001A89544901321A8100225A801A730A78BE
:1085A400B2FA82F252099A720A7DB2FA82F252093E
:1085B400DA72012207E04C4958688A8840880332FD
:1085C40002448A8002221A70B7E7464C5A88464908
:1085D400142505FB0242086854685060888810819D
:1085E40002228A800C600622EDE70722EBE79A7AE2
:1085F40032B9DA7A8AB900221A705A805A6071E65E
:10860400384900229A72CA68002AF2D1097C0029EA
:10861400EFD05A80FFF704FE55E70022DA72314AA0
:10862400116A0029E7D192F82420002AE3D001221C
:10863400EFE7FFF7A7FC46E7FFF744FC43E7294AC7
:108644005B88142101FB03235868FFF76FFC3AE7AA
:1086540000225A60FFF756FC35E701228DF80C2002
:108664001A89ADF818209A88DB68ADF81A200593AA
:1086740010E002228DF80C201A89ADF818209A888F
:10868400ADF81A20DA689B7D05929A1F5342534134
:108694008DF81C3003A8FFF7D7FB00264946134882
:1086A400C8F80060FEF7E6FF01211148FFF795F8CE
:1086B40000287FF4CFADC6E603228DF80C20DA88BB
:1086C400ADF818201A89CFE70422DB888DF80C2036
:1086D400ADF81830DEE705238DF80C30DAE700BF7B
:1086E400E8290020042A0020CC2A0020B82A0020EF
:1086F400C82A0020DC2A00204068FFF7A3BD000040
:1087040008B501210448FFF752F818B9BDE808403C
:10871400FFF798BD08BD00BFC82A00202DE9F3412A
:108724009846354B1B7806460D46002B5BD0002936
:108734005BD009884FF6FF73994258D06B88002BA1
:1087440055D06B689B0754D14AB92F890DF10201AA
:108754003846FFF789FB30B102B0BDE8F0811388D9
:108764005788ADF8023001A8FFF728FC044658B931
:10877400BDF80230214A142101FB03235889033830
:10878400C01B58810820E7E700238375BDF8023039
:1087940083826B68036180F8008001211848FFF729
:1087A40011F82B882381B8F1030F6B88A38004BFD1
:1087B4000423A3754FF0000508BF3368E06008BFC9
:1087C400A361E780658101A90E48FEF718FF36B161
:1087D400E36833600C4B75601B89B5723381FFF716
:1087E4008FFF0020B8E70220B6E70520B4E7042095
:1087F400B2E70320B0E700BFE0290020042A0020EC
:10880400FC290020B82A0020E829002008B5084BDC
:108814001A68042A09D01968064A42F8210001217D
:108824001846FEF7CFFF002008BD0C20FCE700BF70
:10883400D42A0020D02900202DE9F04F14228BB037
:1088440000210DEB020008F050FA764A137803F089
:10885400FF01CDE901123BB105A8FFF7F5FA0027A6
:1088640038460BB0BDE8F08F029B181DFEF7C0FF21
:108874000028F4D140F6F8734FF080521B685C1C5A
:1088840008BF694B694C08BF1B6811695269581CC1
:1088940008BF02FB01F323610022A3F5405364499E
:1088A400E360204600F09EF9039407460028D7D1E0
:1088B4001C238C225F496048DFF88891DFF88881A7
:1088C400FEF73EFEBA463D464FF0030B3C46039B83
:1088D400DE68564430463146FFF77EFB01284DD012
:1088E40042B2002A36D0032822D106F58052086805
:1088F400013040F08A8004319142F8D1D9F8002047
:108904003AB902220123C9F80060A9F804200193AE
:108914000CE014226243022008EB020108F8020072
:10892400464A4E60548001340881A4B245F00105E2
:108934000AF5805ABAF5405FC9D1BBF1010F98BF5F
:108944000025EDB2022D03D0062D35D0002D3CD1EB
:108954000B2785E71421614308EB010008F8012087
:1089640001F1100208314660424441443046FFF7A9
:108974005FFB45F002050134A4B2D9E7019B63B162
:108984001422624308EB0201022008F802000134B9
:10899400D9F800204A600881A4B200222849C9F805
:1089A40000603046FFF744FBB9F80420022A0CBFEC
:1089B400042208221543BBE7029A0123137005A879
:1089C40000235360FFF740FA4AE704A8FFF7F6FADA
:1089D400C8B10123013D03700A2D09D8DFE805F071
:1089E40006080608070807080F110F000023037183
:1089F40004A91148FEF703FEFFF782FE30E70323C4
:108A0400F5E70223F3E708272AE70BF1FF321FFA01
:108A140082FB1422624308EB02014E60032108F832
:108A24000210A8E7E029002014100010B82200204A
:108A3400B41703002C2A0020B82A0020E8290020BB
:108A4400D02A0020CC2A0020042A002073B50D4629
:108A54000446C8B1C1B10DF10601FFF74DFBA8B141
:108A64000B4BBDF806006668142202FB003001219E
:108A74000C30FEF7A7FE63682E600C336B60012395
:108A8400A372002002B070BD0520FBE70A20F9E7BD
:108A9400042A002013B50446A8B10DF10601FFF71E
:108AA4002BFB90B10B4ABDF80630142101FB0323C4
:108AB400DA6862B1A27A52B1DA680020013ADA6067
:108AC400A07202B010BD0520FBE70A20F9E70620DA
:108AD400F7E700BF042A002002230022FFF71EBE8E
:108AE40018B103230022FFF719BE052070470000C8
:108AF400104B1B7813B50446ABB14FF6FF73984285
:108B040013D001A8FFF75AFA88B105230370012393
:108B14000371C48001A90848FEF771FDFFF7F0FD59
:108B2400002002B010BD0220FBE70420F9E7082072
:108B3400F7E700BFE0290020B82A00200E4B1B787D
:108B440007B5A3B101A8FFF739FA90B10623037062
:108B540001A90A48FEF753FD094B1A780AB101220C
:108B64001A73FFF7CDFD002003B05DF804FB02206B
:108B7400FAE70820F8E700BFE0290020B82A00201F
:108B8400E829002007B5ADF80600ADF804100DF192
:108B9400060001A9FFF702FB03B05DF804FB07B56B
:108BA4001346ADF806000A4600200DF10601FFF752
:108BB400F5FA03B05DF804FB07B51346ADF80600FB
:108BC4000A460DF106000021FFF7E8FA03B05DF84C
:108BD40004FB20B119B103680B6000207047052025
:108BE4007047000007B50B4688B9124B1248134A68
:108BF400C01A0E23C0080093114B0004114940F021
:108C04000100FDF7F4FE0E2003B05DF804FB4BB940
:108C1400084B09480C4AC01AC0080E2300930004EC
:108C2400074BEBE703601B68114603B05DF804EBE8
:108C3400184700BFA40E0300E40E030085160300CA
:108C4400D81503008A160300011703002DE9F34128
:108C540088B93D4B3D483E4AC01AC0080E243D4BDE
:108C6400009400043C4940F00100FDF7C0FE20469A
:108C740002B0BDE8F0814AB9334B3448374AC01AD0
:108C8400C0080E2400040094324BEBE7D0F800C077
:108C9400BCF1000F09D12C4B2C48314AC01AC00832
:108CA4000824000400942B4BDCE74BB9264B2748DF
:108CB4002C4AC01AC008092400040094254BD1E7AB
:108CC4004768D7F80480B3FBF8F708FB17374FB1B0
:108CD4001D4B1E48244AC01AC008092400040094ED
:108CE4001C4BBFE78F0709D0174B18481F4AC01AFF
:108CF400C008102400040094164BB3E712F0030FCD
:108D040009D0114B11481A4AC01AC0081024000493
:108D14000094104BA6E7C768B9420BD34C1E0569F3
:108D24001C44AC4206D8DCF80C40A44602B0BDE8B2
:108D3400F0416047044B05480E4AC01AC00810248D
:108D440000040094034B8DE7A40E0300E40E03001B
:108D540085160300EA1503008A16030007170300AB
:108D6400FB160300BA1603000D17030037170300A0
:108D74004F17030072170300F7B580B92A4B2B482D
:108D84002B4AC01AC0080E242A4B009400042A4916
:108D940040F00100FDF72BFE204603B0F0BDD0F8F3
:108DA40000C0BCF1000F09D11F4B2048234AC01A50
:108DB400C0080824000400941E4BE8E74AB91A4B83
:108DC4001A481F4AC01AC008092400040094194B09
:108DD400DDE74768D7F800E00EF1FF370F4209D00E
:108DE400114B1248174AC01AC008102400040094FA
:108DF400104BCCE7C768B9420CD34C1E05690EFB77
:108E04000244AC4206D8DCF81040A44603B0BDE8E6
:108E1400F0406047044B05480B4AC01AC0081024B0
:108E240000040094034BB2E7A40E0300E40E030015
:108E340085160300FD1503008A160300FB160300C4
:108E4400BA160300101603003616030029DF704714
:108E540028DF704770B503689D6886B004460E46E7
:108E64006DB114220021684607F03FFFA368059303
:108E7400237901962BB1012B0DD06846A84706B083
:108E840070BD01238DF8003023690293E3680393D6
:108E940063690493F1E702238DF80030E3681B0350
:108EA4000293F5E70846704700207047024B187A92
:108EB400003018BF01207047802B0020034B187A24
:108EC4000122B0FA80F05A7440097047802B0020C8
:108ED40008B510461A4607F0DFFE002008BD000062
:108EE40008B514220021044807F0FFFE0348FEF7EA
:108EF4003AFB002008BD00BF802B0020702B00200F
:108F040010B5094C094B43602046FEF771FC40B98B
:108F140007F0EAF91C2320748C2205490548FEF762
:108F24000FFB002010BD00BF802B0020A8170300FA
:108F3400E42A0020702B002070B5244C244E237AA0
:108F440025463BB923492448FEF769FB306008B93C
:108F5400606070BD346802232B72237973B1012BD6
:108F640024D020460321FFF775FF00232B726B608A
:108F740018491948BDE87040FEF77CBBD4E90523C5
:108F8400D21AB2F5805F28BF4FF48052D4E903109F
:108F94009208012A38BF012219441844FFF756FFEA
:108FA40050B11128DDD101232B72D2E7D4E9030398
:108FB4001844FFF74DFFF3E72B7C002BC9D1014682
:108FC400BDE87040022000F009B800BF802B0020EB
:108FD400982B0020942B0020702B002038B5831E82
:108FE400012B45D8234C237A002B41D0022B09D1E5
:108FF400032830D0204B1B680022E2601A793AB172
:10900400012A22D0637C7BBBBDE83840FFF794BFC4
:10901400D3E905128D1AB5F5805F94BF521902F594
:1090240080529A619142EDD102284FF0000308BFAB
:1090340019462372104B18BF0D211868FFF70AFF59
:109044000E490F48FEF716FBDCE71A6901321A6174
:109054005B699A42E7E7E3680133082B01D8E360D0
:10906400D0E70023E360DFE7BDE8384007F02CB920
:1090740038BD00BF802B0020982B0020942B0020AB
:10908400702B002000F0FD03012B08D1044B0022BB
:109094005A74421E504250411874FFF74DBF704736
:1090A400802B002010B5064C201DFEF7A1FB28B92B
:1090B400637C1BB9BDE81040FFF73EBF10BD00BF85
:1090C400802B00202DE9F34180460D460F4801A96D
:1090D40016461F46FEF769FA0446A8B11C22002171
:1090E40007F003FE2D0B0123237101A9C4F80080AE
:1090F400A760E56066610548FEF781FAFFF7D2FFD5
:10910400002002B0BDE8F0810420FAE7702B0020B3
:109114002DE9F74381468846104801A917461E46A3
:10912400FEF743FA0446B0B11C22002107F0DDFD2E
:1091340000250A9BA36001A92571C4F80090C4E925
:10914400037866610548FEF75AFAFFF7ABFF284635
:1091540003B0BDE8F0830420FAE700BF702B0020C1
:109164000C4B1B78062B10D10B4B1B681A070CD128
:109174000A4B186800F0F003302B08D000F0E00030
:10918400A0F1400358425841704700207047012025
:10919400704700BFE00F00F0E40F00F0E80F00F0AC
:1091A400094B1B78062B0CD1084B1B681A0708D1F6
:1091B400074B186800F0F000A0F130035842584102
:1091C40070470020704700BFE00F00F0E40F00F08C
:1091D400E80F00F008B5FFF7C3FF28B17D4B7E4AC6
:1091E4001B68C3F304231360FFF7DAFF10B17B4B52
:1091F4007B4A1A60FFF7B4FF28B17A4B7A4A1B689E
:10920400C3F342331360FFF7CBFF20B1774AD3682F
:1092140023F08073D360FFF7A3FF40B14FF0804386
:109224000022C3F80C21C3F81021C3F83825FFF736
:10923400B7FF10B16E4B03221A60FFF7B1FF40B1C4
:109244006C4B05221A6001229A6700229A603F2221
:109254005A60694B1B78062B50D1684B1B68190761
:109264004CD1674B1B6803F0F003502B46D14FF0F1
:109274008052644BD2F80414C3F82015D2F80814B1
:10928400C3F82415D2F80C14C3F82815D2F8101416
:10929400C3F82C15D2F81414C3F83015D2F81814E6
:1092A400C3F83415D2F81C14C3F84015D2F82014AE
:1092B400C3F84415D2F82414C3F84815D2F8281476
:1092C400C3F84C15D2F82C14C3F85015D2F8301446
:1092D400C3F85415D2F83414C3F86015D2F838140E
:1092E400C3F86415D2F83C14C3F86815D2F84014D6
:1092F400C3F86C15D2F84424C3F87025FFF730FF87
:1093040028B1414B414A1B6803F04F031360FFF738
:1093140027FF48B14FF08043D3F80024D20744BF5D
:109324006FF00102C3F80024394B1B68062B08D1E7
:10933400384B1B68062B01BF374A136843F480631C
:109344001360364AD2F8883043F47003C2F8883088
:10935400BFF34F8FBFF36F8F4FF01023D3F800226A
:10936400002A03DBD3F80432002B2FDA2C4B012222
:10937400C3F80425D3F80024002AFBD04FF01022B0
:109384001521C2F80012D3F80024002AFBD04FF0B4
:1093940010231522C3F80422214B1A46D3F80014D3
:1093A4000029FBD00021C3F80415D2F80034002BA7
:1093B400FBD0BFF34F8F19491A4BCA6802F4E0621D
:1093C4001343CB60BFF34F8F00BFFDE7164B174A23
:1093D4001A6008BD240300104035014074C00740E2
:1093E4000DF0ADBA440200103C050040F0ED00E081
:1093F400A005004010560040E00F00F0E40F00F01C
:10940400E80F00F000C0004058020010E40E0040D5
:1094140030010010340100103C17004000ED00E062
:1094240000E001400400FA05D42200200090D0039B
:10943400054A4FF0A043105CD3F8043523FA00F03A
:10944400C04300F001007047D8170300044B1A5CB6
:10945400012393404FF0A042C2F80C35704700BF7F
:10946400D8170300044B1A5C012393404FF0A04229
:10947400C2F80835704700BFD817030008B50020AC
:10948400FFF7F0FF0120FFF7EDFF0220FFF7EAFFEF
:109494000320BDE80840FFF7E5BF08B50020FFF74B
:1094A400D5FF0120FFF7D2FF0220FFF7CFFF0320F3
:1094B400BDE80840FFF7CABF074A4FF0A041105C5F
:1094C400D1F804350122824022EA03001340C1F896
:1094D4000805C1F80C357047D8170300054A4FF04A
:1094E400A043105CD3F8103523FA00F0C04300F019
:1094F40001007047D41703000C2809D00E2809D0A6
:109504000F2809D010280CBF03204FF0FF307047FC
:10951400002070470120704702207047C20708B539
:1095240001460CD54FF0A0430322C3F84427C3F8E7
:109534004827C3F84C27C3F85027FFF79FFF8B0732
:109544000AD54FF0A0430C22C3F83027C3F83827BC
:10955400C3F83C27C3F8402708BD000038B5074CC2
:10956400051E04F1080318BF1C4623682BB11A68B2
:1095740022605B6828469847F7E738BDA42B002093
:1095840020B9054B01225A70FFF7E8BF012802D128
:10959400014A9070F8E770479C2B002020B9034BD8
:1095A40001225A70FFF7DABF704700BF9C2B0020DE
:1095B40038B50B4C237883B90A486360A3602361F0
:1095C400E36000F057F8054606F08EFE08B900F097
:1095D4005DF801232370284638BD8525FBE700BFCD
:1095E4009C2B00208595020037B50B4C00230DF110
:1095F40007008DF80730FDF769FFE368013BE3607E
:10960400E56815B900F054F8A5709DF80700FDF75A
:1096140081FF03B030BD00BF9C2B0020012813B58F
:1096240009D018B103281CD002B010BD0F4B012281
:10963400C3F88020F8E70E4C00230DF107008DF8E5
:109644000730FDF743FF23780BB9FFF7B1FFE36859
:109654009DF807000133E3600123A370FDF75AFF6F
:10966400E2E700F013F8FFF7BFFFDDE700E100E0F9
:109674009C2B0020044A137923B9012110609180A6
:109684001846704785207047B02B0020074B1A6896
:10969400D2075FBFC02283F8002301221A604FF073
:1096A40080430122C3F81825704700BF00E100E0A1
:1096B400044B01221A604FF08042D2F81834DB03C5
:1096C400FBD470470C000040154B07B51A687AB1FB
:1096D40000221A601B680093009B4FF08043012214
:1096E400C3F808230F4B587910B95A711B6898476F
:1096F4000D4B1A6882B100221A601B680193019B0A
:109704004FF080430222C3F80823064B1B68012054
:1097140003B05DF804EB184703B05DF804FB00BF29
:1097240000010040B02B00200401004000F1804003
:1097340000F5C040002382B0036003680193019BDD
:1097440002B07047800000F1A040D0F8003723F445
:109754004033C0F80037D0F8003743EA0141C0F87D
:1097640000177047054B4FF0FF32072843F82020BD
:1097740084BF1B1883F84820704700BFB82B002013
:1097840010B5174C94F8583043BB04F13003202132
:10979400FF22013911F0FF0103F8012BF9D1C8B2FE
:1097A400FFF7E0FF01310C29F9D1042200210D4813
:1097B40007F09BFA0C4BC02283F8062340221A6060
:1097C4004FF4BE70FFF7B2FF084B4FF00042C3F8EE
:1097D4000423012384F85830002010BD0820FCE73E
:1097E400B82B00200C2C002000E100E000600040B9
:1097F400034B93F85800003018BF0120704700BF96
:10980400B82B0020F0B5374B1C1894F93040002CCD
:109814001C4664DA8D78C5F34005002D0BBF082380
:1098240000230C260826B34201D10420F0BD54F8CD
:10983400237001373FD1261844F8232086F83030AE
:1098440015B9E21882F848008A78550713D4D60768
:1098540033D5820002F1A042D2F8005725F0020568
:10986400C2F80057204EC50800F007070122BA408D
:10987400775D3A4372558A780D7812F0020225D04A
:109884009B0003F1804303F5C0430202D3F8101593
:1098940021F4473121F44071C3F810152D04D3F895
:1098A400101502F4F85205F440352A430A43C3F86C
:1098B40010250020BAE70133B5E74D7800F5E072D2
:1098C4004FF0A046AD0046F82250CBE7083B2344B6
:1098D40093F8501041EA851583F85050E9E70820C1
:1098E400A4E700BFB82B00200C2C002038B51F4C77
:1098F400251895F93020072A17DD224492F84810DC
:10990400890903290CD14FF0A043D3F81035C34083
:1099140013F0010F08BF0221BDE83840FFF712BF62
:10992400012914BF03210221F6E7D3B2072B1CD867
:10993400930003F1804303F5C043D3F8100540F0CE
:109944000100C3F8100502F14000800080B2FFF767
:10995400EDFE51B195F9303054F823302BB1012389
:1099640003FA02F2024BC3F8042338BDB82B0020DB
:10997400006000404FF0A043D3F8103523FA00F004
:1099840000F00100704700002DE9F04F85B000247D
:109994005A4D01944FF48072012102F1804303F582
:1099A400C04390B21B68012B06D1D5F804330B4297
:1099B40002D0FFF7BBFE0C430432B2F5907F4FEAAE
:1099C4004101EAD14E4B1B68012B0AD14FF4BE7002
:1099D400FFF7ACFE4FF0A04344F00044D3F8103539
:1099E400019314F0FF0F1AD0464F0025012634428C
:1099F40010D0AB0003F1804303F5C043D3F8100546
:109A0400D3F8101557F8253023B1C1F30141C0F341
:109A1400042098470135082D4FEA4606E7D1002C6B
:109A240064DA00224FF0FF33CDE90223354D0127DC
:109A34004FF0000A344E54464FF0A04816F9012B5B
:109A4400531C46D0D2B222F0C0094FEAD90104A86F
:109A5400084402F0070310F804CC07FA03F31CEAE5
:109A6400030F36D005EB090C92099CF930C055F868
:109A74002CB0BBF1000F0AD1032A2AD10DF1080E34
:109A84001EF801C04CEA030C0EF801C001E0032AE1
:109A9400F4D009F5E07110F80C0C58F821101842B4
:109AA400C1F3014105D0022913D1032A0BD1114678
:109AB40004E003290DD1032A05D102214846FFF70A
:109AC40041FE0134E4B2BBF1000F02D01146484616
:109AD400D8470AF1010ABAF1040FAFD134B14FF0FB
:109AE400A043019AD3F81035934202D105B0BDE8E2
:109AF400F08F0193029B03939AE700BF006000403C
:109B04007C610040B82B0020082C0020014B1B680E
:109B1400184700BF142C002000F1804000F5E040FD
:109B2400002382B0036003680193019B02B0704775
:109B3400F0B5534B534C1B6885B0002B3DD04FF40C
:109B4400827094F82E20FFF7E7FF2AB394F82F30A1
:109B540013BB4D4B1B68002B33D04FF48070FFF7C1
:109B6400DBFF94F82D20638B91B28B424ED95B1AA4
:109B740021899BB26383CB1A616801EB4301434B98
:109B8400C3F82C16C3F830264FF48270FFF7C4FFD5
:109B94003F4B01221A6014E0636802932389ADF8F5
:109BA4000C30E36800218DF8041023BB2374236870
:109BB40001A89847002384F82F3094F82E30002B06
:109BC400C7D1344B1B685BB14FF48870FFF7A4FF17
:109BD4000023237402238DF8043001A823689847D6
:109BE4002D4B1B6813B34FF48A70FFF795FF0023C6
:109BF400237405B0F0BD208B608363602081E16035
:109C0400002AD4D1214B01221A60D0E7BCD1E368E9
:109C1400012184F82F103BB1002161831B49C1F855
:109C24002C36C1F83026AFE76383ADE766694FF0A1
:109C340000470125002EDCD0B6FA86F227FA02F39B
:109C44004632920026EA030602F1804303F5E0431C
:109C54001B68002BEED01046FFF75EFFA2F58C7256
:109C6400D30882F00402C2F380028DF808308DF824
:109C740004508DF80920236801A89847DAE700BF4B
:109C8400047100401C2C0020007100400070004052
:109C940004700040107100401471004038B51E4B30
:109CA400044693F82C00A8BB1C4A19602178C2F81A
:109CB400F0156178C2F8F415E5781874012183F879
:109CC4002C1083F82D00586183F82F0083F82E5050
:109CD4006FF00043C2F808334FF48270FFF71CFFA3
:109CE4004FF48070FFF718FF4FF48A70FFF714FFEA
:109CF400A3780B485B01DBB280F807338023036051
:109D04000223C2F804330DB1C2F80413C2F80015DB
:109D1400002038BD0820FCE71C2C00200070004007
:109D240000E100E02A4B1A7C70B502F0FF05002A1E
:109D34004BD10A79012A9CBF264CC4F8005500F186
:109D44000C0503EB4504247924B993F82D40013420
:109D540083F82D4003EB4503CC790D7A8E781C7182
:109D64005D714B7836021B0106F4E06603F03003A4
:109D740033430E7806F003063343CE78360306F4F5
:109D840080563343160406F4E02633434E7989792A
:109D9400360506F480160906334301F080710B433F
:109DA4000C4901EB0016000100F1804000F5E04091
:109DB400012AC6F81835C0F81455C0F8104502D861
:109DC4000123C1F80035002000E0112070BD00BF60
:109DD4001C2C002000700040264A274B70B5054615
:109DE4001220C2F808031C7C022C03D1C2F804031D
:109DF400112070BD187C01281DD1D86818B1022328
:109E0400C2F80433F4E7DD60198393F82E3063B9A4
:109E14001A4A1368002BFCD04FF48070FFF77CFEC5
:109E2400144BC3F82C56C3F83016124B0222C3F855
:109E340004230020DDE7022093F82E40C2F8040337
:109E4400012600201E745D601981D8603CB15983DD
:109E540093F82D30C2F82C56C2F83036C9E7C2F850
:109E64002C564FF48070C2F83016FFF755FE20468A
:109E74001660BEE7007000401C2C002000710040FA
:109E8400084A137CDBB2012B09D192F82E0018B1D9
:109E9400054A002013607047044A13607047082085
:109EA400704700BF1C2C002000700040047000406C
:109EB400F0B51B4F8BB207EB001443EA0243C4F81E
:109EC4001C35184B40005C6900F1010C4FF0004652
:109ED40011F5006F26FA0CF64FF0800505FA00F52F
:109EE4000BBFB44334435C615C610CBFC7F80853D7
:109EF400C7F8045340244FF000455969844025FABB
:109F040000F040F2FF75AA42054A0BBF81430143AA
:109F1400596159610CBFC2F80843C2F80443F0BD4B
:109F2400007000401C2C0020124B1A7C10B5F2B9B2
:109F340000F10C0103EB4102127922B193F82D20B8
:109F4400013A83F82D2003EB410300249C80030194
:109F540003F1804303F5E04340F2FF72C3F8144574
:109F64000549C3F81045FFF7A3FF204610BD112093
:109F7400FCE700BF1C2C002000F8FFFF38B5134B92
:109F84006FF00042C3F80823114A8021C2F8801000
:109F9400104A01211160104942F21072086808B990
:109FA400013AFBD10D4D0024C3F800452C7405EB98
:109FB40044031B7F13B1E0B2FFF7B6FF0134082C52
:109FC400F5D1002385F82C3038BD00BF0070004067
:109FD40000E100E008700040147100401C2C0020D7
:109FE4003FDF70477ADF70477CDF70478FDF704751
:109FF400FCF77ABF38B50478002C42D140680121BF
:10A00400B0F90050FFF7E8FE08B1FCF76DFF4FF41C
:10A01400167315FB03F3002BB8BF03F2FF339B1237
:10A0240003EB43035B0003F587739BB240F6B7323F
:10A03400934255D840F654318B422DD9C3F53B6336
:10A044003A24083363436FF0630493FBF4F46434F9
:10A05400E4B222462349002001F0B7F94FF6FE721C
:10A064002146214805F0FCFF30F0080209D020F019
:10A074000202112A05D043F20142904201D0FCF7BA
:10A0840033FFFFF77BFF194B0222C3F80823184B59
:10A094008022C3F8802138BD40F6B422934208D907
:10A0A400CB1A18245C436FF09F0394FBF3F42A3417
:10A0B400CEE740F688118B4206D9D41A6FF0180304
:10A0C40094FBF3F41234C3E740F634029342C0D94C
:10A0D400CB1A06245C43074B94FBF3F40634B7E72E
:10A0E4006424B6E7F91C0300A82E00200070004089
:10A0F40000E100E0ACFEFFFF08B5044800F074FE88
:10A1040018B1BDE80840FCF7EFBE08BD242F0020BD
:10A114001FB515491548FFF7C1FD08B1FCF7E4FE6A
:10A12400134A10685168127A01AB03C301A90020D5
:10A134001A70FFF7F7FD08B1FCF7D6FE01210D48B0
:10A14400FFF74AFE08B1FCF7CFFE01210A48FFF7EA
:10A1540043FE08B1FCF7C8FEFFF792FE08B1FCF716
:10A16400C3FE05B05DF804FBF99F020075180300F7
:10A17400F91703004C2C00204E2C002008B504488D
:10A1840000F0A0FC18B1BDE80840FCF7ADBE08BD66
:10A19400FC2E0020042808B50AD10649002000F04E
:10A1A40067FF03F041F818B1BDE80840FCF79CBE16
:10A1B40008BD00BF6418030003881D2B37B504468F
:10A1C40044D005D8102B19D0112B2FD003B030BD9B
:10A1D4003B2B34D0562B37D0212BF7D11F490020ED
:10A1E40000F046FF002301A9A088ADF80430FFF772
:10A1F400FDFE0028EAD0FCF777FEE7E718490020C7
:10A2040000F036FFA188174C1748218002F048F867
:10A2140008B1FCF769FE154D29780029D6D12088AC
:10A2240002F0B2FE2B7801332B70CFE710490020E7
:10A2340000F01EFF0B4B4FF6FF721A80C6E70D4964
:10A24400002000F015FFC1E70B49F9E790F91B2046
:10A254000A49002001F0B9F8B8E700BF1C18030050
:10A2640002180300E0220020582F0020642F002051
:10A274000E18030030180300461803005B1803008F
:10A2840008B50B780A2B4AD8DFE803F006154949CC
:10A2940022282E343A3F440000224FF47A71204899
:10A2A400FDF7B4F808B1FCF71FFE1E490020BDE815
:10A2B400084000F0DDBE1C49002000F0D9FE18481B
:10A2C400FDF7EAF800282AD0BDE80840FCF70CBEE8
:10A2D400164B17494FF4F0121A60E7E7134B154970
:10A2E4004FF096721A60E1E7104B13494FF4B40231
:10A2F4001A60DBE70D4B11494FF0E1621A60D5E7B4
:10A304000A4B0F4A1A600F49D0E7084B0E4A1A60ED
:10A314000E49CBE7054B0E4A1A600E49C6E708BD45
:10A32400BC2E0020631A0300A31A0300D8220020C5
:10A33400D01A0300FE1A03002D1B03005C1B03004C
:10A344000000302A8B1B030000006054BB1B030079
:10A354000000C0A8EC1B03007FB5082301934FF64F
:10A36400FF72034601A902A802F096FE08B1FCF7A9
:10A37400BBFD019902A802F03BFE08B1FCF7B4FD55
:10A3840007B05DF804FB000000B50138B3B007283E
:10A3940009D8DFE800F004080B0D0F11133322492C
:10A3A400002000F065FE33B05DF804FB1F49F7E7B9
:10A3B4001F49F5E71F49F3E71F49F1E70823CDE9F2
:10A3C400023312AA03AB02A904A802F0F9FD08B1F2
:10A3D400FCF78AFD1949002000F04AFE0220FFF72D
:10A3E400BBFF039B0093029A154812AB04A903F028
:10A3F400E5FD0028D7D0FCF777FDD4E7114900200C
:10A4040000F036FE12A9002002F0F6FE0528CAD09C
:10A4140008B1FCF769FD0620FFF79EFF0DF1590115
:10A42400074803F0BBFDE4E7E5180300FC1803004C
:10A434000F190300221903004419030066190300CD
:10A44400502C0020891903001FB5044603F02CFB8F
:10A45400204603F04FF923780D2B18D8DFE803F0DA
:10A4640007170C191B172340173C17402F401D4991
:10A47400002000F0FDFD0AE0608801F089FB237AEA
:10A484000093024663881849002000F09EFF04B040
:10A4940010BD1649ECE7002303A960888DF80C3041
:10A4A40002F080FDF3E71249002000F0E1FDFEF721
:10A4B40045FB30F00803EAD0FCF716FDE7E7BFF3ED
:10A4C4004F8F0C490C4BCA6802F4E0621343CB6013
:10A4D400BFF34F8F00BFFDE720690028D7D0EBE71B
:10A4E400A068FAE71D1C0300471C0300881C030036
:10A4F400CD1C030000ED00E00400FA050A7808B55D
:10A5040012B1012A0ED008BD4FF4F0110C48FCF72B
:10A514007DFF08B1FCF7E8FC0A490020BDE80840CB
:10A5240000F0A6BD0849002000F0A2FD0448FCF795
:10A53400B3FF0028E7D0BDE80840FCF7D5BC00BF56
:10A54400382F00200A1A0300361A030010B50C78BD
:10A5540014B1012C10D010BD0B49204600F088FD29
:10A564000A4B0B4819682246FCF750FF0028F2D02A
:10A57400BDE81040FCF7B8BC0649002000F078FDA7
:10A584000348FCF789FFF1E7AF190300D822002044
:10A59400DC2E0020DC19030000B5B1B0FCF7F4FE9A
:10A5A40008B1FCF7A1FC944A94480121FCF71CFF74
:10A5B40008B1FCF799FC924A92480121FCF714FF78
:10A5C40008B1FCF791FC904A90480021FCF70CFF7D
:10A5D40008B1FCF789FC8E49032006F06DF908B137
:10A5E400FCF782FC05A9002006F036FA08B1FCF756
:10A5F4007BFCFDF7AFFB08B1FCF776FC05F0F6FD3C
:10A6040008B1FCF771FC002305A90120059305F0AE
:10A61400B5FE08B1FCF768FC05A805F061FF08B1B8
:10A62400FCF762FC0120FFF7DBFC212379488DF85D
:10A634000C3006F0AFFB774982B203A8FFF7D4FCD5
:10A6440008B1FCF751FC0822002105A806F04DFBD7
:10A65400DFF810C2704B05A8CDE905C3FFF7C2FCB3
:10A6640008B1FCF741FC00216C4801F08DFC08B1F5
:10A67400FCF73AFC0023CDE90133CDE90333694605
:10A68400674B6848009301F0F9FD08B1FCF72CFC16
:10A69400654B0193654B0393212242F2211301A9D7
:10A6A40063488DF80920ADF80A308DF81120ADF813
:10A6B400123000F079F908B1FCF716FC03A95D48E3
:10A6C40000F0FEFA08B1FCF70FFC0021102205A8E7
:10A6D40006F00BFB584B059301238DF81830574BAC
:10A6E4000020CDE9070305A9554805F049FC08B148
:10A6F400FCF7FAFBAC22002105A806F0F6FA0223C7
:10A704008DF8143040F201634E4AADF8163001233F
:10A71400ADF8603019928DF88D304FF4C8724FF453
:10A72400FA73CDE9272340F201134FF4E151ADF858
:10A7340090300023CDE929134348444B2E9305A9B7
:10A7440003F06AFA08B1FCF7CFFB01213E4803F09D
:10A7540060FA02F075FB08B1FCF7C6FB0522002184
:10A7640005A806F0C2FA059B03F07C42384B13435C
:10A7740005939DF8183023F0030343F0030305A861
:10A784008DF8183002F0F6FB08B1FCF7ADFB314848
:10A7940002F0D8FB08B1FCF7A7FB082303934FF69C
:10A7A400FF72012303A905A802F076FC08B1FCF7A7
:10A7B4009BFB039A284908230132002000F005FE80
:10A7C400039905A802F0F2FB08B1FCF78DFB2349BD
:10A7D400BDF81420002000F0F8FD03211A4803F00E
:10A7E4009AFA08B1FCF780FB1D49002000F040FCF8
:10A7F400FDF7C6FAFCE700BF81A10200841803003C
:10A8040015A1020080180300FDA002007C180300BB
:10A8140099A10200881803000A00800C102F002060
:10A82400F59F0200582F002001A5020085A2020016
:10A83400FC2E0020242F002051A5020064020202F5
:10A84400A82E0020DC220020502C00208DA3020022
:10A85400310710034DA4020095180300C218030029
:10A86400D7180300A0009001A8DF7047AADF704743
:10A87400ACDF7047ADDF7047AEDF704762DF704713
:10A8840038B5054D044645F001054FF47A40A84714
:10A89400013CFAD138BD00BF301E03002DE9F3415D
:10A8A4003C4B05463C482A88C01AC00800040C46A4
:10A8B40040F003003949FCF787F87CB12B88112B51
:10A8C4000FD0502B12D0102B08D1AB88E381032377
:10A8D4008DF80430236801A92046984702B0BDE8EA
:10A8E400F0814FF6FF73E3810223F1E7EA88E388FE
:10A8F4009A421CD1AA7C6ABB4FF0A0462849104654
:10A9040000F0B6FB8023C6F80C35042703234FF46C
:10A914008078C6F81C774FF49660C6F82037C6F8DE
:10A924000885FFF7ADFFC6F80C85C6F82077EA88DE
:10A9340063899A42D2D12B8A022BCFD12368002B70
:10A94400CCD005F1120001F0DAF980F001008DF8A5
:10A954000400BFE7531E3B2BE9D84FF0A046114932
:10A96400002000F032FD4FF48073C6F80C35042744
:10A9740003234FF08008C6F820774FF49660C6F89A
:10A984001C37C6F80885FFF77BFFC6F80C85C6F8A8
:10A994001C77CCE7A40E0300C40E0300C51D0300FE
:10A9A400EB1D0300081E03002DE9F0410E4694B090
:10A9B4000546002800F0828000297FD00B680360E0
:10A9C4004FF6FF73C3813E4B04AA03F1100C1746E4
:10A9D40018685968144603C4083363452246F7D1FE
:10A9E40005F110013846FFF749FF0446002861D1FC
:10A9F4002B7C8DF80A302A1D4FF4A05302A90120A4
:10AA0400ADF80830FFF730FF0446002852D1014664
:10AA14000322684606F069F911238DF80030737932
:10AA24008DF801309DF80230012767F34203214677
:10AA34001C220DA88DF8023006F057F99DF8343029
:10AA44000E9423F01A0343F01A038DF834300DF1F9
:10AA540004082B7C8DF80E30214641F20143032279
:10AA64004046CDE910441394ADF80C30CDF848D0ED
:10AA740006F03BF9B3798DF80430F3798DF805309D
:10AA84009DF8063023F01F0343F0020321461422ED
:10AA940008A88DF8063006F028F903ABCDE908388C
:10AAA40008AAAB1D0DA9A8880A97ADF82C70FFF76A
:10AAB400DDFE0446204614B0BDE8F0810E24F9E71B
:10AAC4001E1D0300F0B5404B404904464048C01ADF
:10AAD400C008000489B040F00300FBF771FF002CAC
:10AAE4006FD002AE08220021304606F0FEF80123A2
:10AAF400029332460DF10703E18803934FF6FF708A
:10AB0400FFF7B8FE08B1FCF7EFF99DF80730E188CC
:10AB1400E089013B32468DF80730FFF7A9FE054670
:10AB2400002846D1E2894FF6FF739A421CD01022C6
:10AB340001460DEB020006F0D8F8E388ADF81030BA
:10AB440001238DF81230BDF80A30ADF8143004A991
:10AB5400039BE08906960793FFF78EFE1D49054681
:10AB64000246002000F031FC9DF8072022BB10466D
:10AB7400194900F02AFC012320468DF8103004A95D
:10AB840023684FF0A04498478023C4F80C3504266A
:10AB940003234FF48077C4F81C674FF4FA60C4F8B9
:10ABA4002037C4F80875FFF76BFEC4F80C75C4F8B9
:10ABB4002067284609B0F0BD0849002000F005FCD4
:10ABC400F7E70E25F5E700BFA40E03002E1D0300D2
:10ABD400C40E0300511D0300701D0300941D0300E7
:10ABE400A8DF7047AADF7047ADDF7047AEDF70475C
:10ABF40062DF704737B52E4B05462E482A88C01AA7
:10AC0400C00800040C4640F003002B49FBF7DCFEAF
:10AC14007CB12B88112B0ED0502B11D0102B08D1C6
:10AC2400AB88E38103238DF80430236801A920460F
:10AC3400984703B030BD4FF6FF73E3810223F2E778
:10AC44001E49002000F014FAEA88E3889A420FD1E2
:10AC5400AB7C062B29D8DFE803F004041E20222451
:10AC6400260004238DF8043001A923682046984760
:10AC7400EA8863899A42DCD12B8A022BD9D12368D2
:10AC8400002BD6D005F1120001F039F880F0010054
:10AC94008DF80400C9E70523E4E70623E2E7072368
:10ACA400E0E70823DEE70923DCE70A23DAE700BF4D
:10ACB400A40E0300C40E0300C51D0300251F0300DA
:10ACC4002DE9F0410E4694B00446002800F085803A
:10ACD400002900F082800B6803604FF6FF73C38184
:10ACE4003F4B04AA03F1100C17461868596815461F
:10ACF40003C5083363452A46F7D104F110013846E9
:10AD0400FFF776FF002865D1237C8DF80A30221DD9
:10AD14004FF4A85302A90120ADF80830FFF760FFF3
:10AD240008B1FCF7E1F803220021684605F0DDFFD5
:10AD340011238DF8003073798DF801309DF80230BD
:10AD4400012767F342031C2200210DA88DF802306D
:10AD540005F0CBFF9DF83430CDF848D023F01A032A
:10AD640043F01A038DF834301E4B0E930025237CD8
:10AD74008DF80E300DF1040841F2015303222946E7
:10AD84004046ADF80C30CDE91055139505F0ADFFF4
:10AD9400B3798DF80430F3798DF805309DF80630D9
:10ADA40023F01F0343F002031422294608A88DF858
:10ADB400063005F09AFF03ABCDE9083808AAA31DB5
:10ADC4000DA9A0880A97ADF82C70FFF70BFF08B106
:10ADD400FCF78AF814B0BDE8F0810E20FAE700BF52
:10ADE400361E0300471F030070B52E4B2E4C2F490F
:10ADF400E41AE408240444F0030488B00546204619
:10AE0400FBF7DEFD2A49002000F032F9002D47D07F
:10AE140002AE08220021304605F067FF01230293A9
:10AE240032460DF10703E98803934FF6FF70FFF7ED
:10AE3400DBFE08B1FCF758F8EA894FF6FF739A4233
:10AE440024D010220DEB0200002105F04EFFEB8808
:10AE5400ADF8103001238DF81230BDF80A30ADF88A
:10AE6400143004A9039BE88907930696FFF7BEFEF6
:10AE74001049024605462046FBF7A6FD2A460E4920
:10AE8400002000F0A2FA284608B070BD0B49204605
:10AE9400FBF796FD0A49002000F0EAF80825F2E7DE
:10AEA4000E25F0E7A40E0300C40E0300461E0300A3
:10AEB400691E03009C1E0300511D0300BC1E0300F9
:10AEC400F11E03000369C1688B429DBF8268D218DA
:10AED40002F1FF3203F1FF3394BF501A581A70473E
:10AEE4002DE9F041D0E9027405463E1B40689642C4
:10AEF40020448846144404D905F0CEFEEC60BDE835
:10AF0400F0813246E41B05F0C7FE224608EB060139
:10AF14006868F1E72DE9F843C5680646894617468F
:10AF24004FF000083469B3687068A54228BFE4187C
:10AF3400013C621B5C1BBC4228BF3C46944228BFB8
:10AF4400144649462844224605F0A6FEB368254423
:10AF5400AB4208BF00253F1BA044A144F560E1D1EA
:10AF64004046BDE8F883000010B5114C114AA261B7
:10AF74000223C4E90433104BE361A2644FF4007369
:10AF84000E4A2362E264002310220D49A362E01DED
:10AF94006362E362A3656365E365226505F0D8FE39
:10AFA4000849204605F0D4FE2023A37110BD00BF3C
:10AFB400682F0020591F0300F02F0020E02F0020ED
:10AFC400621F0300661F0300F8B5184C182300FB2A
:10AFD400033503FB00402544C46A012C0F46164682
:10AFE40011D024B1022C1BD000242046F8BD2846E1
:10AFF400FFF768FFB042F8D3324639462846FFF7D8
:10B004006FFF3446F1E72846FFF75CFF864234467B
:10B0140028BF0446224639462846FFF761FFE4E785
:10B024002846BDE8F840FFF775BF00BF682F002031
:10B0340073B50E4B1B7804460D4616460BB9FFF745
:10B0440093FF00230DF107008DF80730FCF73EFA5B
:10B05400324629462046FFF7B7FF04469DF807000D
:10B06400FCF758FA204602B070BD00BF682F0020DC
:10B0740038B5054608460C4605F08CFE21460246C6
:10B084002846BDE83840FFF7D3BF826810B50446B0
:10B094004068531C834205D820688154A360E36848
:10B0A4000133E360D4E901329A420BD1216820696B
:10B0B400FFF7BEFFA368984215BF4FF0FF3300238C
:10B0C400E360A36010BD00002DE9F84F9A46DDE966
:10B0D4000A439046064689460A460127424513D24A
:10B0E400574538BF574613F0010B01D184B90024EA
:10B0F400F368002B48DB0125BAF1010F1FD90AF1CF
:10B10400FF3A08FB05F5F7E7B2FBF8F20137E5E78C
:10B114009B0712D5BAF1000F0CBF30252025A7429A
:10B12400E6D229463046FFF7B0FFF368002B04F15E
:10B13400FF34DDDB002CF2D1D9E72025EFE7B9FBA2
:10B14400F5F39845DDD9DFF848A0B9FBF5F33046AF
:10B154001AF8031005FB1399FFF797FFF368002B08
:10B1640003DBB5FBF8F3454510D2BBF1000F0BD060
:10B1740054B1A74208D220213046FFF786FFF36876
:10B18400002B04F1FF34F3DABDE8F88F1D46DCE749
:10B194006D1F03002DE9F04F9BB00AAB0E460593DB
:10B1A40040210023CDE90613CDE90830039015466C
:10B1B4004FF00A0916F8011B39B9089B002B00F35C
:10B1C400F98008981BB0BDE8F08F25294CD14FF0C9
:10B1D400000B09E02D2B04D0302B0DD14BF0020BCA
:10B1E40001E04BF0010B0E46314611F8013B2B2BCD
:10B1F4000FD0EFD8232B0FD00024314611F8013B98
:10B20400A3F1300009280AD809FB0434303C0E4667
:10B21400F3E74BF0040BE6E74BF0080BE3E72E2BC8
:10B224000FD10E464FF0000A304610F8011BA1F171
:10B234003007092F07D809FB0A13A3F1300A064681
:10B24400F2E74FF0000A304610F8011B01F0FB074B
:10B25400682F0646F8D0642926D009D8582916D074
:10B2640063291CD025290AD105A8FFF70EFF06E0A3
:10B27400732900F0878006D8702900F09380089B1A
:10B28400002B97DA99E7752973D07829F7D12968C3
:10B29400CDE9004B081D28605346102270E02B684E
:10B2A4001A1D2A601978DFE729680F68081D87EAE4
:10B2B400E7712860A1EBE7714FF00108092936DC3A
:10B2C400D04538BFD0462CB1002F02DB1BF0040F51
:10B2D40000D0013C1BF0020F02D0BAF1000F04D0E1
:10B2E4001BF0010F01D13CBB002408990029C6DBE7
:10B2F400002F2DDA7F422D2105A8FFF7C6FE0899FD
:10B304000029BCDB0BF00301022904D1BAF1000FC0
:10B3140001D114BB002408990029B0DBCDE9004B0E
:10B3240053460A22394605A8FFF7CEFEA7E7B1FB2C
:10B33400F9F108F10108C1E7A045D6D2202105A8FA
:10B34400FFF7A3FE0899002904F1FF34CBDACCE718
:10B354001BF0040FD3D02B21CEE7A045DBD2302144
:10B3640005A8FFF792FE0899002904F1FF34D0DA0A
:10B37400D1E72968CDE9004B081D286053460A220D
:10B384000968D0E72B681A1D2A601C6814F8011B91
:10B3940000293FF474AF05A8FFF777FE089B002B44
:10B3A400F4DA6CE729680B1D2B6000220823CDE931
:10B3B400003272E7079A1AB10AA90398FFF738FE18
:10B3C400DDE9072313440893FBE60EB403B503AB8E
:10B3D40001AA53F8041B0193FFF7DCFE02B05DF8E9
:10B3E40004EB03B070476DDF704779DF70477DDF92
:10B3F400704764DF70472DE9F04F85B000250E9C3F
:10B40400BDF83CB027880191804691469A462E4665
:10B41400B8F80020B2420CDC3DB12288013AD21BBC
:10B4240092B2FF2A3BD80AF80720002005B0BDE8F5
:10B43400F08FD8F8042052F82600039000220DF172
:10B444000B0103A8FFF7D5FF0028EFD19DF80B20CF
:10B454004A4522D12288002D14BF0020022002EB8D
:10B464000901014459451ADC45B9013292B2019BE4
:10B4740022800AF8023022880132228022880DF1CB
:10B484000B01524403A8FFF7B4FF0028CED1218852
:10B494009DF80B200A44228001250136B8E70C20D0
:10B4A400C4E72DE9F341089CBDF824501746CDE9C3
:10B4B4000045022206469846FFF79DFF50B94346D1
:10B4C400102239463046CDE9084502B0BDE8F041C6
:10B4D400FFF791BF02B0BDE8F0812DE9F04F0023E2
:10B4E4001688138090F82D3085B007460D46144613
:10B4F40053B3082E01D80C2027E102A8FFF773FFED
:10B50400002840F0228123880822EA54238801334A
:10B514009BB21B222380EA542088013080B2208011
:10B5240006220DF10901284405F0B6FB23889DF895
:10B53400082006339BB212F0FE0218BF01222380BA
:10B54400EA54238801332380BB78FBB12388043376
:10B55400B342D0D802A8FFF748FF002840F0F58096
:10B5640023880322EA54238801339BB219222380BF
:10B57400EA542388BDF8082001339BB2E9182380DC
:10B58400EA54120A4A70238802332380FA789AB163
:10B594002388D91CB142AED80221E954238801334F
:10B5A4009BB201212380E95423880B449BB223805E
:10B5B400EA5423880B4423807A68AAB12388D91CCF
:10B5C400B14298D8022192F90020E954238801332A
:10B5D4009BB20A212380E954238801339BB2238040
:10B5E400EA542388013323803B89002B40F0A18057
:10B5F4003B8A5BB1CDE900462B460722032107F1C4
:10B604001000FFF74EFF002840F09F803B8B5BB19A
:10B61400CDE900462B461522142107F11800FFF747
:10B6240040FF002840F091803A6A002A40F0908060
:10B63400D7F82480B8F1000F30D0B8F8043021884E
:10B64400981C8A1C0244B2423FF655AFFE283FF6CE
:10B6540052AF03336B54238801339BB2FF22238000
:10B66400EA54238801339BB22380B8F80020EA54BB
:10B67400E918120A4A702088023080B22080B8F893
:10B6840004205AB1D8F8081000296BD0284405F0DA
:10B6940003FB2388B8F804201344238097F82C3044
:10B6A400002B40F09A80387800284ED03B88012B3C
:10B6B40058D0228802F1020CB4453FF61CAF012891
:10B6C40005D17B78023313449E42FFF414AF023E4B
:10B6D400B61AB6B202A905EB0C00ADF80860FFF784
:10B6E40086FE90BB3978BDF80820022900F0BA80A4
:10B6F4007B78934202D3B24240F2B280012940F0F7
:10B70400B3809BB29E42C0F0AF80ADF808300821F0
:10B71400BDF80830FE2B3FF6EEAE22880133AB5461
:10B724002288013292B22280A954228813442380B1
:10B734000BE0CDE900462B460622022107F1080062
:10B74400FFF7AFFE00283FF453AF05B0BDE8F08F1C
:10B75400B4F800C00CF10603B3423FF6CCAE118836
:10B76400052901D80720F0E76FF4486E01EB0E03BA
:10B774009BB24FF27D3E7345F4D95388052BF1D922
:10B784006FF44860181880B27045EBD94FF6FF701B
:10B79400814203D0834201D09942E3D8052305F8BE
:10B7A4000C30238801339BB212212380E95423886F
:10B7B40001339BB223801188E954E818090A4170C7
:10B7C400238802339BB223805288EA54E918120A70
:10B7D4004A702388023323802AE7BB6A002BC1D036
:10B7E4004FF000094FF00C0A4FF0160B97F82C306D
:10B7F4005FFA89F293427FF656AFB96A0AFB02F206
:10B8040001EB0208B8F80430981CFE283FF673AE2A
:10B81400208803332B54238801339BB2238005F8FB
:10B8240003B0238801339BB223808A5AEA54E9186F
:10B83400120A4A702088023080B22080B8F80420AE
:10B844005AB1D8F8081000298CD0284405F024FAFD
:10B854002388B8F804201344238009F10109C5E7BB
:10B86400092155E7B242FBD9ADF808604FE770B53E
:10B87400C0B14AB116880024B44203D305196D78C7
:10B884009D4208D0A14201D800200BE0055D01359E
:10B894002C44A4B2F0E7A142F6D9A31C1380005DA6
:10B8A400013880B270BD13B50023ADF806301346DD
:10B8B4000DF106020446FFF7DAFF10B1BDF80600E9
:10B8C400204402B010BD0000034B1A8882420CBF12
:10B8D40018460020704700BF0C320020024B9B69C1
:10B8E40003B11847704700BFF031002013B50B4671
:10B8F400497A0F4C024669B9D4E901101C7A002C2C
:10B9040018BF01465868FBF781FD08B1FFF7E6FF51
:10B9140002B010BD002119726369002BF8D0012117
:10B92400ADF806008DF8041001A89847F0E700BFB1
:10B93400F03100204B8802889A4213D842889A42F8
:10B9440010D380888A8840F2F313984294BF031A74
:10B95400C31A934206D800F2F310904234BF002079
:10B9640001207047002070470388112B70B50146F1
:10B9740048D002D8102B1ED070BD122B52D0502BA1
:10B98400FAD12F4BC288DB899A42F5D1038A022B64
:10B99400F2D186883046FFF797FF05460028EBD0A2
:10B9A40001F1120000F0ABF930BB6868FBF774FDDD
:10B9B4000028E1D009E0C37B012BDDD14FF6FF70F5
:10B9C400FFF782FF054620B90420BDE87040FFF769
:10B9D40085BF1C4A8E880680002303721368C5F84D
:10B9E4000A300A30536843601031FFF7A3FF144B49
:10B9F4006872DB89002BBFD129463046BDE8704010
:10BA0400FFF774BF8088FFF75FFF04460028B3D0B8
:10BA14004068FBF741FD08B1FFF760FF4FF6FF7385
:10BA24002380A9E786883046FFF74EFF05460028A5
:10BA3400A2D008310A30FFF77DFF6872DCE700BF4F
:10BA4400F031002020320020F7B5174601900E4651
:10BA540091B1019C6CB100252C46294601A8FBF745
:10BA64003AFE18B13946A8B2B04701340135142D55
:10BA7400F3D1204603B0F0BD0C46FAE773B501914B
:10BA8400019C06466CB100252C46294601A8FBF70B
:10BA940022FE18B106EB440301349D800135142DB8
:10BAA400F3D13046346002B070BD00002DE9F04798
:10BAB40003888488112B8CB006463CD01A2B3FD0C7
:10BAC400102B17D1274DAB68DB4300936968684698
