:020000022000DC
:1060000000000120756302005D6302005F6302000F
:106010006163020063630200656302000000000028
:1060200000000000000000000000000067630200A4
:1060300069630200000000006B6302006D630200F0
:10604000319602006F630200499802006F630200FC
:106050006F6302006F630200CD96020039A1020057
:106060006F6302006F6302006F6302006F630200E0
:106070006F6302006F6302006F6302006F630200D0
:106080006F630200816F02006F6302006F630200A2
:106090001D7002006F630200B50903006F63020008
:1060A0006F6302006F6302006F6302006F630200A0
:1060B0006F6302006F630200000000000000000038
:1060C0006F6302006F6302006F6302006F63020080
:1060D0006F6302006F6302006F6302000000000044
:1060E00000000000000000000000000000000000B0
:1060F00000000000000000000000000000000000A0
:10610000000000000000000000000000000000008F
:10611000000000000000000000000000000000007F
:10612000000000000000000000000000000000006F
:10613000000000000000000000000000000000005F
:10614000000000000000000000000000000000004F
:10615000000000000000000000000000000000003F
:10616000000000000000000000000000000000002F
:10617000000000000000000000000000000000001F
:10618000000000000000000000000000000000000F
:1061900000000000000000000000000000000000FF
:1061A00000000000000000000000000000000000EF
:1061B00000000000000000000000000000000000DF
:1061C00000000000000000000000000000000000CF
:1061D00000000000000000000000000000000000BF
:1061E00000000000000000000000000000000000AF
:1061F000000000000000000000000000000000009F
:10620000354936480A1A02D0072291438D4634494F
:1062100034480A1A06D00722914381F309880222E2
:1062200082F3148830483149314A00F044F831484B
:106230003149324A00F03FF831483249324A00F0E1
:106240003AF832483249334A00F035F83248334997
:10625000334A00F030F833483349344A00F02BF821
:1062600033483449344A00F026F83448344900228F
:1062700000F02CF833483449002200F027F8334866
:106280003349091A082902DB002202604160314AC1
:1062900090471F481F49884205D00268043003B464
:1062A000904703BCF7E700208646EC46002000211B
:1062B000294A9047FEE7884207D0521A05D0037852
:1062C00001300B700131013AF9D17047884202D098
:1062D00002700130FAE770470000012000E0002062
:1062E0000000012000000120083E0300CC22002015
:1062F0002C230020D4630200D46302009E0F03000D
:10630000083E0300CC220020CC22002040110300D4
:10631000401103004011030040110300401103002D
:10632000401103004011030040110300083E030028
:10633000683E03002C2300202C2300202C23002067
:10634000B4370020B4370020B4370020B437002021
:10635000B45700209D630200B1AB0200FEE7FEE7E8
:10636000FEE7FEE7FEE7FEE7FEE7FEE7FEE7FEE705
:10637000704700BF1048804710484FF0070188431E
:1063800085460F4880470F48016841F4700101605D
:10639000BFF34F8FBFF36F8FFFF732BF0A480B4930
:1063A0000B4A884207D0521A05D0037801300B708F
:1063B0000131013AF9D170477163020000000120F8
:1063C0008191020088ED00E02C110300B82200202A
:0463D000CC220020BB
:1063D4007047000007B5044B0093044A402300F0C3
:1063E40032F803B05DF804FBF56302002D230020AE
:1063F4002DE9F84389461446B2B10F4B0F4E0325DD
:10640400002743F00108224609EB0701002005F0AC
:1064140075F80744241A48B933782BB14FF47A40FD
:10642400C047013D02D13570BDE8F88301233370C4
:10643400002CE8D1F8E700BF401103002C23002012
:10644400704705F0BAB8F0B595B008460D46164643
:106454001C4601F01AFC1A9A0D920023082205A981
:1064640028460A938DF82C300C93CDE9086401F08A
:106474002AFC079B0293BDF81830ADF80C30BDF828
:106484001A30ADF80E3001238DF811309DF8143018
:1064940003F00302012A1DD1BDF81440059EC3F385
:1064A400C203C4F383148DF81030A20008230EA98C
:1064B400284601F008FCC6F3952608AB0093224653
:1064C40002AB0EA9304600F0EDFB284601F0E1FBDB
:1064D40015B0F0BD022AF8D1BDF81640C3F3C203CB
:1064E400A4098DF810300827082C264628BF082652
:1064F4003B4632460EA9284601F0E5FBA41B08AB37
:1065040002AA31460EA8374400F030FC002CEBD12F
:10651400DBE7704707B5044B0093044A4023FFF7B9
:1065240092FF03B05DF804FB756502006E23002042
:1065340030B50C4D0FCD89B06C460FC495E80F00F3
:1065440084E80F0008A9062341F8203D00220648EC
:1065540003F002F808B100F063FC044B00221A7047
:1065640009B030BD54110300CC2200206D2300205B
:1065740038B50D4B0D4D002018700D4804782D5D75
:10658400D2B21C4665B1043003F084FD08B100F0BA
:1065940047FC084B1A7812B12378002BFBD038BD86
:1065A4000C3003F07BFBF1E7AE230020702C0020BD
:1065B400CC2200206D23002008B50848084A03783F
:1065C400D35C33B1043003F001FDBDE80840FFF7AC
:1065D400AFBF0C3003F0FEFAF7E700BFCC22002077
:1065E400702C0020FFF7A4BF38B50A4DFFF729FF30
:1065F4000421284600F0C4FA074B01245C71FFF71C
:10660400F1FF042105F1100000F0BAFA034B5C71AC
:1066140038BD00BF0C110300E0220020E822002056
:10662400037813F0040216D003F00303012B03D004
:10663400022B09D0012070470A6800880232C0F397
:10664400831002440A60F5E70B684288023303EBC7
:1066540092130B60EEE71046704700002DE9F04FEF
:1066640089B00546861C08A8484C019200230F46B1
:1066740000F8113D00F0C6FE23683B60D4E9012315
:106684001344226801339B1A04F21C4704F5836AFD
:1066940004F21448B3421AD3019A0023002A6DD09D
:1066A400012262F3010343F0040365F389132168B3
:1066B400A2689DF80F000A4003320E4444F82230C9
:1066C400266000F0C3FE012009B0BDE8F08F01216F
:1066D400384601F013F8504601F029F8404601F01D
:1066E40026F80DF120096068D4F808B049F8100DB7
:1066F40000EA0B00033004EB80004946FFF790FFEB
:10670400049BB0B90BEA030204EB8202D168059141
:106714009A1C013303EA0B0B04EB8B0C01F003030B
:10672400012B0492DCF80CB020D0022B04D0834659
:106734000BE00BEA0300DDE7BDF816309B090333D9
:106744004FEA1B4B02EB93030493404600F0F2FF25
:1067540008B1049B63605946384600F0CFFFD4E982
:1067640001231344226801339B1A93E7BDF81430C4
:10677400C3F383134FEA1B4B1344E5E7022262F38E
:10678400010343F0040365F39F5390E78024002042
:106794000B4B0C48FF2210B59A600022C3F8182452
:1067A400C3E90022C3F81424012283F8202401F051
:1067B40025FA044610B9044801F0CEFA204610BD6B
:1067C4008024002030100300A411030030B50A4CCB
:1067D40071B10A4A0A49121BD20800239A4201D114
:1067E400002030BD31F82350854202D00133F5E753
:1067F400034654F83300F4E7441003000C1103007B
:10680400CC220020094B013903EBC000032909D82D
:10681400DFE801F00A02040604207047007970479B
:1068240040797047002070470220704744100300ED
:10683400034BD3E90030C31A58425841704700BF94
:10684400802400202DE9F04387B0FFF7F1FF0646CE
:10685400002840F0FC807F4DC5F81804BFF34F8F2B
:106864006868AC6806AF47F8100D2040033005EBAC
:1068740080003946FFF7D4FE029B18B1D5F81824DE
:10688400002A5FD004EA0302991C013305EB82025B
:10689400234005EB8303D268DB68049302F003030F
:1068A400022B0392029162D1BDF80E306A484FEA7E
:1068B4009318B8F1500FC14628BF4FF0500969F33F
:1068C4008F1309F10801ADF80E3001F0AFF9074656
:1068D400002800F0A78001F0D8F903A900230822BA
:1068E400384601F0E5F9029924EA01060136B600BA
:1068F400B14535D95FFA89F97EB3F6B2A9EB060939
:10690400214003315FFA89F4B146544E05EB81010D
:1069140008234A46384601F0CBF936B109F1080399
:1069240022463146384601F0C3F9029B08F10308B8
:1069340003EB98030293D5F81834002B4BD1D5F808
:1069440010445BE02A689A4204D86A60304607B073
:10695400BDE8F08304EA030088E740493446D7E7FA
:106964002140033108234A4605EB8101DAE7012B74
:1069740058D1BDF80C303848C3F38311062928BF19
:10698400062161F3891302318900ADF80C3001F05E
:106994004DF90746002845D001F077F90023082275
:1069A40003A9384601F084F90026BDF80C20C2F38F
:1069B4008312B31C96424FEA8303BCD202994A1C49
:1069C40021400331029205EB81010422384601F093
:1069D4006FF90136E9E7384601F05BF9FFF728FF64
:1069E40080F00100C6B2B1E7E3685B7923B12368A4
:1069F40039461B6820469847E3681C68002CF3D18D
:106A0400384601F046F906A800F8114D00F0FAFCEA
:106A1400D5F818340BB9029B6B609DF8070000F0A1
:106A240015FDDBE7D5F8104454B90D4B0D480E495C
:106A3400C01AC008000440F0020000F06FF8CDE76F
:106A4400236820469B689847E3681C68ECE70026A7
:106A54007CE700BF80240020301003008C24002039
:106A64004410030074100300B01103002DE9F74F24
:106A7400284C80460F46924601A9012218469B469F
:106A8400D4F80890FFF7EAFD88B3019D0026A91CFD
:106A94005E4506EB010234D100211F4800F0EDFDF4
:106AA40080F310006A1C02EA090204EB820200046B
:106AB40005EA0903033340EA1840D06014F82320A0
:106AC40068F3C50204F8232034F8232066F38912FE
:106AD40024F8232054F82320012167F39F2244F84B
:106AE400232061F301026FF3820204F8232094F857
:106AF40020341BB1FFF7A6FE0028FBD103B0BDE88C
:106B0400F08F09EA020204EB82025AF82630D360BD
:106B14000136BDE7802400209C28002000231A466B
:106B2400FFF7A4BF13B502AC012344F8042D224699
:106B3400FFF79CFF02B010BD07B5CDE90023022387
:106B44006A46FFF793FF03B05DF804FB1FB5CDE978
:106B54000123069B039301AA0323FFF787FF05B0D4
:106B64005DF804FB1FB5CDE90023069B0293079B48
:106B740003936A460423FFF779FF05B05DF804FB2D
:106B840030B50F49D1F81024002314463CB9C46829
:106B9400237152B9C1F810042260184630BDE4686C
:106BA40025799D4206D02468F0E7D26811682160F7
:106BB4001060F2E701330A2BE7D14FF0FF33ECE723
:106BC40080240020094A38B50123D2F8104482F801
:106BD40020341D4604B938BDE3685D71236820463E
:106BE4005B689847E3681C68F4E700BF80240020D2
:106BF400037A052B10B50C460FD0437A23B1084A0B
:106C04000849204600F0F7FD0749204600F0F3FD4F
:106C14002046BDE8104000F0E3BD002AF8D0F3E7B9
:106C2400FB1103006F2B0300261F0300C38873B5F9
:106C340004460D4633B1144A00921449144A2846B6
:106C440000F0D9FD217A05291CD0637A4BB1A088C4
:106C5400FFF7D8FD0F4B104953F82020284600F0C9
:106C6400CAFD227A0D4BA08853F822600021FFF759
:106C7400ADFD0B4903463246284602B0BDE87040DC
:106C840000F0B9BD02B070BDFB110300081203008F
:106C940000120300C81103006F2B03002C12030021
:106CA400201203002DE9F04385B01F460C9D0023FC
:106CB40006460C46904695F80C902B7329463846A8
:106CC400FFF7B4FFB8F1060F09D8DFE808F00412A3
:106CD400181F283340003146284600F08CFD00225E
:106CE40029463846FFF784FF85F80C9005B0BDE8C7
:106CF400F08322683146284600F07DFDEFE7D4E9B1
:106D040000233146284600F076FDE8E7A3680093A7
:106D14003146D4E90023284600F06DFDDFE7E3683F
:106D24000193A36800933146D4E90023284600F078
:106D340062FDD4E723690293E3680193A368009397
:106D44003146D4E90023284600F055FDC7E76369BE
:106D5400039323690293E3680193A3680093314684
:106D6400D4E90023284600F046FDB8E708292DE9B8
:106D7400F84F80460E4617461C463AD8002593F82D
:106D84000C901D7319461046FFF750FFDFF884A0DE
:106D9400DFF884B0AE422ED918F8052059462046B3
:106DA40000F029FD0135082DF4D11849DFF86CB045
:106DB400204600F020FD4FF0000A564520D918F86F
:106DC4000A507E2D03D8284609F0FEFF00B92E256F
:106DD4002A465946204600F00EFD0AF1010ABAF18E
:106DE400080FEAD1012221463846FFF701FF84F853
:106DF4000C90BDE8F88F5146204600F0FCFCD1E72A
:106E04000349204600F0F7FCE7E700BFF611030052
:106E1400F4110300F2110300EC110300F811030054
:106E24001FB50021039001AA44F20100CDE901112C
:106E340000F004F805B05DF804FB000010B572B66C
:106E4400FFF7C0FEFFF7FEFC0028FBD1104B114CEE
:106E54001149E41AE408240444F00100FFF75EFE3B
:106E64000E4B1B68DB0700D500BE0D4944F0020041
:106E7400FFF754FEBFF34F8F0A490B4BCA6802F465
:106E8400E0621343CB60BFF34F8F00BFFDE700BF49
:106E940044100300741003008B120300F0ED00E0B3
:106EA4009712030000ED00E00400FA05094A537844
:106EB40091780133DBB2994208BF002311789942DB
:106EC4001FBF03705078182303FB002014BF043045
:106ED400002070473C29002073B5054602A8002411
:106EE40000F8014D0E4600F08DFA0DF10600FFF793
:106EF400DDFF90B106700A4B9DF8062045605A707C
:106F04009DF8070000F0A2FA24B9064B4FF4801252
:106F1400C3F80021204602B070BD0424F0E700BF8E
:106F24003C29002000E100E0024B4FF43C6043F0B8
:106F340001031847B012030038B50C4B0C4C4FF446
:106F44000032C3F8802001254FF48033C4F848335D
:106F5400C4F808336560FFF7E7FF064BA56000241B
:106F64001C60FFF7E1FF044B1C7038BD00E100E03A
:106F740000100140582A0020492A0020F8B51F4B70
:106F84001F491B680025C1F84051C1F84451C1F89C
:106F94004851C1F84C51C1F80051C1F804514BB3E8
:106FA400D1F8044517490968641A24F07F442F4630
:106FB4001A68A24209D8A41A15441A7CDE691AB1C7
:106FC4001F74D3E905209047AEB90F4B0F4A1978C7
:106FD40013788B4205D10133DBB2022B08BF0023A7
:106FE400137012780A4B43F822500A4B4FF4801264
:106FF400C3F80021F8BD3346DAE700BF5C2A00205D
:1070040000100140582A0020542A0020552A00204C
:107014004C2A002000E100E02DE9F74F9E4A9F49E9
:10702400137809789E4D99423CD00133DBB2022B90
:1070340008BF002313709B4912789B4B0F6853F8C9
:1070440022003B1823F07F4300220B602B68164676
:107054001446944613B942B12B6006E01968814284
:107064000ED902B12B60091A19604FF001082B6880
:10707400DFF83CA200930027BEB9DFF83CB260E021
:10708400401A0C44D968C3F800C0D3F81CE031B1ED
:107094003A1922F07F42C3E90121DE611E46012232
:1070A4007346D7E70026B046E1E73446F6697D4AE1
:1070B40063681268DFF804C2A068991A21F07F415E
:1070C400614500F2A58001442160012222742A68EE
:1070D4000023C4E90133E361002A40F0A2802C605C
:1070E400CAE75A1C9BF80210D2B291428BF80020D6
:1070F40004BF00228BF80020182202FB03B32A6885
:1071040019799C68022974D003297ED0012918D1E9
:10711400217CB1B9DA6862601A69A2605A699B6914
:10712400A361624BE2601B78002BC0D06160BEE7B4
:107134009C4200F093809946DB69002BF8D1002330
:1071440023749BF800309BF801209A42C9D12B6824
:107154002FB9009A934202D1B8F1000F43D0002B0B
:1071640079D0D3F800A0524D4E4BD5F804751C6865
:10717400DFF84C813E1B98F8003026F07F4603363A
:107184009BB94FF48033C5F84433C5F80433494BF5
:107194004FF400324FF00109C3F880211A60C5F89A
:1071A4000090FFF7C1FE88F80090B2452CBF54440C
:1071B400A41924F07F44C5F84045D5F80435DB1BF9
:1071C40023F07F43E41B033324F07F44A3420AD912
:1071D400D5F80435C5F84035FFF7A6FE354B4FF416
:1071E4000032C3F80021314B00221A7003B0BDE80D
:1071F400F08F13469146A0E71174D2690123002A47
:10720400FAD1002B9DD02A609BE700231946F6E7AC
:10721400D31A23F07F43834234BFC31A002323606D
:1072240053E721681368994213D8591A1160E2612F
:1072340055E7091AD8691A4638B1034618688842CE
:10724400F7D3401A1860184613462160E061DC61E8
:1072540012E71346F2E7FFF76FFEC4E74C450DD182
:10726400D3692B6053B90F4801920121CAF8081061
:1072740003600E4B1970FFF757FE019AE16923680A
:10728400C9F81C1011B1086803440B602B689A42BA
:1072940018BF012753E700BF542A0020552A0020B5
:1072A4005C2A0020582A00204C2A0020482A00206A
:1072B4000010014000E100E03C290020FEFF7F00B7
:1072C400492A002008B5FFF737FE104B00200B2297
:1072D40018809A700E4B18600E4B18700E4B187075
:1072E4000E4B4FF48012C021C3F8802183F814138D
:1072F4001A6002F18042A2F56F22C2F8080583F8F1
:107304001113074BD2F804251A6008BD3C2900204C
:107314005C2A0020542A0020552A002000E100E0C5
:10732400582A0020074B9B784BB132B128B103682F
:10733400187C20B959745A61704707207047082097
:10734400704700BF3C2900202DE9F7431D4FBB784F
:1073540005460E4690469BB390B304292ED9436943
:1073640073B3437C02A80024012B00F8014D0CBF29
:107374008946A14600F046F80DF10600FFF796FD98
:10738400D0B101230370104B4560D3F80435C0E934
:107394000498C0E902369DF806307B709DF807001A
:1073A40000F054F824B9094B4FF48012C3F80021BB
:1073B400204603B0BDE8F0830424EFE70724F7E791
:1073C4000824F5E73C2900200010014000E100E01A
:1073D400064A92783AB130B1426922B1002202746D
:1073E4000221FFF779BD0820704700BF3C29002027
:1073F400014BD3F80405704700100140401A20F0F7
:107404007F40704770B5EFF3108672B60C4A9468EB
:1074140001239CB993600B4B0B4DD3F8801029408A
:107424001160C3F88050D3F8841051604FF0FF32DC
:10743400C3F88420047006B962B670BD0370FAE71D
:10744400602A002000E100E0FC06FFBD084B9A68BA
:1074540010B55AB150B9EFF3108172B6054A1C68E1
:1074640014605C685460986001B962B610BD00BFD6
:10747400602A002000E100E010B561B1B2FBF3F432
:1074840003FB1424A4B244B9C0E9001484608281CB
:10749400C381204610BD0E20FCE70920FAE782B024
:1074A40050E8022FC188B2EB324F4FF0000317BFF0
:1074B40092B241EA014142EA014104E04268B2EB7E
:1074C400324F08BF012340E80212002AE8D18DF8A8
:1074D40007309DF80730002B0CBF1120002002B0AC
:1074E400704737B550E8013F9DB2C489254484896B
:1074F400A54228BF2D1B0489A54202BFBFF32F8FCD
:10750400002207E0C5EA030540E80154002CE9D154
:107514004FF001028DF803200193019B9DF8032095
:107524000B6002F0FF0322B10B880068184403B01B
:1075340030BD1846FBE70A884B889A4209D150E8C7
:10754400012FC2EA024240E80123002BF7D10120B7
:1075540070470020704737B550E8023F1FFAA3F583
:10756400C488A54202BFBFF32F8F00220DE0C48957
:1075740025448489A54228BF2D1BC3EA054540E85C
:107584000254002CE8D14FF001028DF8032001933E
:10759400019B9DF803200B6002F0FF0322B14B888E
:1075A4000068184403B030BD1846FBE70A884B88CE
:1075B4009A4209D150E8022FC2EA224240E802234B
:1075C400002BF7D1012070470020704701F01F0203
:1075D4004B090121914000EB830000F063B84B0993
:1075E40010B501F01F040121A14000EB830000F05D
:1075F4004EF8E04000F0010010BD01F01F0301222D
:107604009A404B0900EB8300D14300F061B84B0969
:1076140001F01F0150F82300C84000F0010070473A
:107624002DE9F0474E1E760980460F4601360025A7
:1076340058F8254008EB850AE44394FAA4F4B4FA14
:1076440084F44FEA4519202C06D10135AE42EFD817
:107654003C462046BDE8F0874C44A742F5D9214674
:107664004046FFF7BCFF0028F3D0DAF80040E443BB
:1076740094FAA4F4B4FA84F4E5E750E8002F0B4636
:1076840040E8003C9CF0000FF7D11046704750E8EA
:10769400002F42EA010340E8003C9CF0000FF6D1C1
:1076A4001046704750E8003F43EA010240E8002CCE
:1076B4009CF0000FF6D11046704750E8002F02EA04
:1076C400010340E8003C9CF0000FF6D110467047DF
:1076D40050E8003F03EA010240E8002C9CF0000F50
:1076E400F6D11046704750E8002F02EB010340E842
:1076F400003C9CF0000FF6D11046704750E8003F64
:1077040003EB010240E8002C9CF0000FF6D1104678
:10771400704750E8003FA3EB010240E8002C9CF0C6
:10772400000FF6D1104670470121FFF7B0BF0121C9
:10773400FFF7B8BF0021FFF7C0BF10B590B1D0E983
:10774400012301689B1ADBB20A60013BDBB2FF2B09
:10775400026802D10020107110BD11684C1C146025
:107764000B70F2E70E20F7E737B5054602A80024B0
:1077740000F8014DFFF746FE2A686B6811689942CC
:107784000ED9481E106011F8014CEB68298A01FBE0
:107794000434AB6811791B1ADBB2994238BF1371F8
:1077A4009DF80700FFF752FE204603B030BD37B501
:1077B400054602A8002300F8013D0C46FFF722FE0F
:1077C4002A681368591C1160E968641A298AB4FB91
:1077D400F1F41C709DF80700FFF738FE03B030BDCC
:1077E400826810B504462AB1436901680069984764
:1077F4000023A36010BD0EB403B5039929B102AAF6
:1078040004AB42F8043D00F073F802B05DF804EBF9
:1078140003B070470A2938B504460D4602D10D213C
:10782400FFF7F8FFA3682268591CA160D554D4E976
:1078340001329A4204D32046BDE83840FFF7D0BF56
:1078440038BD00002DE9F84F9946DDE90A43174693
:10785400824688460A460126BA420FD24E4538BFB0
:107864004E4613F0010B01D164B900240125B9F18E
:10787400010F1AD909F1FF397D43F8E7B2FBF7F29A
:107884000136E9E79B070ED5B9F1000F0CBF30258F
:107894002025A642EAD2013C29465046FFF7BAFF0A
:1078A400002CF6D1E1E72025F3E7B8FBF5F39F427E
:1078B400E2D9DFF83890B8FBF5F3504619F8031015
:1078C40005FB1388FFF7A6FFB5FBF7F5002DF2D1F2
:1078D400BBF1000F02D00CB1A64201D3BDE8F88F72
:1078E40020215046013CFFF795FFF4E7B612030050
:1078F4002DE9F74F054690460E46002900F03A81DF
:1079040016F8011B002958D0252940F0D180002702
:1079140002E047F001071646324612F8013B2D2BD0
:10792400F7D0302B04D02B2B05D147F00407F2E716
:1079340047F00207EFE700242A2B06F101021BD1CE
:10794400D8F80030191D1B68C8F800101C441646EE
:1079540033782E2B1CD101364FF0000A314611F832
:10796400012BA2F13000092814D80A2303FB0A23AF
:10797400A3F1300A0E46F1E712F8013CA3F13001FD
:107984000929E5D80A2101FB0434303C1646D3E723
:107994004FF0000A324612F8011B01F0FB00682880
:1079A4001646F8D0692916D054D8582970D00ED864
:1079B40025297DD03378002BA2D12B7B002B00F01E
:1079C400D980284603B0BDE8F04FFFF709BF63290B
:1079D40068D06429EED1D8F80020D2F80090111DA7
:1079E40089EAE972C8F80010A2EBE9724FF0010BC2
:1079F400092A61DCD34538BFD3462CB1B9F1000F55
:107A040001DB790700D5013CBA0702D5BAF1000FB2
:107A140004D0FB0702D4002C54D10024B9F1000F88
:107A240058DAC9F100092D212846FFF7F3FE07F0C3
:107A34000302022A05D1BAF1000F02D1002C4DD164
:107A44000024CDE9004753460A2249462846FFF759
:107A5400F9FEAFE7732954D016D87029AAD1D8F803
:107A640000301A1DC8F80020302128461C68FFF792
:107A7400D1FE78212846FFF7CDFE00220823CDE968
:107A8400003221461022E1E775292FD0782991D1BF
:107A9400D8F800100A1DC8F80020CDE90047534665
:107AA40010222CE0D8F800301A1D1978C8F80020EC
:107AB4002846FFF7AFFE7DE70A230BF1010B92FB8B
:107AC400F3F295E7A345A9D220212846013CFFF70C
:107AD400A1FEA0E77807AAD52B21A5E7A345B0D23C
:107AE40030212846013CFFF795FEA7E7D8F800109F
:107AF400CDE900470A1DC8F8002053460A22096848
:107B0400A4E7D8F800301A1DC8F80020F907D3F804
:107B1400009012D54F46A7EB090B17F8011B41B98A
:107B2400A345BFF447AF20212846013CFFF772FE6E
:107B3400F6E72846FFF76EFEEDE7B9F1000F17D020
:107B4400484609F0FAF90746BC4200D954B909F18C
:107B5400FF3919F8011F00293FF42CAF2846FFF71D
:107B640059FEF6E720212846013CFFF753FEEBE7D8
:107B74004F46E9E703B0BDE8F08F2DE9F047B0F8D0
:107B840006904479D2F800A09DF8208009FB04F403
:107B9400043C06460AEB0300A0420F4688BFA4EB50
:107BA400030A191DC2F800A0B1FBF9F509FB151170
:107BB4004DB9A9EB0104544528BF5446BAF1000F4E
:107BC40004D1BDE8F0873668013DF1E704317B1943
:107BD40070182246B8F1000F0ED001461846AAEBE1
:107BE400040A09F02CF9D145254436684C464FF077
:107BF400000128BF5446E1E71946F0E7FFF79DBDB1
:107C0400F8B546790146721E0546002393422D6855
:107C140003D30024A64202D8F8BD0133F6E70F6867
:107C24002846FFF7C4FD01343946F3E72DE9F8434C
:107C3400068ACD1C0746FFF797FD043E35440446EB
:107C4400B5FBF6F5F0B14FF48073EDB28380C680D6
:107C5400013D076081464FF00008A84512D238461E
:107C6400FFF782FD064648B163790133637108F179
:107C74000108C9F8000007608146EEE72046FFF7D7
:107C8400BFFF34462046BDE8F88301210430FFF7E6
:107C940035BD10B5012104460430FFF73AFD10F05C
:107CA400FF0F04D12046BDE81040FFF7A9BF10BD67
:107CB4001FB504AC44F8042D002200922246FFF7BD
:107CC4005CFF04B010BD1FB504AC44F8042D0122C0
:107CD40000922246FFF751FF04B010BD41DF704708
:107CE400064B10B500241C70054B1C60BFF35F8F5E
:107CF4000449054800F039F8204610BD742A0020D4
:107D0400782A0020C81203006C2A002007B502A8B4
:107D1400002300F8013DFFF775FBF1EE103A23F064
:107D24009F03E1EE103ABFF35F8F0A4B4022C3F882
:107D340084219DF80700FFF789FB08F01FFE20B19E
:107D4400FFF7CCFF03B05DF804FB20BF40BF20BFAA
:107D5400F8E700BF00E100E0836800225A609A60FF
:107D6400C3E90422DA601A6070470B684A6843600A
:107D7400934208BF0023016008BF43607047436813
:107D840043B10268916852680B449342436004BF54
:107D940000234360704700000D4930B5A1F594728B
:107DA4000225914201D800200EE08B1ADB1093FBD0
:107DB400F5F302EBC30452F83330834205D802D200
:107DC40004F10802EDE7606830BD2146E9E700BF31
:107DD4001814030008B5FFF7DFFF024B002808BFA3
:107DE400184608BDDD12030070B5064E0546002492
:107DF40056F824300BB1284698470134042CF7D1A7
:107E040070BD00BF882A0020033080B240F2FD33E9
:107E1400984230B51FD8124B1A783AB91C895D893B
:107E24002C440444A4B2B4F5806F0AD31A7DA2B9D9
:107E34009A8BDC8B2244024492B2B2F5806F0CD24E
:107E440001220A801446142202FB04335A89104486
:107E54005881002030BD0920FCE70720FAE700BF65
:107E6400BC2A00200B4A0C4B5188142000FB013122
:107E7400CB6833B90420496810700122074800F028
:107E84004FBF05230649137002238B800122002370
:107E94000968F3E7A02A0020BC2A0020B8220020A9
:107EA400842B002007B5002305490093054A09687F
:107EB4000548082300F09EFE03B05DF804FB00BFF4
:107EC400842B0020E0170300B822002007B500230C
:107ED400009301460823034A034800F08BFE03B0D5
:107EE4005DF804FBD8170300B822002013B5002363
:107EF4000C46009301460423074A084800F07AFE22
:107F040038B9074B142202FB04340123237402B052
:107F140010BD0E20FBE700BFD4170300B8220020D9
:107F2400BC2A002037B50A480A4B42689C88196865
:107F340053880325033305709BB2002000909B00F7
:107F440001EB8401044800F055FE03B030BD00BFCE
:107F5400A02A0020842B0020B822002010B501465E
:107F64000448FFF7BEFA1C220446002108F090FFE3
:107F7400204610BD702B00204388033300EB83039D
:107F8400994209D382884FF6FF739A4206D000883B
:107F9400B0FA80F040097047022070470120704712
:107FA4002DE9F8430223DFF860800B800D46174665
:107FB40000F5805600F108044FF00109B4420FD2D5
:107FC400236801330CD031462046FFF7D5FF48B172
:107FD4000FB187F8009002280BD14FF480632B80F7
:107FE400BDE8F883A368D8F80020934201D9C8F803
:107FF40000302B886288033313442B806388033357
:1080040004EB8304DAE700BFB42A0020144A1423E3
:1080140003FB002070B50B6844680D4604F58056D8
:108024009BB15C88033403EB8404B4420BD2236811
:10803400013308D031462046FFF79EFF012809D0BE
:1080440005D30228F1D1002003E00834EDE72C60C9
:10805400012070BD6388033304EB8304E5E700BFAC
:10806400BC2A0020436873B505460C466BB3254A09
:10807400D1688B4229D31269934226D813F00302A4
:1080840023D121490089098988421ED12868996829
:1080940088421AD11D494868834203D900F58050AB
:1080A40083420ED38A6993420DD902F580529342DA
:1080B40009D2012323800020B0FA80F0400902B0E5
:1080C40070BD1346F6E70A20F6E7002323801E4618
:1080D4002388012B01D90020F1E7019601A920880A
:1080E400FFF794FF18B9238801332380F0E7019B3D
:1080F4002A6899689142F1D16B60034B1B892B81EB
:10810400DDE700BFB8220020A02A0020BC2A0020FE
:108114002DE9F8431C461E4B1B7806460F461546B0
:10812400002B30D0002A30D07CB3DFF86C804FF0C5
:108134001409A388012B01D90A201AE009FB03F3CF
:1081440018F80330BBB1A3880133A380F1E7236897
:108154001EB19988328891420DD11FB119883A888D
:10816400914208D19A68C5E900230A4B1B892B81E7
:108174000020BDE8F8832146A088FFF747FF0028C8
:10818400E5D12060DFE70220F3E70520F1E700BF37
:10819400982A0020A02A0020BC2A002008B5074BFA
:1081A400191D5888FFF732FF18B1BDE80840FFF7E2
:1081B400B9BEBDE80840FFF755BE00BFA02A0020A5
:1081C4002DE9F04FA04FDFF8A49289B00646B846D7
:1081D4003B6823B949469D48FFF7BDF93860D8F894
:1081E400005029784B1E052B00F21281DFE813F0B2
:1081F400060076007600060106015D0126B1944B67
:1082040000225A60012424E02B79032B1DD8DFE8D7
:1082140003F01502424D8F490B78022B084631D0EA
:108224000B7D022B4FF001032ED114225343C218AD
:108234000020C8545068FFF749FE03E001232B7166
:10824400FFF730FE002800F0D380814B00225A60F3
:108254000E241422002103A808F01AFE41F61D532F
:108264009C4208BF0024D8F8003004941A78023ADB
:10827400042A00F2D381DFE812F0B401C001E30163
:10828400EB01F2010023D0E7714A1370002353601D
:1082940041F61D54DDE770497048002302222B711A
:1082A4008A800122096800F03BFDCBE76A4C002676
:1082B4002E712068674DFFF709FE694BD4F800C0A2
:1082C4005A8814235343EA18EE5451682160A18854
:1082D400C2F804C011810222A280B3E7B5F814A049
:1082E400AA7DDFF870B1AEB1022AEB8806D9142159
:1082F40001FB0AB1DA1C088902440A81142202FB38
:108304000ABAC3F57F43BAF80A20FD331344AAF826
:108314000A3077E7142303FB0AB318895C6804EB7B
:108324008004062A05D8DFE802F0264C34421C58A3
:1083340066000F24AA7DEB88022A06D9142101FBCA
:108344000AB1DA1C088902440A81142202FB0ABA1F
:10835400C3F57F43BAF80A20FD331344AAF80A3060
:1083640077E74048404900234360AB690360FFF767
:1083740079FE00285AD00223AB750023009304230E
:10838400EA182146354800F035FC002830D00E2488
:10839400D0E72B69002B0CBF01230323AB7500230B
:1083A400009305F10C02042304F10801EAE7012318
:1083B400AB750022EB8800929B002A6904F10C0142
:1083C400E0E7032914BF06230523AB7500230093BC
:1083D400042305F10802E118D4E70623AB75224B08
:1083E4001988204B5868FFF781FD04460028A1D165
:1083F40009B0BDE8F08F41F61D549BE7002E7FF4D1
:1084040001AF2B79012B33D004D3022B3FF440AFBF
:108414000F241EE702232B710DF10A01EB6803936D
:1084240003A8CDE90466FFF71DFE08B90A2410E786
:108434000498BDF80A108388EB8003882B81FFF72A
:1084440055FD044627E000BFB82A0020702B002009
:10845400982A0020BC2A0020842B0020B822002067
:10846400A02A00207C2A0020902B0020B02A002083
:10847400DFF808A203AA53463146A81DFFF748FEB9
:10848400044660B9BAF804100498FFF72FFD0446B7
:108494000A2C3FF4FDAE002C7FF4DBAEA8E70822E3
:1084A4003146504608F0F4FCF2E7002E7FF4AAAE01
:1084B4006D4B1A7BB2B11E731A78013A062AA7D8FB
:1084C40001A151F822F000BF7385020099850200D2
:1084D400B7850200BD85020015840200C385020031
:1084E400D98502001A78072AE6D801A151F822F0AA
:1084F40015850200BD840200BD8402003B85020094
:108504004F8502006F8502006F85020037850200E7
:108514001A89564901321A8100225A801A730A783C
:10852400B2FA82F252099A720A7DB2FA82F25209BE
:10853400DA72012207E04E4958688A88408803327B
:1085440002448A8002221A70B6E7484C5A88484985
:10855400142505FB0242086854685060888810811D
:1085640002228A800C600622EDE70722EBE79A7A62
:1085740032B9DA7A8AB900221A705A805A6087E6C8
:108584003A4900229A72CA68002AF2D1097C002969
:10859400EFD05A80FFF702FE53E70022DA72334A23
:1085A400116A0029E7D192F82420002AE3D001229D
:1085B400EFE7FFF7B7FC44E7FFF754FC41E7062277
:1085C4001A702A4A5B88142101FB03235868FFF7B9
:1085D4007DFC36E707221A7000225A60FFF762FC1E
:1085E4002FE701228DF80C201A89ADF818209A88FB
:1085F400DB68ADF81A20059310E002228DF80C20F8
:108604001A89ADF818209A88ADF81A20DA689B7D8B
:1086140005929A1F534253418DF81C3003A8FFF76B
:10862400E3FB002649461348C8F80060FEF7BEFF86
:1086340001211148FFF76DF800287FF4C9ADD7E692
:1086440003228DF80C20DA88ADF818201A89CFE7B8
:108654000422DB888DF80C20ADF81830DEE7052302
:108664008DF80C30DAE700BFA02A0020BC2A0020D5
:10867400842B0020702B0020802B0020942B0020C2
:108684004068FFF79DBD000008B501210448FFF7CD
:108694002AF818B9BDE80840FFF792BD08BD00BF2D
:1086A400802B00202DE9F3419846354B1B78064674
:1086B4000D46002B5BD000295BD009884FF6FF7371
:1086C400994258D06B88002B55D06B689B0754D1C6
:1086D4004AB92F890DF102013846FFF795FB30B1F5
:1086E40002B0BDE8F08113885788ADF8023001A8C4
:1086F400FFF734FC044658B9BDF80230214A14216E
:1087040001FB032358890338C01B58810820E7E77D
:1087140000238375BDF8023083826B68036180F89F
:10872400008001211848FEF7E9FF2B882381B8F166
:10873400030F6B88A38004BF0423A3754FF00005C7
:1087440008BF3368E06008BFA361E780658101A9C1
:108754000E48FEF7F0FE36B1E36833600C4B7560EB
:108764001B89B5723381FFF78FFF0020B8E7022021
:10877400B6E70520B4E70420B2E70320B0E700BF62
:10878400982A0020BC2A0020B42A0020702B002044
:10879400A02A002008B5084B1A68042A09D01968D1
:1087A400064A42F8210001211846FEF7A7FF0020DF
:1087B40008BD0C20FCE700BF8C2B0020882A002079
:1087C4002DE9F04F89B01422002103A808F060FBC2
:1087D4007D4A137803F0FF01009190463BB103A852
:1087E400FFF702FB0026304609B0BDE8F08F101DEC
:1087F400FEF79AFF05460028F4D140F6F8734FF0CF
:1088040080521B68DFF8ECA15C1C04BF6F4B1B6833
:1088140011695269581C08BF02FB01F3CAF81030F1
:108824000022A3F540536A49CAF80C30504600F0C0
:10883400ADF906460028D6D11C238C22654966482A
:10884400FEF71AFE3746B3464FF003093446CDF817
:1088540004A0019BD9680BEB010002465BF80110F0
:10886400002835D05D4B994232D141685C4B994226
:1088740015D0013399422BD1009BDFF870A1002B56
:1088840059D100225749CAF80000FFF789FBBAF80A
:108894000420022A14BF0822042217433AE0524952
:1088A4004FF0140C0CFB04FC01EB0C024FF0000E17
:1088B40001F80CE050600CF110020CF1080C0A44B1
:1088C4006144FFF76DFB47F002070134A4B221E0D5
:1088D40000F5805C1168013167D104329445F9D107
:1088E400424A116829B90221012310609180009342
:1088F4000EE0142262433C4B4FF0020E991803F829
:1089040002E03B4A486054800134A1F808E0A4B274
:1089140047F001070BF5805BBBF5405F99D1B9F1D6
:10892400010F88BF3D46EDB2022D02D0062D12D0B4
:10893400DDB90B2657E72C4B1422624399184FF0EC
:10894400020C03F802C00134DAF800204A60A1F8EE
:1089540008C0A4B295E7012388F8003003A80023D7
:10896400C8F80430FFF740FA3DE702A8FFF7F6FA2B
:10897400C8B10123013D03700A2D09D8DFE805F0D1
:1089840006080608070807080F110F0000230371E3
:1089940002A91148FEF7CFFDFFF776FE23E7032374
:1089A400F5E70223F3E708261DE70F491422624383
:1089B40001EB020C09F1FF39CCF8040003201FFA83
:1089C40089F9885481E700BF982A00201410001008
:1089D400C4190300E42A0020702B0020DEC0ADDEA1
:1089E400FE011EF1882B0020BC2A0020842B0020CD
:1089F400A02A0020B822002073B50D460446C8B151
:108A0400C1B10DF10601FFF72DFBA8B10B4BBDF869
:108A140006006668142202FB003001210C30FEF7C8
:108A24006DFE63682E600C336B600123A37200201B
:108A340002B070BD0520FBE70A20F9E7BC2A00203C
:108A440013B50446A8B10DF10601FFF70BFB90B175
:108A54000B4ABDF80630142101FB0323DA6862B126
:108A6400A27A52B1DA680020013ADA60A07202B048
:108A740010BD0520FBE70A20F9E70620F7E700BF51
:108A8400BC2A002002230022FFF70CBE18B10323E6
:108A94000022FFF707BE052070470000104B1B782B
:108AA40013B50446ABB14FF6FF73984213D001A837
:108AB400FFF754FA88B10523037001230371C480BE
:108AC40001A90848FEF737FDFFF7DEFD002002B0DC
:108AD40010BD0220FBE70420F9E70820F7E700BFF8
:108AE400982A0020702B00200E4B1B7807B5A3B1E9
:108AF40001A8FFF733FA90B10623037001A90A48CD
:108B0400FEF719FD094B1A780AB101221A73FFF70F
:108B1400BBFD002003B05DF804FB0220FAE7082047
:108B2400F8E700BF982A0020702B0020A02A00201C
:108B340007B5ADF8060002A820F8041D01460DF1A2
:108B44000600FFF7E5FA03B05DF804FB13B502ACC9
:108B5400134624F8020D0A4600202146FFF7D8FAEE
:108B640002B010BD13B502AC134624F8020D0A4638
:108B740020460021FFF7CCFA02B010BD20B119B194
:108B840003680B60002070470520704707B50B464B
:108B940088B9124B1248134AC01A0E23C008009316
:108BA400114B0004114940F00100FDF7CFFF0E20E6
:108BB40003B05DF804FB4BB9084B09480C4AC01AD2
:108BC400C0080E2300930004074BEBE703601B6807
:108BD400114603B05DF804EB184700BF44100300CE
:108BE4009410030095180300E81703009A18030073
:108BF400111903002DE9F34188B93D4B3D483E4A24
:108C0400C01AC0080E243D4B009400043C4940F0B7
:108C14000100FDF79BFF204602B0BDE8F0814AB990
:108C2400334B3448374AC01AC0080E240004009459
:108C3400324BEBE7D0F800C0BCF1000F09D12C4B4C
:108C44002C48314AC01AC0080824000400942B4B55
:108C5400DCE74BB9264B27482C4AC01AC008092424
:108C640000040094254BD1E74768D7F80480B3FB90
:108C7400F8F708FB17374FB11D4B1E48244AC01A9A
:108C8400C0080924000400941C4BBFE78F0709D0D7
:108C9400174B18481F4AC01AC00810240004009437
:108CA400164BB3E712F0030F09D0114B11481A4ABF
:108CB400C01AC008102400040094104BA6E7C7682B
:108CC400B9420BD34C1E05691C44AC4206D8DCF8EF
:108CD4000C40A44602B0BDE8F0416047044B05488F
:108CE4000E4AC01AC008102400040094034B8DE7F8
:108CF400441003009410030095180300FA170300AE
:108D04009A180300171903000B190300CA1803006B
:108D14001D190300471903005F190300821903009A
:108D2400F7B580B92A4B2B482B4AC01AC0080E2429
:108D34002A4B009400042A4940F00100FDF706FF85
:108D4400204603B0F0BDD0F800C0BCF1000F09D13B
:108D54001F4B2048234AC01AC0080824000400946A
:108D64001E4BE8E74AB91A4B1A481F4AC01AC008F2
:108D7400092400040094194BDDE74768D7F800E0A4
:108D84000EF1FF370F4209D0114B1248174AC01A8F
:108D9400C008102400040094104BCCE7C768B94203
:108DA4000CD34C1E05690EFB0244AC4206D8DCF819
:108DB4001040A44603B0BDE8F0406047044B0548AA
:108DC4000B4AC01AC008102400040094034BB2E7F5
:108DD4004410030094100300951803000D180300B9
:108DE4009A1803000B190300CA1803002018030083
:108DF4004618030029DF704728DF704770B5036801
:108E04009D6886B004460E466DB114220021684662
:108E140008F03EF8A3680593237901962BB1012B42
:108E24000DD06846A84706B070BD01238DF8003008
:108E340023690293E368039363690493F1E70223CC
:108E44008DF80030E3681B030293F5E7084670478A
:108E540000207047024B187A003018BF0120704779
:108E6400382C0020034B187A0122B0FA80F05A748F
:108E740040097047382C002008B510461A4607F000
:108E8400DEFF002008BD000008B5142200210448BC
:108E940007F0FEFF0348FEF702FB002008BD00BFF9
:108EA400382C0020282C002010B5094C094B4360B5
:108EB4002046FEF739FC40B907F060FD1C232074FE
:108EC4008C2205490548FEF7D7FA002010BD00BFE3
:108ED400382C0020B81903009C2B0020282C0020DB
:108EE40070B5244D244E2B7A2C463BB92349244893
:108EF400FEF731FB306008B9686070BD022323724D
:108F040033681A7972B1012A24D018460321FFF775
:108F140075FF00232372636018491948BDE8704047
:108F2400FEF744BBD3E90520121AB2F5805F28BFCF
:108F34004FF48052D3E903159208012A014438BF43
:108F440001222844FFF756FF50B11128DDD1012337
:108F54002372D2E7D3E903021044FFF74DFFF3E78E
:108F6400237C002BC9D10146BDE87040022000F0EB
:108F740009B800BF382C0020502C00204C2C0020B5
:108F8400282C002038B5831E012B45D8234C237A86
:108F9400002B41D0022B09D1032830D0204B1B6871
:108FA4000022E2601A793AB1012A22D0637C7BBBA9
:108FB400BDE83840FFF794BFD3E905128D1AB5F523
:108FC400805F94BF521902F580529A619142EDD1AB
:108FD40002284FF0000308BF19462372104B18BF34
:108FE4000D211868FFF70AFF0E490F48FEF7DEFA55
:108FF400DCE71A6901321A615B699A42E7E7E368C0
:109004000133082B01D8E360D0E70023E360DFE7F6
:10901400BDE8384007F0A2BC38BD00BF382C0020A2
:10902400502C00204C2C0020282C002000F0FD03A4
:10903400012B08D1044B00225A74421E5042504165
:109044001874FFF74DBF7047382C002010B5064C3C
:10905400201DFEF769FB28B9637C1BB9BDE81040ED
:10906400FFF73EBF10BD00BF382C00202DE9F341AF
:1090740080460D460F4801A916461F46FEF731FAF1
:109084000446A8B11C22002107F002FF2D0B012386
:10909400237101A9C4F80080A760E56066610548F2
:1090A400FEF749FAFFF7D2FF002002B0BDE8F081D5
:1090B4000420FAE7282C00202DE9F743814688464E
:1090C400104801A917461E46FEF70BFA0446B0B134
:1090D4001C22002107F0DCFE00250A9BA36001A9E5
:1090E4002571C4F80090C4E9037866610548FEF769
:1090F40022FAFFF7ABFF284603B0BDE8F083042053
:10910400FAE700BF282C00200C4B1B78062B10D14B
:109114000B4B1B681A070CD10A4B186800F0F003BC
:10912400302B08D000F0E000A0F140035842584131
:109134007047002070470120704700BFE00F00F027
:10914400E40F00F0E80F00F0094B1B78062B0CD15C
:10915400084B1B681A0708D1074B186800F0F00089
:10916400A0F130035842584170470020704700BFB7
:10917400E00F00F0E40F00F0E80F00F008B5FFF78F
:10918400C3FF28B17D4B7E4A1B68C3F304231360DD
:10919400FFF7DAFF10B17B4B7B4A1A60FFF7B4FF8D
:1091A40028B17A4B7A4A1B68C3F342331360FFF742
:1091B400CBFF20B1774AD36823F08073D360FFF7E5
:1091C400A3FF40B14FF080430022C3F80C21C3F841
:1091D4001021C3F83825FFF7B7FF10B16E4B0322F7
:1091E4001A60FFF7B1FF40B16C4B05221A600122EF
:1091F4009A6700229A603F225A60694B1B78062BBB
:1092040050D1684B1B6819074CD1674B1B6803F09E
:10921400F003502B46D14FF08052644BD2F8041423
:10922400C3F82015D2F80814C3F82415D2F80C1486
:10923400C3F82815D2F81014C3F82C15D2F8141456
:10924400C3F83015D2F81814C3F83415D2F81C1426
:10925400C3F84015D2F82014C3F84415D2F82414E6
:10926400C3F84815D2F82814C3F84C15D2F82C14B6
:10927400C3F85015D2F83014C3F85415D2F8341486
:10928400C3F86015D2F83814C3F86415D2F83C1446
:10929400C3F86815D2F84014C3F86C15D2F8442406
:1092A400C3F87025FFF730FF28B1414B414A1B68D2
:1092B40003F04F031360FFF727FF48B14FF08043DB
:1092C400D3F80024D20744BF6FF00102C3F800248E
:1092D400394B1B68062B08D1384B1B68062B01BF82
:1092E400374A136843F480631360364AD2F88830EF
:1092F40043F47003C2F88830BFF34F8FBFF36F8F0E
:109304004FF01023D3F80022002A03DBD3F80432F1
:10931400002B2FDA2C4B0122C3F80425D3F80024A8
:10932400002AFBD04FF010221521C2F80012D3F806
:109334000024002AFBD04FF010231522C3F8042286
:10934400214B1A46D3F800140029FBD00021C3F89E
:109354000415D2F80034002BFBD0BFF34F8F19490A
:109364001A4BCA6802F4E0621343CB60BFF34F8F19
:1093740000BFFDE7164B174A1A6008BD240300100E
:109384004035014074C007400DF0ADBA44020010EE
:109394003C050040F0ED00E0A00500401056004000
:1093A400E00F00F0E40F00F0E80F00F000C0004010
:1093B40058020010E40E0040300100103401001087
:1093C4003C17004000ED00E000E001400400FA0515
:1093D400F02200200090D00338B5084C04F10803B3
:1093E4000546002818BF1C4623682BB11A68226062
:1093F4005B6828469847F7E738BD00BF5C2C00201F
:1094040020B9054B01225A70FFF7E6BF012802D1AB
:10941400014A9070F8E77047542C002020B9034BA0
:1094240001225A70FFF7D8BF704700BF542C0020A8
:1094340038B50B4C237883B90A486360A360236171
:10944400E36000F0C7F8054607F098FA08B900F0A1
:10945400CFF801232370284638BD8525FBE700BFDC
:10946400542C00200594020037B502A80023094CAF
:1094740000F8013DFDF7C6FFE368013BE360E568E2
:1094840015B900F0C7F8A5709DF80700FDF7DEFFD9
:1094940003B030BD542C0020012813B509D003D3E8
:1094A40003281BD002B010BD0F4B0122C3F880204B
:1094B400F8E702A800230D4C00F8013DFDF7A2FFD8
:1094C40023780BB9FFF7B4FFE3689DF80700013375
:1094D400E3600123A370FDF7B9FFE3E700F088F828
:1094E400FFF7C2FFDEE700BF00E100E0542C0020DC
:1094F4001FB503788DF800304368019383688DF8B5
:109504000830C3680393054A054B684653F8213075
:1095140052F82110984705B05DF804FB682C002030
:109524006C2C00201FB503788DF80030436801933C
:1095340083688DF80830C3680393054A054B684671
:1095440053F8213052F82110984705B05DF804FB18
:10955400682C00206C2C0020F0B5194B067891F88B
:109564001DE043F82620174B94460A6943F8262049
:10957400154B03F806E00C4607460FCC89B06D4640
:109584000FC594E80F0085E80F000496BEF1000FA4
:109594000AD0BCF1000F0D4A694608BF0022381DED
:1095A40000F052FC09B0F0BDBCF1000F084A694656
:1095B40008BF002207F10C0000F052FAF2E700BFE6
:1095C4006C2C0020682C0020702C0020F5940200E4
:1095D40029950200054A13792BB9012110601171F4
:1095E4005371184670478520704700BF742C0020C3
:1095F400074B1A68D2075FBFC02283F800230122F9
:109604001A604FF080430122C3F81825704700BF49
:1096140000E100E0044B01221A604FF08042D2F8CE
:109624001834DB03FBD470470C000040154B07B51E
:109634001A687AB100221A601B680093009B4FF0ED
:1096440080430122C3F808230F4B587910B95A718B
:109654001B6898470D4B1A6882B100221A601B6878
:109664000193019B4FF080430222C3F80823064B69
:109674001B68012003B05DF804EB184703B05DF8E4
:1096840004FB00BF00010040742C002004010040D2
:1096940000F1804000F5C040002382B003600368FD
:1096A4000193019B02B07047800000F1A040D0F804
:1096B400003723F44033C0F80037D0F8003743EACA
:1096C4000141C0F8001770472DE9FF470024584AAC
:1096D400584E594D019401211368A2F5C040012B45
:1096E40080B206D1D6F804330B4202D0FFF7D0FF84
:1096F4000C430432AA424FEA4101EDD14F4B1B689F
:10970400012B0AD14FF4BE70FFF7C2FF4FF0A04304
:1097140044F00044D3F81035019314F0FF0F1AD02D
:10972400474F00250126344210D0AB0003F180439B
:1097340003F5C043D3F81005D3F8101557F82530B6
:10974400C0F30420C1F3014103B198470135082D4A
:109754004FEA4606E7D1002C66DA00224FF0FF33C9
:10976400CDE90223DFF8D8900127002634464FF0D4
:10977400A04809EB060393F95020531C45D0D2B2FC
:1097840022F0C005E90804A8084402F0070310F811
:1097940004CC07FA03F31CEA030F36D009EB050CDB
:1097A40092099CF930C059F82CA0BAF1000F0AD1E3
:1097B400032A2AD10DF1080E1EF801C04CEA030C4D
:1097C4000EF801C001E0032AF4D005F5E07110F8A9
:1097D4000C0C58F821101842C1F3014105D002299C
:1097E40013D1032A0BD1114604E003290DD1032A16
:1097F40005D102212846FFF757FF0134E4B2BAF13C
:10980400000F02D011462846D0470136042EB0D1AD
:1098140054B14FF0A043019AD3F81035934203D0CA
:109824000193029B0393A0E704B0BDE8F08700BF57
:109834000061004000600040206100407C61004005
:109844007C2C0020014B1B68184700BFD82C00203B
:109854000D4B984237B50D4610D102A8002300F8ED
:10986400013DFDF7CFFD094B1C7914B901221D60A0
:109874001A719DF80700FDF7E9FD14B9002003B043
:1098840030BD1120FBE700BF00200040D82C002091
:10989400034B984201BF034B00221A601A717047B0
:1098A40000200040D82C00200023435082B04358AD
:1098B4000193019B02B070470A4610B54FF48E71B4
:1098C400FFF7F2FF136A9168C95C136A01331362EC
:1098D400C0F81C1510BD8B690A4610B54FF484718D
:1098E40023B9FFF7E1FFD0F8183510BDFFF7DCFF0F
:1098F400536AD168D0F81805C854536A01335362C7
:10990400F3E700001FB501238DF80030044BCDE9C7
:109914000110D3E900126846904705B05DF804FBD6
:10992400E02C002030B54C4AD2F8043313F4007F05
:1099340085B015464FD0D2F82431002B4BD04FF4CC
:1099440092711046FFF7B0FF4FF40173C2F8083369
:10995400424B93F8291009B9012151603E49022272
:109964008DF80020D1F88024C1F8802403929A69EC
:109974000292DA6801920022C3E906226846D3E91A
:10998400001290473448D0F81C315BB133490A6A5D
:109994004B699A420A464BD291F82830002B47D1A2
:1099A400FFF78AFF2C4AD2F8443193B14FF4A271E5
:1099B4001046FFF779FF294B93F8291009B10121CB
:1099C40011609A692AB100229A61586AD968FFF72E
:1099D40099FF05B030BDD5F804335B07D2D5D5F86F
:1099E4000831002BCED01D4C1B482146FFF773FFD6
:1099F400636AA2699A422346C4D1E269E1684AB122
:109A04002369E3600023606AA261E3616362FFF794
:109A140079FFB7E794F829200AB901226A600E4A4F
:109A24004FF40170C2F8080300229A61586AEEE705
:109A34004FF48E710848FFF737FF51690029B1D000
:109A44000023029191688DF80030019153616846BA
:109A5400D2E900139847A5E700200040E02C00203D
:109A64002DE9F843564F047991462C2202FB0472E7
:109A7400064692F82A200D46002A40F09A80514961
:109A84000068FFF7E5FE8046002840F095802968CD
:109A94003368481C0BD04FF0A04001228A40C0F824
:109AA400082501F5E0724FF0030C40F822C0686805
:109AB400421C1FBF00F5E0724FF0A04C4FF0000EA7
:109AC4004CF822E0AA6995F814C0C3F824256A7DED
:109AD400BCF1010F4CEA0202C3F86C25C3F814056B
:109AE400C3F80C151DD1AA68511C1FBF02F5E07103
:109AF4004FF0A0404FF0000C40F821C0E968481C2A
:109B04000BD04FF0A04C01208840CCF8080501F59B
:109B1400E0704FF0030E4CF820E0C3F80815C3F8CA
:109B240010252C236343FA18C2F804902A69FA50CA
:109B3400B9F1000F2AD04FF48E7130682D7FFFF7F2
:109B4400B3FE30684FF4A271FFF7AEFE32681E4BCD
:109B5400C2F80433120B51B20029A8BF01F16040CE
:109B64004FEA4513BABF194802F00F0500F56140EA
:109B7400DBB2B4BF435580F8003302F01F02012367
:109B840003FA02F24909124B43F8212033680422F4
:109B9400C3F800252C2303FB04730022C3E9062227
:109BA40083F829205A61012283F82A204046BDE81F
:109BB400F8834FF00808F9E74FF01108F6E700BF03
:109BC400E02C0020299902008000020014ED00E03E
:109BD40000E100E0F8B5047900682D4D0023C0F8D9
:109BE40000352C2303FB04535B6873B1294BC0F885
:109BF4000833020B53B201215B0902F01F0201FA80
:109C040002F22033244941F82320D0F80C65D0F81F
:109C14001415D0F80835D0F810254FF0FF37BE42A0
:109C2400C0F8147518BF06F5E076C0F80C75C0F8D6
:109C34000875C0F810751EBF4FF0A0474FF0020C16
:109C440047F826C04E1C1FBF4FF0A04601F5E07137
:109C5400022746F82170511C1FBF4FF0A04102F5A6
:109C6400E072022641F822605A1C1FBF03F5E0731C
:109C74004FF0A042022142F82310FFF709FE2C23E3
:109C840003FB0454002384F82A306360F8BD00BF4A
:109C9400E02C00208402020000E100E02DE9F843FA
:109CA400224F06794FF02C0909FB0674804665693A
:109CB400002D37D16261A16025624FF48E71006876
:109CC40084F82850FFF7F0FDD8F8000001238360E2
:109CD4002146FFF7F1FD6368A1462BBBD8F800507D
:109CE400226A63699A4212D3D8F80030D3F81C214F
:109CF400002AFBD00122DA6000202C2303FB067625
:109D040000237361BDE8F88394F8283043B9D5F88B
:109D14001C31002BF8D049462846FFF7CDFDDFE77C
:109D24000F20EAE71120EDE72846EBE7E02C0020BE
:109D34000023435082B043580193019B02B0704703
:109D44001FB501238DF80030044BCDE90110D3E990
:109D540000126846904705B05DF804FB0C2D002006
:109D64007FB5374AD2F82461002E48D010464FF40C
:109D74009271FFF7DDFF02238DF80030D2F88034B2
:109D8400C2F880340393D2F83C3502932D4BDA6841
:109D940001920022C3E906226846D3E900129047E3
:109DA400274AD2F844317BB14FF4A2711046FFF731
:109DB400BFFF244B996939B10021C3E90611D96861
:109DC400D2F83C05FFF7BCFF1D4AD2F82031A3B1FD
:109DD4004FF490711046FFF7ABFF1A4B596961B10C
:109DE400D2F84C150291002299688DF80020019157
:109DF4005A616846D3E90012904704B070BDD2F8A6
:109E04001031002BCCD04FF488711046FFF790FF2F
:109E14000C4BD2F83C0599698842C1D1DC69D968F8
:109E240064B1D2F8005225F02005C2F800521A6934
:109E34009C61DA60DE61FFF783FFB1E79C61FAE7BA
:109E4400002000400C2D00202DE9F8435A4F0679DC
:109E54009146242202FB0672044692F820200D4605
:109E6400002A40F0A28055490068FFF7F1FC8046C3
:109E7400002840F09D8029682368481C0BD04FF0CF
:109E8400A04001228A40C0F8082501F5E0724FF095
:109E9400030C40F822C06868421C1FBF00F5E07242
:109EA4004FF0A04C4FF0000E4CF822E0AA6995F850
:109EB40014C0C3F824256A7DBCF1010F4CEA0202E8
:109EC400C3F86C25C3F80C15C3F814051DD1AA6892
:109ED400511C1FBF02F5E0714FF0A0404FF0000C81
:109EE40040F821C0E968481C0BD04FF0A04C012079
:109EF4008840CCF8080501F5E0704FF0030E4CF8EB
:109F040020E0C3F80815C3F8102524237343FA1876
:109F1400C2F804902A69FA50B9F1000F34D04FF412
:109F2400887120682D7FFFF703FF4FF4907120683C
:109F3400FFF7FEFE4FF492712068FFF7F9FE2068E8
:109F44004FF4A271FFF7F4FE22681D4BC2F80433EC
:109F5400120B51B20029A8BF01F160404FEA45132A
:109F6400BABF184802F00F0500F56140DBB2B4BF78
:109F7400435580F8003302F01F02012303FA02F272
:109F84004909114B43F8212023680822C3F800250E
:109F9400242303FB06730022C3E906225A6101222B
:109FA40083F820204046BDE8F8834FF00808F9E71D
:109FB4004FF01108F6E700BF0C2D0020659D02004C
:109FC4001003020014ED00E000E100E0F8B50479AC
:109FD40000682D4D0023C0F80035242303FB0453EF
:109FE4005B6873B1294BC0F80833020B53B20121EB
:109FF4005B0902F01F0201FA02F22033244941F8FE
:10A004002320D0F80C65D0F81415D0F80835D0F812
:10A0140010254FF0FF37BE42C0F80C7518BF06F587
:10A02400E076C0F81475C0F80875C0F810751EBF46
:10A034004FF0A0474FF0020C47F826C04E1C1FBF3C
:10A044004FF0A04601F5E071022746F82170511C3B
:10A054001FBF4FF0A04102F5E072022641F82260D2
:10A064005A1C1FBF03F5E0734FF0A042022142F8CF
:10A074002310FFF70DFC242303FB0454002384F86E
:10A0840020306360F8BD00BF0C2D002010030200D7
:10A0940000E100E001F06043B3F1005F2DE9F0411D
:10A0A400074632D11C4B0679242505FB0635984614
:10A0B4006C6964BB6A61A96000684FF49071FFF732
:10A0C40037FE4FF4AC713868FFF732FE3B686A69BB
:10A0D400A968C3F84415C3F8482501229A606A6840
:10A0E400BAB9D3F82011D3F8582149B9002AF8D0C5
:10A0F4000F20242303FB068600237361BDE8F0814F
:10A10400002A14BF0F200020F3E71020F6E71120E7
:10A11400F4E72046F2E700BF0C2D002000F1804058
:10A1240000F5E040002382B0036003680193019BC3
:10A1340002B07047F0B5514B514C1B6885B0DBB190
:10A144004FF4827094F82E20FFF7E8FF12B194F8D0
:10A154002F30A3B1636802932389ADF80C30E36810
:10A1640000218DF80410002B44D12374236801A826
:10A174009847002384F82F3094F82E3003B3414BD2
:10A184001B68EBB14FF48070FFF7C8FF94F82D20E3
:10A19400638B91B28B4238D95B1A21899BB263835A
:10A1A400CB1A616801EB4301374BC3F82C16C3F893
:10A1B40030264FF48270FFF7B1FF344B01221A604E
:10A1C400334B1B685BB14FF48870FFF7A7FF002384
:10A1D40004A82374022300F80C3D236898472D4BF0
:10A1E4001B6813B34FF48A70FFF798FF002323749E
:10A1F40005B0F0BD208B608363602081E160002A9C
:10A20400B4D1214B01221A60B0E7D2D1E368012115
:10A2140084F82F103BB1002161831B49C1F82C360F
:10A22400C1F83026C5E76383C3E766694FF000478A
:10A234000125002EDCD0B6FA86F227FA02F3463264
:10A24400920026EA030602F1804303F5E0431B680B
:10A25400002BEED01046FFF761FFA2F58C72D308F5
:10A2640082F00402C2F380028DF808308DF80450A5
:10A274008DF80920236801A89847DAE704710040A3
:10A28400302D002000710040007000400470004038
:10A29400107100401471004038B51E4B044693F809
:10A2A4002C00A8BB1C4A19602178C2F8F01561780B
:10A2B400C2F8F415E5781874012183F82C1083F89A
:10A2C4002D00586183F82F0083F82E506FF000435F
:10A2D400C2F808334FF48270FFF720FF4FF4807008
:10A2E400FFF71CFF4FF48A70FFF718FFA3780B48A1
:10A2F4005B01DBB280F80733802303600223C2F8DA
:10A3040004330DB1C2F80413C2F80015002038BD9F
:10A314000820FCE7302D00200070004000E100E040
:10A324002A4B1A7C70B502F0FF05002A4BD10A793A
:10A33400012A9CBF264CC4F8005500F10C0503EB20
:10A344004504247924B993F82D40013483F82D4031
:10A3540003EB4503CC790D7A8E781C715D714B78D3
:10A3640036021B0106F4E06603F0300333430E7833
:10A3740006F003063343CE78360306F4805633439F
:10A38400160406F4E02633434E798979360506F43B
:10A3940080160906334301F080710B430C4901EB2D
:10A3A4000016000100F1804000F5E040012AC6F8E3
:10A3B4001835C0F81455C0F8104502D80123C1F867
:10A3C4000035002000E0112070BD00BF302D0020BA
:10A3D40000700040264A274B70B505461220C2F88B
:10A3E40008031C7C022C03D1C2F80403112070BDA5
:10A3F400187C01281DD1D86818B10223C2F804338F
:10A40400F4E7DD60198393F82E3063B91A4A1368B0
:10A41400002BFCD04FF48070FFF780FE144BC3F880
:10A424002C56C3F83016124B0222C3F80423002022
:10A43400DDE7022093F82E40C2F804030126002031
:10A444001E745D601981D8603CB1598393F82D3036
:10A45400C2F82C56C2F83036C9E7C2F82C564FF46D
:10A464008070C2F83016FFF759FE20461660BEE72A
:10A4740000700040302D002000710040084A137C19
:10A48400DBB2012B09D192F82E0018B1054A002045
:10A4940013607047044A136070470820704700BF78
:10A4A400302D00200070004004700040F0B51B4FB8
:10A4B4008BB207EB001443EA0243C4F81C35184B73
:10A4C40040005C6900F1010C4FF0004611F5006F8B
:10A4D40026FA0CF64FF0800505FA00F50BBFB443DD
:10A4E40034435C615C610CBFC7F80853C7F804537C
:10A4F40040244FF000455969844025FA00F040F2A9
:10A50400FF75AA42054A0BBF814301435961596152
:10A514000CBFC2F80843C2F80443F0BD0070004009
:10A52400302D0020124B1A7C10B5FAB900F10C0141
:10A5340003EB4102127922B193F82D20013A83F8FA
:10A544002D2003EB410300241C715C71030103F112
:10A55400804303F5E04340F2FF72C3F81445054914
:10A56400C3F81045FFF7A2FF204610BD1120FCE7F9
:10A57400302D002000F8FFFF38B5134B6FF0004278
:10A58400C3F80823114A8021C2F88010104A01211F
:10A594001160104942F21072086808B9013AFBD1FF
:10A5A4000D4D0024C3F800452C7405EB44031B7FB8
:10A5B40013B1E0B2FFF7B6FF0134082CF5D1002344
:10A5C40085F82C3038BD00BF0070004000E100E089
:10A5D4000870004014710040302D00203FDF7047A8
:10A5E40076DF704777DF70477ADF70477CDF70472C
:10A5F4008FDF7047FCF714BC037810B5002B41D1F2
:10A6040040680121B0F90040FFF7E4FE08B1FCF70F
:10A6140007FC4FF4167314FB03F34FF4806293FBAF
:10A62400F2F303EB43035C0004F58774A3B240F632
:10A63400B732934255D840F6543293422DD9C3F5DC
:10A644003B6308333A245C436FF0630394FBF3F4F5
:10A654006434E4B222462549002001F04FF94FF654
:10A66400FE722146224806F046F830F0080209D06E
:10A6740020F00202112A05D043F20142904201D097
:10A68400FCF7CEFBFFF778FF1A4B0222C3F808232E
:10A69400194B8022C3F8802110BD40F6B424A34294
:10A6A40008D9D31A18245C436FF09F0394FBF3F486
:10A6B4002A34CEE740F68812934206D9E41A6FF0A2
:10A6C400180394FBF3F41234C3E740F634018B42CD
:10A6D40009D9D31A06245C43084B94FBF3F40634DB
:10A6E400B7E76424B6E70024B4E700BF271E0300DD
:10A6F400BC2F00200070004000E100E0ACFEFFFF32
:10A704001FB515491548FFF7C7FD08B1FCF788FBCD
:10A71400134A10685168127A01AB03C301A90020DF
:10A724001A70FFF7FDFD08B1FCF77AFB01210D4813
:10A73400FFF750FE08B1FCF773FB01210A48FFF74D
:10A7440049FE08B1FCF76CFBFFF798FE08B1FCF773
:10A7540067FB05B05DF804FBFDA502008B1A03003E
:10A764000C1A0300602D0020622D002008B5044857
:10A7740000F0E6FC18B1BDE80840FCF751BB08BD89
:10A78400F02F002003881D2B37B504465CD005D874
:10A79400102B23D0112B39D003B030BD3B2B3ED02E
:10A7A400562B45D0212BF7D12B4B2C482C49C01AC2
:10A7B400C008000440F00400FCF7B0F92949002067
:10A7C40000F0EEFE02A9002321F8043DA088FFF763
:10A7D4000FFF0028E0D0FCF723FBDDE7224900202F
:10A7E40000F0DEFEA188214C2148218002F076F899
:10A7F40008B1FCF715FB1F4D29780029CCD120881E
:10A8040002F0E4FE2B7801332B70C5E71A490020CF
:10A8140000F0C6FE154B4FF6FF721A80BCE71749CD
:10A82400002000F0BDFE1321A088FFF7D9FED0E779
:10A83400094B0A481249C01AC008000440F0040039
:10A84400FCF76CF90E49EBE790F91B200D49002049
:10A8540001F054F8A0E700BF441003007410030093
:10A864002F1A0300431A0300151A0300FC220020C8
:10A874004C30002058300020211A0300571A0300DE
:10A884006D1A0300821A03007FB506A9082341F854
:10A89400143D4FF6FF72034602A802F01FFF08B1F1
:10A8A400FCF7BEFA019902A802F0C4FE08B1FCF755
:10A8B400B7FA07B05DF804FB00B50138B3B0072858
:10A8C40009D8DFE800F004080B0D0F111D3A2649E2
:10A8D400002000F065FE33B05DF804FB2349F7E780
:10A8E4002349F5E72349F3E72349002000F058FE04
:10A8F400224803F099FE0028EDD0FCF791FAEAE72C
:10A9040032AB0822029243F8BC2D02A912AA04A871
:10A9140002F078FE08B1FCF783FA1949002000F030
:10A924003FFE0220FFF7B0FF039B0093029A1348F7
:10A9340012AB04A903F065FEDDE71249002000F024
:10A944002FFE12A9002002F079FF0528C3D008B118
:10A95400FCF766FA0620FFF797FF0DF15901074847
:10A9640003F03FFEC7E700BFC01A0300D71A030075
:10A97400EA1A0300FD1A03001F1B0300642D0020C4
:10A98400411B0300641B030008B503784BB9054B56
:10A994003B211888FFF724FE18B1BDE80840FCF7F6
:10A9A4003FBA08BDFC2200200B78023B052B27D8B8
:10A9B400DFE803F0030B11171C21124B12494FF06F
:10A9C40096721A60002000F0EBBD0E4B0F494FF455
:10A9D400B4021A60F6E70B4B0D494FF0E1621A60BE
:10A9E400F0E7084B0B4A1A600B49EBE7054B0B4A9F
:10A9F4001A600B49E6E7034B0A4A1A600A49E1E781
:10AA0400704700BFF4220020701C03009F1C030049
:10AA1400CE1C03000000302AFD1C0300000060541B
:10AA24002D1D03000000C0A85E1D030008B50B78AF
:10AA3400052B23D8DFE803F0031222221A20104941
:10AA4400002000F0ADFD00224FF4F0110D48FCF79A
:10AA54007BFC98B1BDE80840FCF7E2B90A49002044
:10AA640000F09EFD0748FCF7B3FCF2E7074900201D
:10AA7400BDE8084000F094BD0549F0E708BD00BFFB
:10AA8400E51B03002C300020111C03003E1C0300B6
:10AA9400581C030010B50C7814B1012C10D010BD53
:10AAA4000B49204600F07CFD0A4B0B4819682246EE
:10AAB400FCF74AFC0028F2D0BDE81040FCF7B0B91E
:10AAC4000649002000F06CFD0348FCF781FCF1E727
:10AAD4008A1B0300F4220020D02F0020B71B0300A0
:10AAE40010B5044688B003F0FFFA204603F022F9BB
:10AAF40023780D2B0CD8DFE803F0070B0D0B190B93
:10AB0400214D0B4B0B4D294D2349002000F048FDEE
:10AB140008B010BD608801F04DFB227A0092638872
:10AB24001E490246002000F0E9FEF1E708A90023CF
:10AB340001F8103D608802F057FDE9E7FDF7D4FF06
:10AB440030F00803E4D0FCF76BF9E1E708A9082327
:10AB540041F8143D4FF6FF72012304A802F0BEFD34
:10AB640008B1FCF75DF9039A0D490823013200206E
:10AB740000F0C4FE039904A802F03AFD08B1FCF702
:10AB84004FF90321074803F0E8FB0028C0D0DAE7B7
:10AB94002069FAE7A068F8E78F1D0300B91D0300D8
:10ABA400FA1D0300642D0020FCF73AB930B54FF4C8
:10ABB4000041B1B00020FBF7EBFD08B1FCF730F920
:10ABC400FBF712FDFCF77EFB08B1FCF729F9A24A5A
:10ABD400A2480121FCF7A6FB08B1FCF721F9A04A21
:10ABE400A0480121FCF79EFB08B1FCF719F9FDF719
:10ABF40077F808B1FCF714F905F044FE08B1FCF746
:10AC04000FF930AC002344F8AC3D0120214605F097
:10AC1400FFFE08B1FCF704F9204605F0ABFF08B1CC
:10AC2400FCF7FEF830AD0120FFF7D8FC11238E4865
:10AC340005F8B43D06F081F98B4982B22846FFF746
:10AC4400D5FC08B1FCF7ECF808220021204606F0F8
:10AC54001FF9DFF868C2854B2046CDE905C3FFF72D
:10AC6400C3FC08B1FCF7DCF80021814801F09EFC2C
:10AC740008B1FCF7D5F8002330A9CDE901330393DB
:10AC84006B607C4B41F8C03D7B4801F015FE08B178
:10AC9400FCF7C6F8794B0193794B039301A921235F
:10ACA40078488DF809308DF80A308DF80B308DF81E
:10ACB40011308DF812308DF8133000F0AFF908B16F
:10ACC400FCF7AEF82946704800F002FB08B1FCF727
:10ACD400A7F800211022204606F0DAF86B4B059302
:10ACE40001238DF818300023079364238DF8203056
:10ACF4002146022366488DF821308DF822308DF8E4
:10AD0400233005F087FC08B1FCF78AF8AC22002157
:10AD1400204606F0BDF8022306228DF814308DF883
:10AD2400172001235B4A8DF816304FF4C8714FF495
:10AD34004860ADF8603019928DF88D308DF8903000
:10AD44004FF4FA628DF891300023CDE92903CDE95F
:10AD54002712514B51482E93214603F07FFA08B134
:10AD6400FCF75EF801214D4803F075FA1C2200211E
:10AD7400204606F08DF800234FF4F022CDE9053289
:10AD8400ADF822304FF420328DF82430444B079232
:10AD94000A930522434B8DF8202020460B9301F0A3
:10ADA40027F908B1FCF73CF802F06CFB08B1FCF79A
:10ADB40037F805220021204606F06AF89DF8143081
:10ADC40043F00103032203F0F10362F306136FF36C
:10ADD400C7138DF8143007238DF8153010238DF820
:10ADE40016309DF8173013438DF817309DF818303E
:10ADF400204613438DF8183002F0DEFB08B1FCF74F
:10AE04000FF8294802F0C0FB08B1FCF709F8274BFA
:10AE140027482849C01AC008000440F00300FBF783
:10AE24007DFE02F021FD08B1FBF7FAFF2249002064
:10AE340000F0B6FB194B042293F854100120FFF7DD
:10AE4400D1FB08B1FBF7ECFFFBF7FCFC0028FBD1BE
:10AE5400FCF75CFFF8E700BF71A70200941A030037
:10AE640005A70200901A0300981A03000100D007F6
:10AE740004300020F9A502004C30002031AA020061
:10AE8400ADA90200F02F00201830002099AA02007A
:10AE9400BC2F0020F8220020BDA80200642D002051
:10AEA4008DA90200ADAB0200E5AA02004410030024
:10AEB40074100300A51A0300B21A03004006800CA4
:10AEC400A8DF7047AADF7047ACDF7047ADDF70477B
:10AED400AEDF704762DF704738B5054D40F6B834D1
:10AEE40045F001054FF47A40A847013CFAD138BD3A
:10AEF400801F03002DE9F341434B06464348328843
:10AF0400C01AC00800040C4640F003004049FBF797
:10AF140009FE7CB13388112B0FD0502B13D0102B8A
:10AF240008D1B388E38102A9032301F8043D23680F
:10AF34002046984702B0BDE8F0814FF6FF73E381E5
:10AF440002A90223F1E7F288E3889A423FD1B07C58
:10AF540000BB304900F024FB4FF0A0454FF00063E4
:10AF6400C5F80C35042703234FF08058C5F86C77D7
:10AF7400C5F87037C5F80885FFF7AEFF02A90123AD
:10AF8400C5F80C852046C5F8707701F8043D2368A0
:10AF940098471CE001383B284FF0A0452CD81E49A7
:10AFA400002000F0FDFA4FF08053C5F80C3504275B
:10AFB40003234FF00068C5F87077C5F86C37C5F8FF
:10AFC4000885FFF789FFC5F80C85C5F86C77F2880A
:10AFD40063899A42AED1338A022BABD12368002B0A
:10AFE400A8D006F1120001F09CF950B100238DF8AD
:10AFF400043001A923689BE70649002000F0D0FA39
:10B00400ACE70123F3E700BF44100300741003000E
:10B01400291F03004F1F0300611F03002DE9F041A6
:10B024000E4694B00546002800F08580002900F003
:10B0340082800B6803604FF6FF73C3813F4B04AA01
:10B0440003F1100C174618685968144603C40833F2
:10B0540063452246F7D105F110013846FFF73AFF60
:10B064000446002863D12B7C8DF80A3014A94FF4D0
:10B07400A05321F8483D2A1D0120FFF721FF044673
:10B08400002854D101460322684605F001FF11232C
:10B094008DF8003073798DF801309DF80230012766
:10B0A40067F3420321461C220DA88DF8023005F0F7
:10B0B400EFFE9DF834300E9443F01A038DF83430CB
:10B0C4000DF104082B7C8DF80E30214641F201432A
:10B0D40003224046CDE910441394ADF80C30CDF86A
:10B0E40048D005F0D5FEB3798DF80430F3798DF8A6
:10B0F40005309DF8063067F3420364F3C30364F339
:10B10400041364F300032146142208A88DF80630C2
:10B1140005F0BEFE03ABCDE9083808AAAB1D0DA9A6
:10B12400A8880A97ADF82C70FFF7CCFE0446204699
:10B1340014B0BDE8F0810E24F9E700BF4C1E0300F3
:10B14400F0B5324B324C3349E41AE408240444F099
:10B154000304054689B02046FBF7E0FC002D52D0DD
:10B1640002AF08220021384605F092FE0123029323
:10B174003A460DF10703E98803934FF6FF70FFF792
:10B18400A5FE08B1FBF74CFE9DF80730E988E88975
:10B19400013B3A468DF80730FFF796FE064638BB6A
:10B1A4009DF807203ABB1C4900F0A8FBEA894FF63A
:10B1B400FF739A4221D010220DEB0200002105F00A
:10B1C40067FEEB88ADF8103001238DF81230BDF81E
:10B1D4000A30ADF8143004A9039BE8890697079355
:10B1E400FFF776FE0D49064602462046FBF79AFC19
:10B1F400304609B0F0BD0A49D6E70A492046FBF7B4
:10B204008DFC0826F4E70E26F2E700BF4410030085
:10B21400741003005C1E03007F1E0300D41E030091
:10B22400A31E0300F41E0300A8DF7047AADF7047C3
:10B2340062DF704737B5234B054623482A88C01A76
:10B24400C00800040C4640F003002049FBF76AFCE8
:10B254007CB12B88112B0ED0502B12D0102B08D17F
:10B26400AB88E38102A9012301F8043D2368204649
:10B27400984703B030BD4FF6FF73E38102A9002362
:10B28400F2E7EA88E3889A42F3D1AB7C012B05D13B
:10B2940002238DF8043001A92368E8E7022B01D1C9
:10B2A4000323F6E7032B01D10423F2E7042B01D196
:10B2B4000523EEE7052B01D10623EAE7062BF3D19C
:10B2C4000723E6E74410030074100300291F03005A
:10B2D4002DE9F0410E4694B00446002800F0868023
:10B2E400002900F083800B6803604FF6FF73C3816D
:10B2F4003F4B04AA03F1100C174618685968154609
:10B3040003C5083363452A46F7D104F110013846D2
:10B31400FFF78EFF002866D1237C8DF80A3014A92C
:10B324004FF4A85321F8483D221D0120FFF77CFF6C
:10B3340008B1FBF775FD03220021684605F0A8FD5E
:10B3440011238DF8003073798DF801309DF80230A7
:10B35400012767F342031C2200210DA88DF8023057
:10B3640005F096FD9DF83430CDF848D043F00A033B
:10B374006FF3041300258DF834300DF10408237C99
:10B384008DF80E30032241F2015329464046ADF8B0
:10B394000C300E95CDE91055139505F079FDB37970
:10B3A4008DF80430F3798DF805309DF8063067F395
:10B3B400420303F0E70365F300031422294608A8B7
:10B3C4008DF8063005F064FD03ABCDE9083808AA12
:10B3D400A31D0DA9A0880A97ADF82C70FFF726FFCE
:10B3E40008B1FBF71DFD14B0BDE8F0810E20FAE7AB
:10B3F400861F03000369C1688B429DBF8268D2180F
:10B4040002F1FF3203F1FF3394BF501A581A704708
:10B414002DE9F041D0E902670446F61B40689642E4
:10B4240088461546384405D905F009FD3D44E560D4
:10B43400BDE8F0813246AD1B05F001FD2A4608EB5C
:10B444000601606805F0FBFCF1E72DE9F843C568E7
:10B454000646894617464FF000083469B368706899
:10B46400A54228BFE418013C621B5C1BBC4228BFF8
:10B474003C46944228BF144649462844224605F0D7
:10B48400DEFCB3682544AB4208BF00253F1BA04443
:10B49400A144F560E1D14046BDE8F88310B5114CF4
:10B4A400114AA2610223C4E90433104BE361A2648C
:10B4B4004FF400730E4A2362E264002310220D4904
:10B4C400A362E01D6362E362A3656365E3652265CD
:10B4D40005F011FD0849204605F00DFD2023A37158
:10B4E40010BD00BF5C300020961F0300E430002034
:10B4F400D43000209F1F0300A31F0300F8B5184C8D
:10B50400182300FB033503FB00402544C46A012CC7
:10B514000F46164611D003D3022C1BD000240AE098
:10B524002846FFF767FF864205D832463946284643
:10B53400FFF76EFF34462046F8BD2846FFF75AFF52
:10B544008642344628BF0446224639462846FFF739
:10B554005FFFF0E72846BDE8F840FFF776BF00BF7D
:10B564005C30002073B50D4B1B7804460D4616461F
:10B574000BB9FFF793FF02A8002300F8013DFBF786
:10B5840041FF324629462046FFF7B8FF04469DF89E
:10B594000700FBF75BFF204602B070BD5C30002063
:10B5A40038B5054608460C4605F0C7FC2146024658
:10B5B4002846BDE83840FFF7D5BFFFF76FBF826864
:10B5C40010B504464068531C834205D82068815452
:10B5D400A360E3680133E360D4E901329A420BD1FA
:10B5E40021682069FFF7BEFFA368984215BF4FF09A
:10B5F400FF330023E360A36010BD00002DE9F84F82
:10B604009A46DDE90A439046064689460A460127DA
:10B6140042451DD2574538BF574613F0010B12D18E
:10B624008CB19B0718D5BAF1000F0CBF302520252B
:10B63400A74208D229463046FFF7C1FFF368002B22
:10B6440004F1FF340ADAF368002B09DABDE8F88F55
:10B65400B2FBF8F20137DBE72025E9E7002CE7D15C
:10B664000125BAF1010F04D90AF1FF3A08FB05F5E7
:10B67400F7E7B9FBF5F39845F8D9DFF844A0B9FB2F
:10B68400F5F330461AF8031005FB1399FFF797FFFB
:10B69400F368002B03DBB5FBF8F5002DEFD1BBF10C
:10B6A400000FD3D0002CD1D0A742CFD220213046D6
:10B6B400FFF785FFF368002B04F1FF34F2DAC5E7E6
:10B6C400AA1F03002DE9F04F9BB00AAB0D4605936A
:10B6D40040210023CDE90613CDE908300390164636
:10B6E4004FF00A0915F8011B00295CD025294CD11B
:10B6F4004FF0000B09E02D2B04D0302B0DD14BF073
:10B70400020B01E04BF0010B0D462B782B2B05F1BE
:10B7140001010FD0EFD8232B0FD00024294611F8B4
:10B72400013BA3F1300009280AD809FB0434303C5A
:10B734000D46F3E74BF0040BE6E74BF0080BE3E7A9
:10B744002E2B0FD10D464FF0000A284610F8011B8E
:10B75400A1F13007092F07D809FB0A13A3F1300A16
:10B764000546F2E74FF0000A284610F8011B01F0E5
:10B77400FB07682F0546F8D0642936D009D8582924
:10B7840026D063292CD025290AD105A8FFF717FF55
:10B7940006E0732900F0988016D8702900F0A48080
:10B7A400089B002B9EDA089B002B09DD079A1AB12F
:10B7B4000AA90398FFF7D6FEDDE90723134408938B
:10B7C40008981BB0BDE8F08F752974D07829E7D1AB
:10B7D4003168CDE9004B081D30605346102271E0FA
:10B7E40033681A1D32601978CFE731680F68081D75
:10B7F40087EAE7713060A1EBE7714FF0010809298E
:10B8040041DCD04538BFD0462CB1002F02DB1BF001
:10B81400040F00D0013C1BF0020F02D0BAF1000F5C
:10B8240004D01BF0010F01D1002C3CD10899002950
:10B83400B6DB002F3ADA7F422D2105A8FFF7BFFEC1
:10B8440008990029ACDB0BF0030102290FD1BAF1EE
:10B85400000F0CD1002C4FD0A04508D2302105A8F0
:10B86400FFF7ADFE0899002904F1FF34F2DA0899D4
:10B87400002995DBCDE9004B53460A22394605A839
:10B88400FFF7BCFE8CE791FBF9F108F10108B6E77C
:10B89400202105A8FFF793FE0899002904F1FF343D
:10B8A400C4DB002CC5D0A045F2D3BFE71BF0040FC6
:10B8B400C6D02B21C1E73168CDE9004B081D3060AB
:10B8C40053460A220968DAE733681A1D32601C6895
:10B8D40014F8011B00293FF463AF05A8FFF76FFEBE
:10B8E400089B002BF4DA5BE731680B1D3360002200
:10B8F4000823CDE9003271E70024BBE70EB403B599
:10B9040003AB02AA53F8041B42F8043DFFF7DAFE26
:10B9140002B05DF804EB03B070476DDF704779DF68
:10B9240070477DDF704764DF70472DE9F74F0C9C4B
:10B93400BDF834B02788002580468A4691462E46B5
:10B94400B8F80020B2420BDC35B12288013AD21B90
:10B9540092B2FF2A39D8DA55002003B0BDE8F08F3F
:10B96400D8F8042052F82600019000220DF10301BA
:10B9740001A8FFF7D8FF0028EFD19DF803204A451E
:10B9840021D12288002D14BF0020022002EB0901DE
:10B994000144594519DC3DB9013292B2228003F8C1
:10B9A40002A022880132228022880DF103011A4468
:10B9B40001A8FFF7B8FF0028CFD121889DF8032004
:10B9C4000A44228001250136BAE70C20C5E72DE997
:10B9D400F341089CBDF824501746CDE900450222E6
:10B9E4000646FFF7A2FF48B9102239463046CDE992
:10B9F400084502B0BDE8F041FFF797BF02B0BDE8CB
:10BA0400F0812DE9F04F00231688138090F82D3033
:10BA140085B007460D46144653B3082E01D80C20B2
:10BA240026E102A8FFF779FF002840F0218113885E
:10BA34000822CA54238801339BB21B222380CA5490
:10BA44002088013080B2208006220DF109012844AB
:10BA540005F0F5F923889DF8082006339BB212F00F
:10BA6400FE0218BF01222380EA5423880133238075
:10BA7400BB78FBB123880433B342D0D802A8FFF7C4
:10BA84004EFF002840F0F48023880322EA542388E0
:10BA940001339BB219222380EA542388BDF808207D
:10BAA40001339BB2E9182380EA54120A4A702388AE
:10BAB40002332380FA789AB12388D91CB142AED8D4
:10BAC4000221E954238801339BB201212380E954E4
