:020000022000DC
:1060000000000120756302005D6302005F6302000F
:106010006163020063630200656302000000000028
:1060200000000000000000000000000067630200A4
:1060300069630200000000006B6302006D630200F0
:106040001D9702006F630200619B02006F630200F4
:106050006F6302006F630200E5990200859B0200F6
:106060006F6302006F6302006F6302006F630200E0
:106070006F6302006F6302006F6302006F630200D0
:106080006F6302006D7002006F6302006F630200B5
:10609000097102006F630200F50303006F630200E1
:1060A0006F6302006F6302006F6302006F630200A0
:1060B0006F6302006F630200000000000000000038
:1060C0006F6302006F6302006F6302006F63020080
:1060D0006F6302006F6302006F6302000000000044
:1060E00000000000000000000000000000000000B0
:1060F00000000000000000000000000000000000A0
:10610000000000000000000000000000000000008F
:10611000000000000000000000000000000000007F
:10612000000000000000000000000000000000006F
:10613000000000000000000000000000000000005F
:10614000000000000000000000000000000000004F
:10615000000000000000000000000000000000003F
:10616000000000000000000000000000000000002F
:10617000000000000000000000000000000000001F
:10618000000000000000000000000000000000000F
:1061900000000000000000000000000000000000FF
:1061A00000000000000000000000000000000000EF
:1061B00000000000000000000000000000000000DF
:1061C00000000000000000000000000000000000CF
:1061D00000000000000000000000000000000000BF
:1061E00000000000000000000000000000000000AF
:1061F000000000000000000000000000000000009F
:10620000354936480A1A02D0072291438D4634494F
:1062100034480A1A06D00722914381F309880222E2
:1062200082F3148830483149314A00F044F831484B
:106230003149324A00F03FF831483249324A00F0E1
:106240003AF832483249334A00F035F83248334997
:10625000334A00F030F833483349344A00F02BF821
:1062600033483449344A00F026F83448344900228F
:1062700000F02CF833483449002200F027F8334866
:106280003349091A082902DB002202604160314AC1
:1062900090471F481F49884205D00268043003B464
:1062A000904703BCF7E700208646EC46002000211B
:1062B000294A9047FEE7884207D0521A05D0037852
:1062C00001300B700131013AF9D17047884202D098
:1062D00002700130FAE770470000012000E0002062
:1062E0000000012000000120543D0300CC220020CA
:1062F00010230020D4630200D4630200C20E030006
:10630000543D0300CC220020CC2200204C1003007E
:106310004C1003004C1003004C1003004C10030001
:106320004C1003004C1003004C100300543D0300BC
:10633000983D03001023002010230020102300208C
:106340002C3700202C3700202C3700202C37002041
:106350002C5700209D630200D9A50200FEE7FEE74E
:10636000FEE7FEE7FEE7FEE7FEE7FEE7FEE7FEE705
:10637000704700BF1048804710484FF0070188431E
:1063800085460F4880470F48016841F4700101605D
:10639000BFF34F8FBFF36F8FFFF732BF0A480B4930
:1063A0000B4A884207D0521A05D0037801300B708F
:1063B0000131013AF9D170477163020000000120F8
:1063C0002592020088ED00E038100300B82200207A
:0463D000CC220020BB
:1063D4007047000007B5044B0093044A402300F0C3
:1063E40030F803B05DF804FBF563020011230020CC
:1063F4002DE9F84389461446B2B10F4B0F4E0325DD
:10640400002743F00108224609EB0701002004F0AD
:1064140097FD0744241A48B933782BB14FF47A40D6
:10642400C047013D02D13570BDE8F88301233370C4
:10643400002CE8D1F8E700BF50100300102300201F
:106444007047F0B595B008460D4616461C4601F057
:1064540078FC1A9A0D920023082205A928460A936B
:106464008DF82C300C93CDE9086401F088FC079B6F
:106474000293BDF81830ADF80C30BDF81A30ADF801
:106484000E3001238DF811309DF8143003F003020F
:10649400012A1DD1BDF81440059EC3F3C203C4F301
:1064A40083148DF81030A20008230EA9284601F0A9
:1064B40066FCC6F3952608AB0093224602AB0EA9F0
:1064C400304600F025FB284601F03FFC15B0F0BD36
:1064D400022AF8D1BDF81640C3F3C203A4098DF80B
:1064E40010300827082C264628BF08263B4632468B
:1064F4000EA9284601F043FCA41B08AB02AA3146AE
:106504000EA8374400F068FB002CEBD1DBE70378DE
:1065140013F0040216D003F00303012B03D0022B63
:1065240009D0012070470A6800880232C0F3831042
:1065340002440A60F5E70B684288023303EB9213C6
:106544000B60EEE7104670472DE9F04F89B0054621
:10655400861C08A8484C019200230F4600F8113D00
:1065640000F0C6FF23683B60D4E90123134422688A
:1065740001339B1A04F21C4704F5836A04F214489D
:10658400B3421AD3019A0023002A6DD0012262F388
:10659400010343F0040365F389132168A2689DF89D
:1065A4000F000A4003320E4444F82230266000F003
:1065B400C3FF012009B0BDE8F08F0121384601F086
:1065C40013F9504601F029F9404601F026F90DF17E
:1065D40020096068D4F808B049F8100D00EA0B00EF
:1065E400033004EB80004946FFF791FF049BB0B9E8
:1065F4000BEA030204EB8202D16805919A1C013371
:1066040003EA0B0B04EB8B0C01F00303012B049244
:10661400DCF80CB020D0022B04D083460BE00BEA4C
:106624000300DDE7BDF816309B0903334FEA1B4B2B
:1066340002EB93030493404601F0F2F808B1049B83
:1066440063605946384601F0CFF8D4E90123134476
:10665400226801339B1A93E7BDF81430C3F3831304
:106664004FEA1B4B1344E5E7022262F3010343F0B4
:10667400040365F39F5390E72424002030B50A4CAB
:1066840071B10A4A0A49121BD20800239A4201D165
:10669400002030BD31F82350854202D00133F5E7A4
:1066A400034654F83300F4E7700F03002810030086
:1066B400CC220020094B013903EBC000032909D87F
:1066C400DFE801F00A0204060420704700797047ED
:1066D400407970470020704702207047700F030014
:1066E400034BD3E90030C31A58425841704700BFE6
:1066F400242400202DE9F04387B0FFF7F1FF06467C
:10670400002840F0FC807F4DC5F81804BFF34F8F7C
:106714006868AC6806AF47F8100D2040033005EBFD
:1067240080003946FFF7F3FE029B18B1D5F8182410
:10673400002A5FD004EA0302991C013305EB8202AC
:10674400234005EB8303D268DB68049302F0030360
:10675400022B0392029162D1BDF80E306A484FEACF
:106764009318B8F1500FC14628BF4FF0500969F390
:106774008F1309F10801ADF80E3001F0B3FA0746A2
:10678400002800F0A78001F0DCFA03A90023082206
:10679400384601F0E9FA029924EA01060136B60006
:1067A400B14535D95FFA89F97EB3F6B2A9EB06098A
:1067B400214003315FFA89F4B146544E05EB81015F
:1067C40008234A46384601F0CFFA36B109F10803E6
:1067D40022463146384601F0C7FA029B08F1030805
:1067E40003EB98030293D5F81834002B4BD1D5F85A
:1067F40010445BE02A689A4204D86A60304607B0C5
:10680400BDE8F08304EA030088E740493446D7E74B
:106814002140033108234A4605EB8101DAE7012BC5
:1068240058D1BDF80C303848C3F38311062928BF6A
:10683400062161F3891302318900ADF80C3001F0AF
:1068440051FA0746002845D001F07BFA00230822BC
:1068540003A9384601F088FA0026BDF80C20C2F3DB
:106864008312B31C96424FEA8303BCD202994A1C9A
:1068740021400331029205EB81010422384601F0E4
:1068840073FA0136E9E7384601F05FFAFFF728FFAB
:1068940080F00100C6B2B1E7E3685B7923B12368F5
:1068A40039461B6820469847E3681C68002CF3D1DE
:1068B400384601F04AFA06A800F8114D00F018FE17
:1068C400D5F818340BB9029B6B609DF8070000F0F3
:1068D40033FEDBE7D5F8104454B90D4B0D480E498F
:1068E400C01AC008000440F0020000F06FF8CDE7C1
:1068F400236820469B689847E3681C68ECE70026F9
:106904007CE700BF242400205C0F03003024002017
:10691400700F0300900F0300741003002DE9F74F6C
:10692400284C80460F46924601A9012218469B46F0
:10693400D4F80890FFF708FE88B3019D0026A91C2F
:106944005E4506EB010234D100211F4800F00BFF25
:1069540080F310006A1C02EA090204EB82020004BC
:1069640005EA0903033340EA1840D06014F82320F1
:1069740068F3C50204F8232034F8232066F389124F
:1069840024F8232054F82320012167F39F2244F89C
:10699400232061F301026FF3820204F8232094F8A8
:1069A40020341BB1FFF7A6FE0028FBD103B0BDE8DD
:1069B400F08F09EA020204EB82025AF82630D3600F
:1069C4000136BDE7242400204028002000231A4675
:1069D400FFF7A4BF13B502AC012344F8042D2246EB
:1069E400FFF79CFF02B010BD07B5CDE900230223D9
:1069F4006A46FFF793FF03B05DF804FB1FB5CDE9CA
:106A04000123069B039301AA0323FFF787FF05B025
:106A14005DF804FB1FB5CDE90023069B0293079B99
:106A240003936A460423FFF779FF05B05DF804FB7E
:106A3400094A38B50123D2F8104482F820341D469F
:106A440004B938BDE3685D71236820465B689847E4
:106A5400E3681C68F4E700BF24240020037A052BB4
:106A640010B50C460FD0437A23B1084A0849204692
:106A740000F020FF0749204600F01CFF2046BDE837
:106A8400104000F00CBF002AF8D0F3E7BF10030059
:106A94008F2A0300461E0300C38873B504460D46BF
:106AA40033B1144A00921449144A284600F002FFF4
:106AB400217A05291CD0637A4BB1A088FFF7FAFD2F
:106AC4000F4B104953F82020284600F0F3FE227A99
:106AD4000D4BA08853F822600021FFF7CFFD0B492E
:106AE40003463246284602B0BDE8704000F0E2BEDC
:106AF40002B070BDBF100300CC100300C41003002B
:106B04008C1003008F2A0300F0100300E41003002C
:106B14002DE9F04385B01F460C9D002306460C4624
:106B2400904695F80C902B7329463846FFF7B4FF2E
:106B3400B8F1060F09D8DFE808F00412181F28334B
:106B440040003146284600F0B5FE0022294638466A
:106B5400FFF784FF85F80C9005B0BDE8F083226848
:106B64003146284600F0A6FEEFE7D4E9002331467B
:106B7400284600F09FFEE8E7A36800933146D4E975
:106B84000023284600F096FEDFE7E3680193A3683C
:106B940000933146D4E90023284600F08BFED4E765
:106BA40023690293E3680193A36800933146D4E90F
:106BB4000023284600F07EFEC7E763690393236938
:106BC4000293E3680193A36800933146D4E9002358
:106BD400284600F06FFEB8E708292DE9F84F8046F3
:106BE4000E4617461C463AD8002593F80C901D73A0
:106BF40019461046FFF750FFDFF884A0DFF884B091
:106C0400AE422ED918F805205946204600F052FE0F
:106C14000135082DF4D11849DFF86CB0204600F096
:106C240049FE4FF0000A564520D918F80A507E2D27
:106C340003D828460AF05AF800B92E252A465946A0
:106C4400204600F037FE0AF1010ABAF1080FEAD132
:106C5400012221463846FFF701FF84F80C90BDE875
:106C6400F88F5146204600F025FED1E7034920461F
:106C740000F020FEE7E700BFBA100300B8100300DD
:106C8400B6100300B0100300BC1003002DE9F04F50
:106C94003B4F89B000263B4B1B78F5B2AB4202D880
:106CA40009B0BDE8F08F384B196811F8350001249C
:106CB400A0F12002C0F1200304FA02F924FA03F33C
:106CC40049EA0309D7E9002304FA00F8CDE90423CB
:106CD40002EA080203EA0903134301EBC50B4CD093
:106CE400DDE9042322EA080223EA0903C7E90023B1
:106CF400079102F06BFE0799844611F83500A0F164
:106D04002002C0F1200324FA03F304FA02F21A4326
:106D140004FA00F300931D4B0192DDE90045D3E929
:106D2400002314401D4022462B465FFA8CF40025B4
:106D3400CDE90445049CA0F12005AC400394049CD7
:106D4400C0F1200124FA01F1039C0C43049903943B
:106D540081400291DDE90245AB4208BFA2420CD159
:106D64009BF801104B1E59425941A1EB0C02DBF870
:106D740004305142514103B1984701368BE700BFBB
:106D8400782800204828002080280020702800202F
:106D94002DE9F84F0646244800F090FB002841D125
:106DA4000123A6F12001C6F1200203FA01FB23FA14
:106DB40002F203FA06FA1D4BD3E900014BEA020B77
:106DC40000EA0A0801EA0B0958EA09021F4623D11E
:106DD400304602F0FBFD164BB8B1D3E9000140EA9E
:106DE4000A0441EA0B05C3E90045D7E900234BEA4D
:106DF4000305104B0C4819684AEA0204C7E9004528
:106E04000022BDE8F84F00F015BBD3E9000120EAE9
:106E14000A0421EA0B05E6E720EA0A0421EA0B0545
:106E2400C3E90045BDE8F88F5028002078280020E9
:106E3400702800204C280020042A2DE9F34105463F
:106E44000C4616463AD902F0F9FCD8B11C4B1D4940
:106E54001D601D4BDFF884801C701C4B00221E60DB
:106E64000023C1E900231A49C1E90023013CE4B22B
:106E740000260327FF2C0CD1164A1748002100F0E6
:106E8400C7FA03E002F0A4FC0028DFD002B0BDE89A
:106E9400F08123B205EBC30201A992788DF8052095
:106EA40015F833008DF8066042468DF8047002F040
:106EB400CFFC013CE4B20028DCD0E7E70720E5E79B
:106EC4008028002070280020482800204C2800201A
:106ED40078280020916C020050110300956D020087
:106EE40070B5084D084E00242B789C4201D3002035
:106EF40070BD3368012113F8340002F021FD013420
:106F0400F2E700BF48280020802800201FB5002198
:106F1400039001AA44F20100CDE9011100F004F844
:106F240005B05DF804FB000010B572B6FFF780FDF4
:106F3400FFF7E0FB0028FBD1104B114C1149E41A78
:106F4400E408240444F00100FFF740FD0E4B1B68E5
:106F5400DB0700D500BE0D4944F00200FFF736FD03
:106F6400BFF34F8F0A490B4BCA6802F4E062134324
:106F7400CB60BFF34F8F00BFFDE700BF700F03006E
:106F8400900F030054110300F0ED00E060110300C2
:106F940000ED00E00400FA05094A537891780133C2
:106FA400DBB2994208BF0023117899421FBF0370D6
:106FB4005078182303FB002014BF043000207047CE
:106FC4008428002073B5054602A8002400F8014D6A
:106FD4000E4600F08DFA0DF10600FFF7DDFF90B1CB
:106FE40006700A4B9DF8062045605A709DF807000C
:106FF40000F0A2FA24B9064B4FF48012C3F8002122
:10700400204602B070BD0424F0E700BF84280020AD
:1070140000E100E0024B4FF43C6043F001031847E9
:107024007011030038B50C4B0C4C4FF40032C3F80C
:10703400802001254FF48033C4F84833C4F8083362
:107044006560FFF7E7FF064BA56000241C60FFF7AF
:10705400E1FF044B1C7038BD00E100E0001001406A
:10706400A029002091290020F8B51F4B1F491B6857
:107074000025C1F84051C1F84451C1F84851C1F844
:107084004C51C1F80051C1F804514BB3D1F8044537
:1070940017490968641A24F07F442F461A68A242EB
:1070A40009D8A41A15441A7CDE691AB11F74D3E9ED
:1070B40005209047AEB90F4B0F4A197813788B42CD
:1070C40005D10133DBB2022B08BF00231370127801
:1070D4000A4B43F822500A4B4FF48012C3F80021A4
:1070E400F8BD3346DAE700BFA429002000100140B0
:1070F400A02900209C2900209D29002094290020FB
:1071040000E100E02DE9F74F9E4A9F491378097882
:107114009E4D99423CD00133DBB2022B08BF0023C1
:1071240013709B4912789B4B0F6853F822003B184D
:1071340023F07F4300220B602B68164614469446C6
:1071440013B942B12B6006E0196881420ED902B12D
:107154002B60091A19604FF001082B68DFF83CA274
:1071640000930027BEB9DFF83CB260E0401A0C443B
:10717400D968C3F800C0D3F81CE031B13A1922F041
:107184007F42C3E90121DE611E4601227346D7E72F
:107194000026B046E1E73446F6697D4A6368126822
:1071A400DFF804C2A068991A21F07F41614500F21A
:1071B400A58001442160012222742A680023C4E9C5
:1071C4000133E361002A40F0A2802C60CAE75A1C14
:1071D4009BF80210D2B291428BF8002004BF002227
:1071E4008BF80020182202FB03B32A6819799C68E3
:1071F400022974D003297ED0012918D1217CB1B988
:10720400DA6862601A69A2605A699B69A361624B79
:10721400E2601B78002BC0D06160BEE79C4200F0A6
:1072240093809946DB69002BF8D1002323749BF8E3
:1072340000309BF801209A42C9D12B682FB9009ADB
:10724400934202D1B8F1000F43D0002B79D0D3F888
:1072540000A0524D4E4BD5F804751C68DFF84C81E4
:107264003E1B98F8003026F07F4603369BB94FF456
:107274008033C5F84433C5F80433494B4FF4003226
:107284004FF00109C3F880211A60C5F80090FFF798
:10729400C1FE88F80090B2452CBF5444A41924F0D0
:1072A4007F44C5F84045D5F80435DB1B23F07F4304
:1072B400E41B033324F07F44A3420AD9D5F80435F0
:1072C400C5F84035FFF7A6FE354B4FF40032C3F83E
:1072D4000021314B00221A7003B0BDE8F08F134631
:1072E4009146A0E71174D2690123002AFAD1002B38
:1072F4009DD02A609BE700231946F6E7D31A23F0B2
:107304007F43834234BFC31A0023236053E72168B9
:107314001368994213D8591A1160E26155E7091AA2
:10732400D8691A4638B1034618688842F7D3401A18
:107334001860184613462160E061DC6112E71346C9
:10734400F2E7FFF76FFEC4E74C450DD1D3692B601C
:1073540053B90F4801920121CAF8081003600E4B7B
:107364001970FFF757FE019AE1692368C9F81C10E8
:1073740011B1086803440B602B689A4218BF0127B7
:1073840053E700BF9C2900209D290020A429002048
:10739400A0290020942900209029002000100140F9
:1073A40000E100E084280020FEFF7F0091290020F6
:1073B40008B5FFF737FE104B00200B2218809A7097
:1073C4000E4B18600E4B18700E4B18700E4B4FF48A
:1073D4008012C021C3F8802183F814131A6002F1CB
:1073E4008042A2F56F22C2F8080583F81113074BF7
:1073F400D2F804251A6008BD84280020A42900209E
:107404009C2900209D29002000E100E0A029002003
:10741400074B9B784BB132B128B10368187C20B973
:1074240059745A617047072070470820704700BF9D
:10743400842800202DE9F7431D4FBB7805460E46EE
:1074440090469BB390B304292ED9436973B3437C0C
:1074540002A80024012B00F8014D0CBF8946A14667
:1074640000F046F80DF10600FFF796FDD0B10123B8
:107474000370104B4560D3F80435C0E90498C0E9A3
:1074840002369DF806307B709DF8070000F054F832
:1074940024B9094B4FF48012C3F80021204603B0ED
:1074A400BDE8F0830424EFE70724F7E70824F5E7B1
:1074B400842800200010014000E100E0064A927890
:1074C4003AB130B1426922B1002202740221FFF7BD
:1074D40079BD0820704700BF84280020014BD3F8F1
:1074E4000405704700100140401A20F07F407047A7
:1074F40070B5EFF3108672B60C4A946801239CB9F8
:1075040093600B4B0B4DD3F8801029401160C3F8E6
:107514008050D3F8841051604FF0FF32C3F88420B8
:10752400047006B962B670BD0370FAE7A82900209A
:1075340000E100E0FC06FFBD084B9A6810B55AB1A3
:1075440050B9EFF3108172B6054A1C6814605C6888
:107554005460986001B962B610BD00BFA82900202C
:1075640000E100E010B561B1B2FBF3F403FB1424B5
:10757400A4B244B9C0E9001484608281C381204666
:1075840010BD0E20FCE70920FAE782B050E8022F74
:10759400C188B2EB324F4FF0000317BF92B241EAF9
:1075A400014142EA014104E04268B2EB324F08BFB4
:1075B400012340E80212002AE8D18DF807309DF833
:1075C4000730002B0CBF1120002002B0704737B5E4
:1075D40050E8013F9DB2C48925448489A54228BF4F
:1075E4002D1B0489A54202BFBFF32F8F002207E0A1
:1075F400C5EA030540E80154002CE9D14FF001022B
:107604008DF803200193019B9DF803200B6002F089
:10761400FF0322B10B880068184403B030BD18463C
:10762400FBE70A884B889A4209D150E8012FC2EA45
:10763400024240E80123002BF7D1012070470020CB
:10764400704737B550E8023F1FFAA3F5C488A54236
:1076540002BFBFF32F8F00220DE0C4892544848923
:10766400A54228BF2D1BC3EA054540E80254002C5F
:10767400E8D14FF001028DF803200193019B9DF89E
:1076840003200B6002F0FF0322B14B88006818440A
:1076940003B030BD1846FBE70A884B889A4209D1EB
:1076A40050E8022FC2EA224240E80223002BF7D11D
:1076B400012070470020704701F01F024B0901218F
:1076C400914000EB830000F063B84B0910B501F062
:1076D4001F040121A14000EB830000F04EF8E040BC
:1076E40000F0010010BD01F01F0301229A404B0974
:1076F40000EB8300D14300F061B84B0901F01F0196
:1077040050F82300C84000F0010070472DE9F0470D
:107714004E1E760980460F460136002558F825404E
:1077240008EB850AE44394FAA4F4B4FA84F44FEA27
:107734004519202C06D10135AE42EFD83C462046EF
:10774400BDE8F0874C44A742F5D921464046FFF7EF
:10775400BCFF0028F3D0DAF80040E44394FAA4F420
:10776400B4FA84F4E5E750E8002F0B4640E8003C07
:107774009CF0000FF7D11046704750E8002F42EA02
:10778400010340E8003C9CF0000FF6D1104670471E
:1077940050E8003F43EA010240E8002C9CF0000F4F
:1077A400F6D11046704750E8002F02EA010340E882
:1077B400003C9CF0000FF6D11046704750E8003FA3
:1077C40003EA010240E8002C9CF0000FF6D11046B9
:1077D400704750E8002F02EB010340E8003C9CF0A6
:1077E400000FF6D11046704750E8003F03EB01024A
:1077F40040E8002C9CF0000FF6D11046704750E88A
:10780400003FA3EB010240E8002C9CF0000FF6D1EE
:10781400104670470121FFF7B0BF0121FFF7B8BF41
:107824000021FFF7C0BF37B5054602A8002400F8C1
:10783400014DFFF75DFE2A686B68116899420ED905
:10784400481E106011F8014CEB68298A01FB0434CE
:10785400AB6811791B1ADBB2994238BF13719DF8DA
:107864000700FFF769FE204603B030BD37B5054673
:1078740002A8002300F8013D0C46FFF739FE2A68F0
:107884001368591C1160E968641A298AB4FBF1F47D
:107894001C709DF80700FFF74FFE03B030BD8268EF
:1078A40010B504462AB1436901680069984700236A
:1078B400A36010BD0EB403B5039929B102AA04ABA9
:1078C40042F8043D00F072F802B05DF804EB03B036
:1078D40070470A2938B504460D4602D10D21FFF739
:1078E400F8FFA3682268591CA160D554D4E9013279
:1078F4009A4204D32046BDE83840FFF7D0BF38BDD4
:107904002DE9F84F9946DDE90A4317468246884631
:107914000A460126BA420FD24E4538BF4E4613F0EE
:10792400010B01D164B900240125B9F1010F1AD961
:1079340009F1FF397D43F8E7B2FBF7F20136E9E7D5
:107944009B070ED5B9F1000F0CBF30252025A642A8
:10795400EAD2013C29465046FFF7BBFF002CF6D182
:10796400E1E72025F3E7B8FBF5F39F42E2D9DFF81E
:107974003890B8FBF5F3504619F8031005FB13884B
:10798400FFF7A7FFB5FBF7F5002DF2D1BBF1000F10
:1079940002D00CB1A64201D3BDE8F88F2021504695
:1079A400013CFFF796FFF4E7761103002DE9F74F4A
:1079B400054690460E46002900F03A8116F8011B50
:1079C400002958D0252940F0D180002702E047F053
:1079D40001071646324612F8013B2D2BF7D0302B07
:1079E40004D02B2B05D147F00407F2E747F0020738
:1079F400EFE700242A2B06F101021BD1D8F800304E
:107A0400191D1B68C8F800101C44164633782E2B29
:107A14001CD101364FF0000A314611F8012BA2F1B6
:107A24003000092814D80A2303FB0A23A3F1300ADF
:107A34000E46F1E712F8013CA3F130010929E5D81B
:107A44000A2101FB0434303C1646D3E74FF0000A08
:107A5400324612F8011B01F0FB0068281646F8D0E4
:107A6400692916D054D8582970D00ED825297DD02C
:107A74003378002BA2D12B7B002B00F0D980284631
:107A840003B0BDE8F04FFFF70ABF632968D064294B
:107A9400EED1D8F80020D2F80090111D89EAE972DD
:107AA400C8F80010A2EBE9724FF0010B092A61DC5F
:107AB400D34538BFD3462CB1B9F1000F01DB7907A8
:107AC40000D5013CBA0702D5BAF1000F04D0FB0778
:107AD40002D4002C54D10024B9F1000F58DAC9F1B2
:107AE40000092D212846FFF7F4FE07F00302022ABD
:107AF40005D1BAF1000F02D1002C4DD10024CDE9FB
:107B0400004753460A2249462846FFF7F9FEAFE7E5
:107B1400732954D016D87029AAD1D8F800301A1D68
:107B2400C8F80020302128461C68FFF7D2FE7821CF
:107B34002846FFF7CEFE00220823CDE90032214675
:107B44001022E1E775292FD0782991D1D8F80010B7
:107B54000A1DC8F80020CDE90047534610222CE046
:107B6400D8F800301A1D1978C8F800202846FFF705
:107B7400B0FE7DE70A230BF1010B92FBF3F295E7CC
:107B8400A345A9D220212846013CFFF7A2FEA0E785
:107B94007807AAD52B21A5E7A345B0D230212846E2
:107BA400013CFFF796FEA7E7D8F80010CDE900479F
:107BB4000A1DC8F8002053460A220968A4E7D8F829
:107BC40000301A1DC8F80020F907D3F8009012D528
:107BD4004F46A7EB090B17F8011B41B9A345BFF4A6
:107BE40047AF20212846013CFFF773FEF6E72846FD
:107BF400FFF76FFEEDE7B9F1000F17D0484609F023
:107C04002EF90746BC4200D954B909F1FF3919F8D5
:107C1400011F00293FF42CAF2846FFF75AFEF6E770
:107C240020212846013CFFF754FEEBE74F46E9E7E5
:107C340003B0BDE8F08F2DE9F047B0F80690447921
:107C4400D2F800A09DF8208009FB04F4043C064609
:107C54000AEB0300A0420F4688BFA4EB030A191DD8
:107C6400C2F800A0B1FBF9F509FB15114DB9A9EB58
:107C74000104544528BF5446BAF1000F04D1BDE8AD
:107C8400F0873668013DF1E704317B19701822460C
:107C9400B8F1000F0ED001461846AAEB040A09F009
:107CA40060F8D145254436684C464FF0000128BFA2
:107CB4005446E1E71946F0E7F8B546790146721EE5
:107CC4000546002393422D6803D30024A64202D81C
:107CD400F8BD0133F6E70F682846FFF7C7FD013406
:107CE4003946F3E72DE9F843068ACD1C0746FFF72A
:107CF4009AFD043E35440446B5FBF6F5F0B14FF465
:107D04008073EDB28380C680013D076081464FF0E9
:107D14000008A84512D23846FFF785FD064648B14B
:107D240063790133637108F10108C9F80000076041
:107D34008146EEE72046FFF7BFFF34462046BDE804
:107D4400F88301210430FFF74FBD10B5012104462B
:107D54000430FFF754FD10F0FF0F04D12046BDE8B6
:107D64001040FFF7A9BF10BD1FB504AC44F8042DA3
:107D7400002200922246FFF75EFF04B010BD1FB53B
:107D840004AC44F8042D012200922246FFF753FF6D
:107D940004B010BD41DF7047064B10B500241C70C1
:107DA400054B1C60BFF35F8F0449054800F030F8B1
:107DB400204610BDBC290020C029002088110300E2
:107DC400B429002007B502A8002300F8013DFFF7FD
:107DD4008FFBF1EE103A23F09F03E1EE103ABFF36C
:107DE4005F8F0A4B4022C3F884219DF80700FFF7F8
:107DF400A3FB08F0E3FA20B1FFF7CCFF03B05DF872
:107E040004FB20BF40BF20BFF8E700BF00E100E053
:107E14000B684A684360934208BF0023016008BFAF
:107E240043607047436843B10268916852680B44E9
:107E34009342436004BF0023436070470D4930B54B
:107E4400A1F594720225914201D800200EE08B1A0C
:107E5400DB1093FBF5F302EBC30452F83330834297
:107E640005D802D204F10802EDE7606830BD21466E
:107E7400E9E700BFD812030008B5FFF7DFFF024BA4
:107E8400002808BF184608BD9D11030070B5064EB2
:107E94000546002456F824300BB12846984701348F
:107EA400042CF7D170BD00BFD0290020033080B26C
:107EB40040F2FD33984230B51FD8124B1A783AB9C4
:107EC4001C895D892C440444A4B2B4F5806F0AD3A0
:107ED4001A7DA2B99A8BDC8B2244024492B2B2F589
:107EE400806F0CD201220A801446142202FB043350
:107EF4005A8910445881002030BD0920FCE707202E
:107F0400FAE700BF042A00200B4A0C4B51881420C6
:107F140000FB0131CB6833B9042049681070012299
:107F2400074800F04FBF05230649137002238B80D6
:107F3400012200230968F3E7E8290020042A00202D
:107F4400B8220020CC2A002007B50023054900935D
:107F5400054A09680548082300F09EFE03B05DF851
:107F640004FB00BFCC2A0020A0160300B822002086
:107F740007B50023009301460823034A034800F091
:107F84008BFE03B05DF804FB98160300B8220020B2
:107F940013B500230C46009301460423074A0848FE
:107FA40000F07AFE38B9074B142202FB0434012393
:107FB400237402B010BD0E20FBE700BF941603002B
:107FC400B8220020042A002037B50A480A4B426828
:107FD4009C88196853880325033305709BB20020DD
:107FE40000909B0001EB8401044800F055FE03B0AF
:107FF40030BD00BFE8290020CC2A0020B822002090
:1080040010B501460448FFF7E2FA1C220446002199
:1080140008F0D0FE204610BDB82A00204388033360
:1080240000EB8303994209D382884FF6FF739A4287
:1080340006D00088B0FA80F04009704702207047EB
:10804400012070472DE9F8430223DFF860800B809C
:108054000D46174600F5805600F108044FF001095B
:10806400B4420FD2236801330CD031462046FFF7C7
:10807400D5FF48B10FB187F8009002280BD14FF417
:1080840080632B80BDE8F883A368D8F8002093426E
:1080940001D9C8F800302B886288033313442B803D
:1080A4006388033304EB8304DAE700BFFC29002070
:1080B400144A142303FB002070B50B6844680D4672
:1080C40004F580569BB15C88033403EB8404B4420A
:1080D4000BD22368013308D031462046FFF79EFFB8
:1080E400012809D005D30228F1D1002003E0083487
:1080F400EDE72C60012070BD6388033304EB830437
:10810400E5E700BF042A0020436873B505460C4622
:108114006BB3254AD1688B4229D31269934226D87E
:1081240013F0030223D121490089098988421ED111
:108134002868996888421AD11D494868834203D93E
:1081440000F5805083420ED38A6993420DD902F51B
:108154008052934209D2012323800020B0FA80F098
:10816400400902B070BD1346F6E70A20F6E7002383
:1081740023801E462388012B01D90020F1E70196B4
:1081840001A92088FFF794FF18B9238801332380BD
:10819400F0E7019B2A6899689142F1D16B60034B27
:1081A4001B892B81DDE700BFB8220020E8290020CD
:1081B400042A00202DE9F8431C461E4B1B78064672
:1081C4000F461546002B30D0002A30D07CB3DFF8A0
:1081D4006C804FF01409A388012B01D90A201AE0FE
:1081E40009FB03F318F80330BBB1A3880133A38060
:1081F400F1E723681EB19988328891420DD11FB1ED
:1082040019883A88914208D19A68C5E900230A4B33
:108214001B892B810020BDE8F8832146A088FFF745
:1082240047FF0028E5D12060DFE70220F3E70520BF
:10823400F1E700BFE0290020E8290020042A0020FB
:1082440008B5074B191D5888FFF732FF18B1BDE870
:108254000840FFF7B9BEBDE80840FFF755BE00BFB0
:10826400E82900202DE9F04FA04FDFF8A49289B04F
:108274000646B8463B6823B949469D48FFF7E1F9ED
:108284003860D8F8005029784B1E052B00F2128173
:10829400DFE813F0060076007600060106015D01B2
:1082A40026B1944B00225A60012424E02B79032B3D
:1082B4001DD8DFE803F01502424D8F490B78022BDD
:1082C400084631D00B7D022B4FF001032ED114222E
:1082D4005343C2180020C8545068FFF749FE03E016
:1082E40001232B71FFF730FE002800F0D380814B6F
:1082F40000225A600E241422002103A808F05AFD1B
:1083040041F61D539C4208BF0024D8F80030049461
:108314001A78023A042A00F2D381DFE812F0B40199
:10832400C001E301EB01F2010023D0E7714A1370AD
:108334000023536041F61D54DDE770497048002363
:1083440002222B718A800122096800F03BFDCBE7F1
:108354006A4C00262E712068674DFFF709FE694BB1
:10836400D4F800C05A8814235343EA18EE545168D1
:108374002160A188C2F804C011810222A280B3E75F
:10838400B5F814A0AA7DDFF870B1AEB1022AEB886B
:1083940006D9142101FB0AB1DA1C088902440A81B6
:1083A400142202FB0ABAC3F57F43BAF80A20FD334C
:1083B4001344AAF80A3077E7142303FB0AB3188995
:1083C4005C6804EB8004062A05D8DFE802F0264C3A
:1083D40034421C5866000F24AA7DEB88022A06D971
:1083E400142101FB0AB1DA1C088902440A8114220F
:1083F40002FB0ABAC3F57F43BAF80A20FD331344DB
:10840400AAF80A3077E74048404900234360AB6943
:108414000360FFF779FE00285AD00223AB750023CE
:1084240000930423EA182146354800F035FC00285F
:1084340030D00E24D0E72B69002B0CBF012303237B
:10844400AB750023009305F10C02042304F1080129
:10845400EAE70123AB750022EB8800929B002A69AE
:1084640004F10C01E0E7032914BF06230523AB75CF
:1084740000230093042305F10802E118D4E706233E
:10848400AB75224B1988204B5868FFF781FD0446D1
:108494000028A1D109B0BDE8F08F41F61D549BE737
:1084A400002E7FF401AF2B79012B33D004D3022BA0
:1084B4003FF440AF0F241EE702232B710DF10A0194
:1084C400EB68039303A8CDE90466FFF71DFE08B922
:1084D4000A2410E70498BDF80A108388EB80038807
:1084E4002B81FFF755FD044627E000BF002A00203A
:1084F400B82A0020E0290020042A0020CC2A0020E9
:10850400B8220020E8290020C4290020D82A00200D
:10851400F8290020DFF808A203AA53463146A81D13
:10852400FFF748FE044660B9BAF804100498FFF750
:108534002FFD04460A2C3FF4FDAE002C7FF4DBAE85
:10854400A8E708223146504608F034FCF2E7002E32
:108554007FF4AAAE6D4B1A7BB2B11E731A78013A3E
:10856400062AA7D801A151F822F000BF17860200FD
:108574003D8602005B86020061860200B984020027
:10858400678602007D8602001A78072AE6D801A1D0
:1085940051F822F0B985020061850200618502006C
:1085A400DF850200F38502001386020013860200B1
:1085B400DB8502001A89564901321A8100225A8049
:1085C4001A730A78B2FA82F252099A720A7DB2FADE
:1085D40082F25209DA72012207E04E4958688A8809
:1085E4004088033202448A8002221A70B6E7484C5B
:1085F4005A884849142505FB0242086854685060AB
:108604008888108102228A800C600622EDE7072206
:10861400EBE79A7A32B9DA7A8AB900221A705A8068
:108624005A6087E63A4900229A72CA68002AF2D14F
:10863400097C0029EFD05A80FFF702FE53E700229D
:10864400DA72334A116A0029E7D192F82420002A09
:10865400E3D00122EFE7FFF7B7FC44E7FFF754FC50
:1086640041E706221A702A4A5B88142101FB03237E
:108674005868FFF77DFC36E707221A7000225A601B
:10868400FFF762FC2FE701228DF80C201A89ADF860
:1086940018209A88DB68ADF81A20059310E00222AE
:1086A4008DF80C201A89ADF818209A88ADF81A2094
:1086B400DA689B7D05929A1F534253418DF81C3012
:1086C40003A8FFF7E3FB002649461348C8F80060F7
:1086D400FEF7E2FF01211148FFF791F800287FF42B
:1086E400C9ADD7E603228DF80C20DA88ADF818203E
:1086F4001A89CFE70422DB888DF80C20ADF81830F6
:10870400DEE705238DF80C30DAE700BFE829002006
:10871400042A0020CC2A0020B82A0020C82A0020DD
:10872400DC2A00204068FFF79DBD000008B5012148
:108734000448FFF74EF818B9BDE80840FFF792BDAA
:1087440008BD00BFC82A00202DE9F3419846354BE7
:108754001B7806460D46002B5BD000295BD00988A8
:108764004FF6FF73994258D06B88002B55D06B6835
:108774009B0754D14AB92F890DF102013846FFF7FE
:1087840095FB30B102B0BDE8F08113885788ADF88D
:10879400023001A8FFF734FC044658B9BDF8023092
:1087A400214A142101FB032358890338C01B588133
:1087B4000820E7E700238375BDF8023083826B68E5
:1087C400036180F8008001211848FFF70DF82B8819
:1087D4002381B8F1030F6B88A38004BF0423A3751E
:1087E4004FF0000508BF3368E06008BFA361E7806D
:1087F400658101A90E48FEF714FF36B1E3683360C2
:108804000C4B75601B89B5723381FFF78FFF002015
:10881400B8E70220B6E70520B4E70420B2E7032056
:10882400B0E700BFE0290020042A0020FC29002032
:10883400B82A0020E829002008B5084B1A68042A41
:1088440009D01968064A42F8210001211846FEF7AA
:10885400CBFF002008BD0C20FCE700BFD42A002079
:10886400D02900202DE9F04F89B01422002103A85B
:1088740008F0A0FA7D4A137803F0FF0100919046B6
:108884003BB103A8FFF702FB0026304609B0BDE860
:10889400F08F101DFEF7BEFF05460028F4D140F608
:1088A400F8734FF080521B68DFF8ECA15C1C04BF26
:1088B4006F4B1B6811695269581C08BF02FB01F316
:1088C400CAF810300022A3F540536A49CAF80C30A4
:1088D400504600F0ADF906460028D6D11C238C2260
:1088E40065496648FEF73EFE3746B3464FF0030936
:1088F4003446CDF804A0019BD9680BEB0100024675
:108904005BF80110002835D05D4B994232D14168A3
:108914005C4B994215D0013399422BD1009BDFF86F
:1089240070A1002B59D100225749CAF80000FFF763
:1089340089FBBAF80420022A14BF08220422174330
:108944003AE052494FF0140C0CFB04FC01EB0C020E
:108954004FF0000E01F80CE050600CF110020CF125
:10896400080C0A446144FFF76DFB47F00207013429
:10897400A4B221E000F5805C1168013167D10432B2
:108984009445F9D1424A116829B9022101231060A2
:10899400918000930EE0142262433C4B4FF0020E90
:1089A400991803F802E03B4A486054800134A1F866
:1089B40008E0A4B247F001070BF5805BBBF5405F0C
:1089C40099D1B9F1010F88BF3D46EDB2022D02D015
:1089D400062D12D0DDB90B2657E72C4B1422624327
:1089E40099184FF0020C03F802C00134DAF80020A1
:1089F4004A60A1F808C0A4B295E7012388F80030C2
:108A040003A80023C8F80430FFF740FA3DE702A8A2
:108A1400FFF7F6FAC8B10123013D03700A2D09D806
:108A2400DFE805F006080608070807080F110F001D
:108A34000023037102A91148FEF7F3FDFFF776FE48
:108A440023E70323F5E70223F3E708261DE70F498D
:108A54001422624301EB020C09F1FF39CCF8040043
:108A640003201FFA89F9885481E700BFE029002018
:108A740014100010841803002C2A0020B82A0020A7
:108A8400DEC0ADDEFE011EF1D02A0020042A002043
:108A9400CC2A0020E8290020B822002073B50D4616
:108AA4000446C8B1C1B10DF10601FFF72DFBA8B111
:108AB4000B4BBDF806006668142202FB003001214E
:108AC4000C30FEF791FE63682E600C336B6001235B
:108AD400A372002002B070BD0520FBE70A20F9E76D
:108AE400042A002013B50446A8B10DF10601FFF7CE
:108AF4000BFB90B10B4ABDF80630142101FB032394
:108B0400DA6862B1A27A52B1DA680020013ADA6016
:108B1400A07202B010BD0520FBE70A20F9E7062089
:108B2400F7E700BF042A002002230022FFF70CBE4F
:108B340018B103230022FFF707BE05207047000089
:108B4400104B1B7813B50446ABB14FF6FF73984234
:108B540013D001A8FFF754FA88B105230370012349
:108B64000371C48001A90848FEF75BFDFFF7DEFD31
:108B7400002002B010BD0220FBE70420F9E7082022
:108B8400F7E700BFE0290020B82A00200E4B1B782D
:108B940007B5A3B101A8FFF733FA90B10623037018
:108BA40001A90A48FEF73DFD094B1A780AB10122D2
:108BB4001A73FFF7BBFD002003B05DF804FB02202D
:108BC400FAE70820F8E700BFE0290020B82A0020CF
:108BD400E829002007B5ADF8060002A820F8041D16
:108BE40001460DF10600FFF7E5FA03B05DF804FB5A
:108BF40013B502AC134624F8020D0A4600202146A0
:108C0400FFF7D8FA02B010BD13B502AC134624F82E
:108C1400020D0A4620460021FFF7CCFA02B010BD2F
:108C240020B119B103680B6000207047052070471C
:108C340007B50B4688B9124B1248134AC01A0E23C3
:108C4400C0080093114B0004114940F00100FDF7E6
:108C5400D5FE0E2003B05DF804FB4BB9084B094860
:108C64000C4AC01AC0080E2300930004074BEBE71C
:108C740003601B68114603B05DF804EB184700BF9E
:108C8400700F0300B00F030055170300A81603006C
:108C94005A170300D11703002DE9F34188B93D4B5E
:108CA4003D483E4AC01AC0080E243D4B00940004BF
:108CB4003C4940F00100FDF7A1FE204602B0BDE8AA
:108CC400F0814AB9334B3448374AC01AC0080E24DD
:108CD40000040094324BEBE7D0F800C0BCF1000F65
:108CE40009D12C4B2C48314AC01AC008082400046E
:108CF40000942B4BDCE74BB9264B27482C4AC01A6F
:108D0400C008092400040094254BD1E74768D7F82C
:108D14000480B3FBF8F708FB17374FB11D4B1E480F
:108D2400244AC01AC0080924000400941C4BBFE75D
:108D34008F0709D0174B18481F4AC01AC0081024BF
:108D440000040094164BB3E712F0030F09D0114B43
:108D540011481A4AC01AC008102400040094104B89
:108D6400A6E7C768B9420BD34C1E05691C44AC4244
:108D740006D8DCF80C40A44602B0BDE8F0416047D8
:108D8400044B05480E4AC01AC0081024000400947D
:108D9400034B8DE7700F0300B00F0300551703005A
:108DA400BA1603005A170300D7170300CB170300A2
:108DB4008A170300DD170300071803001F180300B8
:108DC40042180300F7B580B92A4B2B482B4AC01A26
:108DD400C0080E242A4B009400042A4940F00100E4
:108DE400FDF70CFE204603B0F0BDD0F800C0BCF186
:108DF400000F09D11F4B2048234AC01AC008082479
:108E0400000400941E4BE8E74AB91A4B1A481F4A5B
:108E1400C01AC008092400040094194BDDE7476810
:108E2400D7F800E00EF1FF370F4209D0114B12487A
:108E3400174AC01AC008102400040094104BCCE751
:108E4400C768B9420CD34C1E05690EFB0244AC4200
:108E540006D8DCF81040A44603B0BDE8F0406047F3
:108E6400044B05480B4AC01AC0081024000400949F
:108E7400034BB2E7700F0300B00F03005517030054
:108E8400CD1603005A170300CB1703008A170300FB
:108E9400E01603000617030029DF704728DF704738
:108EA40070B503689D6886B004460E466DB1142201
:108EB4000021684607F07EFFA36805932379019695
:108EC4002BB1012B0DD06846A84706B070BD012315
:108ED4008DF8003023690293E36803936369049374
:108EE400F1E702238DF80030E3681B030293F5E7F2
:108EF4000846704700207047024B187A003018BFAC
:108F040001207047802B0020034B187A0122B0FA0D
:108F140080F05A7440097047802B002008B5104631
:108F24001A4607F01EFF002008BD000008B51422F1
:108F34000021044807F03EFF0348FEF726FB00200B
:108F440008BD00BF802B0020702B002010B5094CF9
:108F5400094B43602046FEF75DFC40B907F02EFA4A
:108F64001C2320748C2205490548FEF7FBFA0020D7
:108F740010BD00BF802B002078180300E42A0020D5
:108F8400702B002070B5244D244E2B7A2C463BB90F
:108F940023492448FEF755FB306008B9686070BD6A
:108FA4000223237233681A7972B1012A24D0184635
:108FB4000321FFF775FF00232372636018491948E2
:108FC400BDE87040FEF768BBD3E90520121AB2F57C
:108FD400805F28BF4FF48052D3E903159208012A19
:108FE400014438BF01222844FFF756FF50B111282D
:108FF400DDD101232372D2E7D3E903021044FFF742
:109004004DFFF3E7237C002BC9D10146BDE8704036
:10901400022000F009B800BF802B0020982B00200C
:10902400942B0020702B002038B5831E012B45D8CB
:10903400234C237A002B41D0022B09D1032830D0B2
:10904400204B1B680022E2601A793AB1012A22D02F
:10905400637C7BBBBDE83840FFF794BFD3E90512BE
:109064008D1AB5F5805F94BF521902F580529A614A
:109074009142EDD102284FF0000308BF1946237234
:10908400104B18BF0D211868FFF70AFF0E490F484F
:10909400FEF702FBDCE71A6901321A615B699A4246
:1090A400E7E7E3680133082B01D8E360D0E7002346
:1090B400E360DFE7BDE8384007F070B938BD00BFB2
:1090C400802B0020982B0020942B0020702B002054
:1090D40000F0FD03012B08D1044B00225A74421EF8
:1090E400504250411874FFF74DBF7047802B002049
:1090F40010B5064C201DFEF78DFB28B9637C1BB907
:10910400BDE81040FFF73EBF10BD00BF802B00201C
:109114002DE9F34180460D460F4801A916461F4626
:10912400FEF755FA0446A8B11C22002107F042FEBE
:109134002D0B0123237101A9C4F80080A760E56009
:1091440066610548FEF76DFAFFF7D2FF002002B012
:10915400BDE8F0810420FAE7702B00202DE9F743E5
:1091640081468846104801A917461E46FEF72FFA85
:109174000446B0B11C22002107F01CFE00250A9B06
:10918400A36001A92571C4F80090C4E9037866615D
:109194000548FEF746FAFFF7ABFF284603B0BDE8E3
:1091A400F0830420FAE700BF702B00200C4B1B78DF
:1091B400062B10D10B4B1B681A070CD10A4B1868ED
:1091C40000F0F003302B08D000F0E000A0F14003E1
:1091D400584258417047002070470120704700BF33
:1091E400E00F00F0E40F00F0E80F00F0094B1B78EB
:1091F400062B0CD1084B1B681A0708D1074B1868BB
:1092040000F0F000A0F130035842584170470020AC
:10921400704700BFE00F00F0E40F00F0E80F00F02B
:1092240008B5FFF7C3FF28B17D4B7E4A1B68C3F323
:1092340004231360FFF7DAFF10B17B4B7B4A1A60FB
:10924400FFF7B4FF28B17A4B7A4A1B68C3F3423361
:109254001360FFF7CBFF20B1774AD36823F0807304
:10926400D360FFF7A3FF40B14FF080430022C3F85F
:109274000C21C3F81021C3F83825FFF7B7FF10B14C
:109284006E4B03221A60FFF7B1FF40B16C4B05220D
:109294001A6001229A6700229A603F225A60694B41
:1092A4001B78062B50D1684B1B6819074CD1674BB0
:1092B4001B6803F0F003502B46D14FF08052644BEF
:1092C400D2F80414C3F82015D2F80814C3F82415EE
:1092D400D2F80C14C3F82815D2F81014C3F82C15BE
:1092E400D2F81414C3F83015D2F81814C3F834158E
:1092F400D2F81C14C3F84015D2F82014C3F844154E
:10930400D2F82414C3F84815D2F82814C3F84C151D
:10931400D2F82C14C3F85015D2F83014C3F85415ED
:10932400D2F83414C3F86015D2F83814C3F86415AD
:10933400D2F83C14C3F86815D2F84014C3F86C157D
:10934400D2F84424C3F87025FFF730FF28B1414B0D
:10935400414A1B6803F04F031360FFF727FF48B12E
:109364004FF08043D3F80024D20744BF6FF00102CA
:10937400C3F80024394B1B68062B08D1384B1B68F3
:10938400062B01BF374A136843F480631360364ADF
:10939400D2F8883043F47003C2F88830BFF34F8F9B
:1093A400BFF36F8F4FF01023D3F80022002A03DBA2
:1093B400D3F80432002B2FDA2C4B0122C3F80425F6
:1093C400D3F80024002AFBD04FF010221521C2F854
:1093D4000012D3F80024002AFBD04FF010231522EA
:1093E400C3F80422214B1A46D3F800140029FBD0F9
:1093F4000021C3F80415D2F80034002BFBD0BFF3CE
:109404004F8F19491A4BCA6802F4E0621343CB60C8
:10941400BFF34F8F00BFFDE7164B174A1A6008BD14
:10942400240300104035014074C007400DF0ADBA6C
:10943400440200103C050040F0ED00E0A0050040AF
:1094440010560040E00F00F0E40F00F0E80F00F0C9
:1094540000C0004058020010E40E0040300100102B
:10946400340100103C17004000ED00E000E0014032
:109474000400FA05D42200200090D003054A4FF0DE
:10948400A043105CD3F8043523FA00F0C04300F085
:1094940001007047A8180300044B1A5C0123934091
:1094A4004FF0A042C2F80C35704700BFA818030063
:1094B400044B1A5C012393404FF0A042C2F80835D4
:1094C400704700BFA818030008B50020FFF7F0FF9D
:1094D4000120FFF7EDFF0220FFF7EAFF0320BDE8BC
:1094E4000840FFF7E5BF08B50020FFF7D5FF0120CE
:1094F400FFF7D2FF0220FFF7CFFF0320BDE80840AB
:10950400FFF7CABF074A4FF0A041105CD1F80435F9
:109514000122824022EA03001340C1F80805C1F881
:109524000C357047A8180300054A4FF0A043105C9F
:10953400D3F8103523FA00F0C04300F0010070475F
:10954400A41803000D2809D00E2809D00F2809D02B
:1095540010280CBF03204FF0FF30704700207047E5
:109564000120704702207047C20708B501460CD598
:109574004FF0A0430322C3F84427C3F84827C3F895
:109584004C27C3F85027FFF79FFF8B070AD54FF0EE
:10959400A0430C22C3F83427C3F83827C3F83C2768
:1095A400C3F8402708BD000038B5084C04F108038F
:1095B4000546002818BF1C4623682BB11A68226090
:1095C4005B6828469847F7E738BD00BFA42B002006
:1095D40020B9054B01225A70FFF7E6BF012802D1DA
:1095E400014A9070F8E770479C2B002020B9034B88
:1095F40001225A70FFF7D8BF704700BF9C2B002090
:1096040038B50B4C237883B90A486360A36023619F
:10961400E36000F055F8054606F0D0FE08B900F006
:109624005DF801232370284638BD8525FBE700BF7C
:109634009C2B0020D595020037B502A80023094CC5
:1096440000F8013DFDF754FFE368013BE360E56882
:1096540015B900F055F8A5709DF80700FDF76CFFEB
:1096640003B030BD9C2B0020012813B509D003D3CF
:1096740003281BD002B010BD0F4B0122C3F8802079
:10968400F8E702A800230D4C00F8013DFDF730FF78
:1096940023780BB9FFF7B4FFE3689DF807000133A3
:1096A400E3600123A370FDF747FFE3E700F016F83A
:1096B400FFF7C2FFDEE700BF00E100E09C2B0020C3
:1096C400054A13792BB901211060117153711846A1
:1096D40070478520704700BFB02B0020074B1A68E5
:1096E400D2075FBFC02283F8002301221A604FF023
:1096F40080430122C3F81825704700BF00E100E051
:10970400044B01221A604FF08042D2F81834DB0374
:10971400FBD470470C000040154B07B51A687AB1AA
:1097240000221A601B680093009B4FF080430122C3
:10973400C3F808230F4B587910B95A711B6898471E
:109744000D4B1A6882B100221A601B680193019BB9
:109754004FF080430222C3F80823064B1B68012004
:1097640003B05DF804EB184703B05DF804FB00BFD9
:1097740000010040B02B00200401004000F18040B3
:1097840000F5C040002382B0036003680193019B8D
:1097940002B07047800000F1A040D0F8003723F4F5
:1097A4004033C0F80037D0F8003743EA0141C0F82D
:1097B40000177047054B4FF0FF32072843F820206D
:1097C40084BF1B1883F84820704700BFB82B0020C3
:1097D40010B5164C94F8583033BBFF21E21801330E
:1097E400202B82F83010F9D10021C8B2FFF7E2FF34
:1097F40001310C29F9D1042200210D4807F0DAFACD
:109804000C4BC02283F8062340221A604FF4BE702A
:10981400FFF7B4FF084B4FF00042C3F804230123C1
:1098240084F85830002010BD0820FCE7B82B002035
:109834000C2C002000E100E000600040034B93F892
:109844005800003018BF0120704700BFB82B00201B
:10985400F0B5394D2C18944694F93040002C68DA50
:109864008E78C6F34006002E15BF00230823082770
:109874000C27BB4201D10420F0BD55F8232001324E
:109884004FEA830441D12F1845F823C087F83030BC
:1098940016B9EA1882F848008A78560716D4D7070A
:1098A40035D5820002F1A042D2F8006726F0020604
:1098B400C2F80067214FC60800F0070C012202FA23
:1098C4000CF217F806C042EA0C02BA558A780E78F0
:1098D40012F0020224D004F1804303F5C0430002D5
:1098E400D3F8102522F4473222F44072C3F810252D
:1098F4003604D3F8102500F4F85006F4403630430B
:109904001043C3F810050020B6E70133B1E74E78E1
:1099140000F5E0724FF0A047B60047F82260C9E7AF
:10992400083B2B4493F8500040EA861683F85060B5
:10993400E9E70820A0E700BFB82B00200C2C00208A
:1099440038B5204C251895F93020072A18DD224413
:1099540092F848309B09032B0DD14FF0A043D3F864
:109964001035C34013F0010F0CBF02210321BDE8E1
:109974003840FFF70FBF012B14BF03210221F6E784
:10998400D3B2072B1CD8930003F1804303F5C043E3
:10999400D3F8100540F00100C3F8100502F14000AF
:1099A400800080B2FFF7EAFE51B195F9303054F8E7
:1099B40023302BB1012303FA02F2034BC3F804232F
:1099C40038BD00BFB82B0020006000404FF0A0431A
:1099D400D3F8103523FA00F000F0010070470000BE
:1099E4002DE9FF470024584A584E594D019401214E
:1099F4001368A2F5C040012B80B206D1D6F8043317
:109A04000B4202D0FFF7BAFE0C430432AA424FEADB
:109A14004101EDD14F4B1B68012B0AD14FF4BE70AD
:109A2400FFF7ACFE4FF0A04344F00044D3F81035E8
:109A3400019314F0FF0F1AD0474F0025012634423A
:109A440010D0AB0003F1804303F5C043D3F81005F5
:109A5400D3F8101557F82530C0F30420C1F30141A1
:109A640003B198470135082D4FEA4606E7D1002C8B
:109A740066DA00224FF0FF33CDE90223DFF8D890F5
:109A84000127002634464FF0A04809EB060393F95A
:109A94005020531C45D0D2B222F0C005E90804A8D6
:109AA400084402F0070310F804CC07FA03F31CEA95
:109AB400030F36D009EB050C92099CF930C059F814
:109AC4002CA0BAF1000F0AD1032A2AD10DF1080EF5
:109AD4001EF801C04CEA030C0EF801C001E0032A91
:109AE400F4D005F5E07110F80C0C58F82110184268
:109AF400C1F3014105D0022913D1032A0BD1114628
:109B040004E003290DD1032A05D102212846FFF7D9
:109B140041FE0134E4B2BAF1000F02D011462846E6
:109B2400D0470136042EB0D154B14FF0A043019A6E
:109B3400D3F81035934203D00193029B0393A0E71B
:109B440004B0BDE8F08700BF006100400060004041
:109B5400206100407C610040B82B0020014B1B6851
:109B6400184700BF142C002000F1804000F5E040AD
:109B7400002382B0036003680193019B02B0704725
:109B8400F0B5514B514C1B6885B0DBB14FF482707A
:109B940094F82E20FFF7E8FF12B194F82F30A3B108
:109BA400636802932389ADF80C30E36800218DF8D3
:109BB4000410002B44D12374236801A89847002380
:109BC40084F82F3094F82E3003B3414B1B68EBB16B
:109BD4004FF48070FFF7C8FF94F82D20638B91B287
:109BE4008B4238D95B1A21899BB26383CB1A616893
:109BF40001EB4301374BC3F82C16C3F830264FF45E
:109C04008270FFF7B1FF344B01221A60334B1B689B
:109C14005BB14FF48870FFF7A7FF002304A82374F7
:109C2400022300F80C3D236898472D4B1B6813B39F
:109C34004FF48A70FFF798FF0023237405B0F0BD3A
:109C4400208B608363602081E160002AB4D1214BC2
:109C540001221A60B0E7D2D1E368012184F82F1001
:109C64003BB1002161831B49C1F82C36C1F8302671
:109C7400C5E76383C3E766694FF000470125002EFB
:109C8400DCD0B6FA86F227FA02F34632920026EACC
:109C9400030602F1804303F5E0431B68002BEED07A
:109CA4001046FFF761FFA2F58C72D30882F004021C
:109CB400C2F380028DF808308DF804508DF8092025
:109CC400236801A89847DAE7047100401C2C00209F
:109CD40000710040007000400470004010710040AA
:109CE4001471004038B51E4B044693F82C00A8BBF1
:109CF4001C4A19602178C2F8F0156178C2F8F4158D
:109D0400E5781874012183F82C1083F82D0058612C
:109D140083F82F0083F82E506FF00043C2F8083305
:109D24004FF48270FFF720FF4FF48070FFF71CFFA1
:109D34004FF48A70FFF718FFA3780B485B01DBB27E
:109D440080F80733802303600223C2F804330DB183
:109D5400C2F80413C2F80015002038BD0820FCE73F
:109D64001C2C00200070004000E100E02A4B1A7C0B
:109D740070B502F0FF05002A4BD10A79012A9CBF75
:109D8400264CC4F8005500F10C0503EB4504247976
:109D940024B993F82D40013483F82D4003EB450397
:109DA400CC790D7A8E781C715D714B7836021B016B
:109DB40006F4E06603F0300333430E7806F003063E
:109DC4003343CE78360306F480563343160406F440
:109DD400E02633434E798979360506F48016090660
:109DE400334301F080710B430C4901EB0016000171
:109DF40000F1804000F5E040012AC6F81835C0F8AB
:109E04001455C0F8104502D80123C1F800350020CC
:109E140000E0112070BD00BF1C2C00200070004029
:109E2400264A274B70B505461220C2F808031C7C4D
:109E3400022C03D1C2F80403112070BD187C012840
:109E44001DD1D86818B10223C2F80433F4E7DD60E9
:109E5400198393F82E3063B91A4A1368002BFCD087
:109E64004FF48070FFF780FE144BC3F82C56C3F8F0
:109E74003016124B0222C3F804230020DDE702202F
:109E840093F82E40C2F80403012600201E745D607E
:109E94001981D8603CB1598393F82D30C2F82C56FF
:109EA400C2F83036C9E7C2F82C564FF48070C2F8B5
:109EB4003016FFF759FE20461660BEE700700040DA
:109EC4001C2C002000710040084A137CDBB2012BDB
:109ED40009D192F82E0018B1054A0020136070478A
:109EE400044A136070470820704700BF1C2C0020F0
:109EF4000070004004700040F0B51B4F8BB207EBBC
:109F0400001443EA0243C4F81C35184B40005C6952
:109F140000F1010C4FF0004611F5006F26FA0CF623
:109F24004FF0800505FA00F50BBFB44334435C6180
:109F34005C610CBFC7F80853C7F8045340244FF0C2
:109F440000455969844025FA00F040F2FF75AA42A1
:109F5400054A0BBF81430143596159610CBFC2F8E3
:109F64000843C2F80443F0BD007000401C2C0020DC
:109F7400124B1A7C10B5FAB900F10C0103EB410243
:109F8400127922B193F82D20013A83F82D2003EBA6
:109F9400410300241C715C71030103F1804303F548
:109FA400E04340F2FF72C3F814450549C3F8104575
:109FB400FFF7A2FF204610BD1120FCE71C2C002057
:109FC40000F8FFFF38B5134B6FF00042C3F80823C5
:109FD400114A8021C2F88010104A012111601049F1
:109FE40042F21072086808B9013AFBD10D4D002401
:109FF400C3F800452C7405EB44031B7F13B1E0B296
:10A00400FFF7B6FF0134082CF5D1002385F82C3076
:10A0140038BD00BF0070004000E100E0087000405F
:10A02400147100401C2C00203FDF704776DF70471E
:10A0340077DF70477ADF70477CDF70478FDF7047C8
:10A04400FCF764BF037810B5002B41D140680121AF
:10A05400B0F90040FFF7E4FE08B1FCF757FF4FF4F6
:10A06400167314FB03F34FF4806293FBF2F303EBD8
:10A0740043035C0004F58774A3B240F6B7329342FD
:10A0840055D840F6543293422DD9C3F53B63083377
:10A094003A245C436FF0630394FBF3F46434E4B256
:10A0A40022462549002001F049F94FF6FE72214667
:10A0B400224806F040F830F0080209D020F00202ED
:10A0C400112A05D043F20142904201D0FCF71EFF51
:10A0D400FFF778FF1A4B0222C3F80823194B80229A
:10A0E400C3F8802110BD40F6B424A34208D9D31A82
:10A0F40018245C436FF09F0394FBF3F42A34CEE7F7
:10A1040040F68812934206D9E41A6FF0180394FBC0
:10A11400F3F41234C3E740F634018B4209D9D31A5D
:10A1240006245C43084B94FBF3F40634B7E7642439
:10A13400B6E70024B4E700BF471D0300A82E0020A3
:10A144000070004000E100E0ACFEFFFF1FB51549C0
:10A154001548FFF7C7FD08B1FCF7D8FE134A10688D
:10A164005168127A01AB03C301A900201A70FFF7EA
:10A17400FDFD08B1FCF7CAFE01210D48FFF750FEB2
:10A1840008B1FCF7C3FE01210A48FFF749FE08B1F4
:10A19400FCF7BCFEFFF798FE08B1FCF7B7FE05B06C
:10A1A4005DF804FB49A0020045190300C918030027
:10A1B4004C2C00204E2C002008B5044800F0E2FC92
:10A1C40018B1BDE80840FCF7A1BE08BDDC2E002094
:10A1D400042808B50AD10649002000F003FF03F063
:10A1E40063F818B1BDE80840FCF790BE08BD00BF95
:10A1F4003419030003881D2B37B5044648D005D80D
:10A20400102B19D0112B2FD003B030BD3B2B34D0E1
:10A21400562B3BD0212BF7D12149002000F0E2FE40
:10A2240002A9002321F8043DA088FFF707FF0028B6
:10A23400EAD0FCF76BFEE7E71A49002000F0D2FEF3
:10A24400A188194C1948218002F068F808B1FCF77C
:10A254005DFE174D29780029D6D1208802F0D6FE5C
:10A264002B7801332B70CFE71249002000F0BAFE9F
:10A274000D4B4FF6FF721A80C6E70F49002000F01D
:10A28400B1FE1321A088FFF7D1FED0E70B49F5E713
:10A2940090F91B200A49002001F050F8B4E700BFF0
:10A2A400EC180300D2180300E0220020382F00200D
:10A2B400442F0020DE1803000019030016190300C0
:10A2C4002B1903007FB506A9082341F8143D4FF666
:10A2D400FF72034602A802F021FF08B1FCF716FE44
:10A2E400019902A802F0C6FE08B1FCF70FFE07B000
:10A2F4005DF804FB00B50138B3B0072809D8DFE8DE
:10A3040000F004080B0D0F111D3A2649002000F03F
:10A3140069FE33B05DF804FB2349F7E72349F5E709
:10A324002349F3E72349002000F05CFE224803F0B0
:10A334009BFE0028EDD0FCF7E9FDEAE732AB0822EA
:10A34400029243F8BC2D02A912AA04A802F07AFED4
:10A3540008B1FCF7DBFD1949002000F043FE0220A0
:10A36400FFF7B0FF039B0093029A134812AB04A9B2
:10A3740003F067FEDDE71249002000F033FE12A966
:10A38400002002F07BFF0528C3D008B1FCF7BEFD16
:10A394000620FFF797FF0DF15901074803F041FE2E
:10A3A400C7E700BF9C190300B3190300C6190300D3
:10A3B400D9190300FB190300502C00201D1A0300B7
:10A3C400401A03001FB5044603F0AEFB204603F019
:10A3D400D1F923780D2B18D8DFE803F007170C19EF
:10A3E4001B172340173C17402F401D49002000F045
:10A3F400F9FD0AE0608801F0FDFB227A009263888F
:10A4040018490246002000F099FF04B010BD164917
:10A41400ECE704A9002301F8043D608802F004FE7F
:10A42400F3E71249002000F0DDFDFEF7AFFB30F04A
:10A434000803EAD0FCF76AFDE7E7BFF34F8F0C4946
:10A444000C4BCA6802F4E0621343CB60BFF34F8F36
:10A4540000BFFDE720690028D7D0EBE7A068FAE742
:10A464006B1C0300951C0300D61C03001B1D03007A
:10A4740000ED00E00400FA0508B503784BB9054B7C
:10A484003B211888FFF7D2FD18B1BDE80840FCF75E
:10A494003DBD08BDE02200200B78023B052B27D8E8
:10A4A400DFE803F0030B11171C21124B12494FF084
:10A4B40096721A60002000F095BD0E4B0F494FF4C0
:10A4C400B4021A60F6E70B4B0D494FF0E1621A60D3
:10A4D400F0E7084B0B4A1A600B49EBE7054B0B4AB4
:10A4E4001A600B49E6E7034B0A4A1A600A49E1E796
:10A4F400704700BFD82200204C1B03007B1B0300C5
:10A50400AA1B03000000302AD91B0300000060547A
:10A51400091C03000000C0A83A1C030008B50B780E
:10A52400052B23D8DFE803F0031222221A20104956
:10A53400002000F057FD00224FF4F0110D48FCF705
:10A5440079FF98B1BDE80840FCF7E0BC0A49002057
:10A5540000F048FD0748FCF7B1FFF2E70749002087
:10A56400BDE8084000F03EBD0549F0E708BD00BF66
:10A57400C11A0300182F0020ED1A03001A1B030050
:10A58400341B030010B50C7814B1012C10D010BD8D
:10A594000B49204600F026FD0A4B0B481968224659
:10A5A400FCF748FF0028F2D0BDE81040FCF7AEBC31
:10A5B4000649002000F016FD0348FCF77FFFF1E791
:10A5C400661A0300D8220020BC2E0020931A030030
:10A5D400FCF79CBC10B5B0B0FCF7EAFE08B1FCF780
:10A5E40095FCAF4AAF480121FCF712FF08B1FCF714
:10A5F4008DFCAD4AAD480121FCF70AFF08B1FCF718
:10A6040085FCAB49032006F0C1F908B1FCF77EFCD8
:10A6140005A9002006F08AFA08B1FCF777FCFDF7DB
:10A62400BBFB08B1FCF772FC05F04CFE08B1FCF76B
:10A634006DFC002305A90120059305F009FF08B16D
:10A64400FCF764FC05A805F0B5FF08B1FCF75EFC57
:10A6540030AC0120FFF7E8FC1123964804F8B43D20
:10A6640006F0FDFB934982B22046FFF7E5FC08B1F2
:10A67400FCF74CFC0822002105A806F09BFBDFF840
:10A6840080C28D4B05A8CDE905C3FFF7D3FC08B103
:10A69400FCF73CFC0021894801F0A8FC08B1FCF758
:10A6A40035FC002330A9CDE9013303936360844B67
:10A6B40041F8C03D834801F01FFE08B1FCF726FCB9
:10A6C400814B0193814B039301A9212380488DF889
:10A6D40009308DF80A308DF80B308DF811308DF873
:10A6E40012308DF8133000F0BBF908B1FCF70EFC02
:10A6F4002146784800F00EFB08B1FCF707FC002166
:10A70400102205A806F056FB734B059301238DF820
:10A7140018300023079364238DF8203005A9022301
:10A724006E488DF821308DF822308DF8233005F0F5
:10A7340091FC08B1FCF7EAFBAC22002105A806F065
:10A7440039FB022306228DF814308DF817200123DB
:10A75400634A8DF816304FF4C8714FF44860ADF871
:10A76400603019928DF88D308DF890304FF4FA6284
:10A774008DF891300023CDE92903CDE92712594BF7
:10A7840059482E9305A903F089FA08B1FCF7BEFBDA
:10A794000121554803F07FFA1C22002105A806F088
:10A7A40009FB00234FF4F022CDE90532ADF8223045
:10A7B4004FF420328DF824304C4B07920A93052233
:10A7C4004B4B8DF8202005A80B9301F031F908B10B
:10A7D400FCF79CFB02F076FB08B1FCF797FB052223
:10A7E400002105A806F0E6FA9DF8143043F00103B1
:10A7F400032203F0F10362F306136FF3C7138DF81A
:10A80400143007238DF8153010238DF816309DF879
:10A81400173013438DF817309DF8183005A81343EB
:10A824008DF8183002F0E8FB08B1FCF76FFB3148F3
:10A8340002F0CAFB08B1FCF769FB082303934FF647
:10A84400FF720123214605A802F068FC08B1FCF759
:10A854005DFB039A284908230132002000F06EFDB5
:10A86400039905A802F0E4FB08B1FCF74FFB0321B0
:10A874001D4803F092FA08B1FCF748FB1F49002079
:10A8840000F0B0FB184B042293F854100120FFF79A
:10A89400CFFB08B1FCF73AFBFDF794FAFCE700BFE5
:10A8A400BDA102005019030051A102004C1903007C
:10A8B400D5A10200541903000100D007F02E002096
:10A8C40045A00200382F002021A502009DA402000B
:10A8D400DC2E0020042F002089A50200A82E0020D1
:10A8E400DC220020F9A20200502C00207DA40200EA
:10A8F400D5A50200C9A30200611903008E19030043
:10A904004006800CA8DF7047AADF7047ACDF7047B1
:10A91400ADDF7047AEDF704762DF704738B5054D75
:10A924004FF4FA6445F001054FF47A40A847013C1E
:10A93400FAD138BDA01E03002DE9F341434B06466E
:10A9440043483288C01AC00800040C4640F0030093
:10A954004049FCF73FF87CB13388112B0FD0502BC2
:10A9640013D0102B08D1B388E38102A9032301F883
:10A97400043D23682046984702B0BDE8F0814FF6B5
:10A98400FF73E38102A90223F1E7F288E3889A4284
:10A994003FD1B07C00BB304900F024FB4FF0A04510
:10A9A4004FF00063C5F80C35042703234FF080589B
:10A9B400C5F86C77C5F87037C5F80885FFF7AEFFA2
:10A9C40002A90123C5F80C852046C5F8707701F863
:10A9D400043D236898471CE001383B284FF0A0450C
:10A9E4002CD81E49002000F0FDFA4FF08053C5F822
:10A9F4000C35042703234FF00068C5F87077C5F8B9
:10AA04006C37C5F80885FFF789FFC5F80C85C5F8CC
:10AA14006C77F28863899A42AED1338A022BABD128
:10AA24002368002BA8D006F1120001F09AF950B166
:10AA340000238DF8043001A923689BE70649002010
:10AA440000F0D0FAACE70123F3E700BF700F030076
:10AA5400900F0300491E03006F1E0300811E0300B4
:10AA64002DE9F0410E4694B00546002800F085809B
:10AA7400002900F082800B6803604FF6FF73C381E6
:10AA84003F4B04AA03F1100C174618685968144682
:10AA940003C4083363452246F7D105F11001384653
:10AAA400FFF73AFF0446002863D12B7C8DF80A3067
:10AAB40014A94FF4A05321F8483D2A1D0120FFF7A3
:10AAC40021FF0446002854D101460322684606F0BB
:10AAD40071F911238DF8003073798DF801309DF8E8
:10AAE4000230012767F3420321461C220DA88DF88A
:10AAF400023006F05FF99DF834300E9443F01A03E7
:10AB04008DF834300DF104082B7C8DF80E3021467D
:10AB140041F2014303224046CDE910441394ADF8B9
:10AB24000C30CDF848D006F045F9B3798DF80430EF
:10AB3400F3798DF805309DF8063067F3420364F32A
:10AB4400C30364F3041364F300032146142208A826
:10AB54008DF8063006F02EF903ABCDE9083808AAC3
:10AB6400AB1D0DA9A8880A97ADF82C70FFF7CCFE91
:10AB74000446204614B0BDE8F0810E24F9E700BF76
:10AB84006C1D0300F0B5324B324C3349E41AE4082F
:10AB9400240444F00304054689B02046FBF716FF5D
:10ABA400002D52D002AF08220021384606F002F9E7
:10ABB400012302933A460DF10703E98803934FF604
:10ABC400FF70FFF7A5FE08B1FCF7A0F99DF8073068
:10ABD400E988E889013B3A468DF80730FFF796FE8D
:10ABE400064638BB9DF807203ABB1C4900F0A6FB7B
:10ABF400EA894FF6FF739A4221D010220DEB02002E
:10AC0400002106F0D7F8EB88ADF8103001238DF859
:10AC14001230BDF80A30ADF8143004A9039BE8895A
:10AC240006970793FFF776FE0D490646024620462F
:10AC3400FBF7D0FE304609B0F0BD0A49D6E70A4911
:10AC44002046FBF7C3FE0826F4E70E26F2E700BF12
:10AC5400700F0300900F03007C1D03009F1D030071
:10AC6400F41D0300C31D0300141E0300A8DF704776
:10AC7400AADF704762DF704737B5234B0546234888
:10AC84002A88C01AC00800040C4640F0030020497A
:10AC9400FBF7A0FE7CB12B88112B0ED0502B12D0C9
:10ACA400102B08D1AB88E38102A9012301F8043DEC
:10ACB40023682046984703B030BD4FF6FF73E38105
:10ACC40002A90023F2E7EA88E3889A42F3D1AB7C35
:10ACD400012B05D102238DF8043001A92368E8E78C
:10ACE400022B01D10323F6E7032B01D10423F2E75E
:10ACF400042B01D10523EEE7052B01D10623EAE756
:10AD0400062BF3D10723E6E7700F0300900F03002F
:10AD1400491E03002DE9F0410E4694B00446002874
:10AD240000F08680002900F083800B6803604FF6F2
:10AD3400FF73C3813F4B04AA03F1100C1746186834
:10AD44005968154603C5083363452A46F7D104F10B
:10AD540010013846FFF78EFF002866D1237C8DF85A
:10AD64000A3014A94FF4A85321F8483D221D0120AC
:10AD7400FFF77CFF08B1FCF7C9F8032200216846FD
:10AD840006F018F811238DF8003073798DF801302E
:10AD94009DF80230012767F342031C2200210DA80D
:10ADA4008DF8023006F006F89DF83430CDF848D01E
:10ADB40043F00A036FF3041300258DF834300DF1CA
:10ADC4000408237C8DF80E30032241F201532946F6
:10ADD4004046ADF80C300E95CDE91055139505F0AD
:10ADE400E9FFB3798DF80430F3798DF805309DF8D7
:10ADF400063067F3420303F0E70365F3000314220C
:10AE0400294608A88DF8063005F0D4FF03ABCDE938
:10AE1400083808AAA31D0DA9A0880A97ADF82C70BC
:10AE2400FFF726FF08B1FCF771F814B0BDE8F08114
:10AE34000E20FAE7A61E03000369C1688B429DBF7A
:10AE44008268D21802F1FF3203F1FF3394BF501A23
:10AE5400581A70472DE9F041D0E902670446F61B01
:10AE64004068964288461546384405D905F079FF6E
:10AE74003D44E560BDE8F0813246AD1B05F071FF4D
:10AE84002A4608EB0601606805F06BFFF1E72DE93F
:10AE9400F843C5680646894617464FF000083469EA
:10AEA400B3687068A54228BFE418013C621B5C1BB0
:10AEB400BC4228BF3C46944228BF14464946284415
:10AEC400224605F04EFFB3682544AB4208BF002577
:10AED4003F1BA044A144F560E1D14046BDE8F8839E
:10AEE40010B5114C114AA2610223C4E90433104B7A
:10AEF400E361A2644FF400730E4A2362E264002308
:10AF040010220D49A362E01D6362E362A3656365D9
:10AF1400E365226505F081FF0849204605F07DFFC1
:10AF24002023A37110BD00BF482F0020B61E0300CC
:10AF3400D02F0020C02F0020BF1E0300C31E03001B
:10AF4400F8B5184C182300FB033503FB00402544D7
:10AF5400C46A012C0F46164611D003D3022C1BD011
:10AF640000240AE02846FFF767FF864205D83246E8
:10AF740039462846FFF76EFF34462046F8BD28467A
:10AF8400FFF75AFF8642344628BF04462246394614
:10AF94002846FFF75FFFF0E72846BDE8F840FFF7D3
:10AFA40076BF00BF482F002073B50D4B1B780446B5
:10AFB4000D4616460BB9FFF793FF02A8002300F8CD
:10AFC400013DFCF795FA324629462046FFF7B8FFC3
:10AFD40004469DF80700FCF7AFFA204602B070BDA6
:10AFE400482F002038B5054608460C4605F037FFC3
:10AFF400214602462846BDE83840FFF7D5BF82689F
:10B0040010B504464068531C834205D82068815417
:10B01400A360E3680133E360D4E901329A420BD1BF
:10B0240021682069FFF7C0FFA368984215BF4FF05D
:10B03400FF330023E360A36010BD00002DE9F84F47
:10B044009A46DDE90A439046064689460A460127A0
:10B0540042451DD2574538BF574613F0010B12D154
:10B064008CB19B0718D5BAF1000F0CBF30252025F1
:10B07400A74208D229463046FFF7C1FFF368002BE8
:10B0840004F1FF340ADAF368002B09DABDE8F88F1B
:10B09400B2FBF8F20137DBE72025E9E7002CE7D122
:10B0A4000125BAF1010F04D90AF1FF3A08FB05F5AD
:10B0B400F7E7B9FBF5F39845F8D9DFF844A0B9FBF5
:10B0C400F5F330461AF8031005FB1399FFF797FFC1
:10B0D400F368002B03DBB5FBF8F5002DEFD1BBF1D2
:10B0E400000FD3D0002CD1D0A742CFD2202130469C
:10B0F400FFF785FFF368002B04F1FF34F2DAC5E7AC
:10B10400CA1E03002DE9F04F9BB00AAB0D46059310
:10B1140040210023CDE90613CDE9083003901646FB
:10B124004FF00A0915F8011B00295CD025294CD1E0
:10B134004FF0000B09E02D2B04D0302B0DD14BF038
:10B14400020B01E04BF0010B0D462B782B2B05F184
:10B1540001010FD0EFD8232B0FD00024294611F87A
:10B16400013BA3F1300009280AD809FB0434303C20
:10B174000D46F3E74BF0040BE6E74BF0080BE3E76F
:10B184002E2B0FD10D464FF0000A284610F8011B54
:10B19400A1F13007092F07D809FB0A13A3F1300ADC
:10B1A4000546F2E74FF0000A284610F8011B01F0AB
:10B1B400FB07682F0546F8D0642936D009D85829EA
:10B1C40026D063292CD025290AD105A8FFF717FF1B
:10B1D40006E0732900F0988016D8702900F0A48046
:10B1E400089B002B9EDA089B002B09DD079A1AB1F5
:10B1F4000AA90398FFF7D8FEDDE90723134408934F
:10B2040008981BB0BDE8F08F752974D07829E7D170
:10B214003168CDE9004B081D30605346102271E0BF
:10B2240033681A1D32601978CFE731680F68081D3A
:10B2340087EAE7713060A1EBE7714FF00108092953
:10B2440041DCD04538BFD0462CB1002F02DB1BF0C7
:10B25400040F00D0013C1BF0020F02D0BAF1000F22
:10B2640004D01BF0010F01D1002C3CD10899002916
:10B27400B6DB002F3ADA7F422D2105A8FFF7BFFE87
:10B2840008990029ACDB0BF0030102290FD1BAF1B4
:10B29400000F0CD1002C4FD0A04508D2302105A8B6
:10B2A400FFF7ADFE0899002904F1FF34F2DA08999A
:10B2B400002995DBCDE9004B53460A22394605A8FF
:10B2C400FFF7BCFE8CE791FBF9F108F10108B6E742
:10B2D400202105A8FFF793FE0899002904F1FF3403
:10B2E400C4DB002CC5D0A045F2D3BFE71BF0040F8C
:10B2F400C6D02B21C1E73168CDE9004B081D306071
:10B3040053460A220968DAE733681A1D32601C685A
:10B3140014F8011B00293FF463AF05A8FFF76FFE83
:10B32400089B002BF4DA5BE731680B1D33600022C5
:10B334000823CDE9003271E70024BBE70EB403B55E
:10B3440003AB02AA53F8041B42F8043DFFF7DAFEEC
:10B3540002B05DF804EB03B070476DDF704779DF2E
:10B3640070477DDF704764DF70472DE9F74F0C9C11
:10B37400BDF834B02788002580468A4691462E467B
:10B38400B8F80020B2420BDC35B12288013AD21B56
:10B3940092B2FF2A39D8DA55002003B0BDE8F08F05
:10B3A400D8F8042052F82600019000220DF1030180
:10B3B40001A8FFF7D8FF0028EFD19DF803204A45E4
:10B3C40021D12288002D14BF0020022002EB0901A4
:10B3D4000144594519DC3DB9013292B2228003F887
:10B3E40002A022880132228022880DF103011A442E
:10B3F40001A8FFF7B8FF0028CFD121889DF80320CA
:10B404000A44228001250136BAE70C20C5E72DE95C
:10B41400F341089CBDF824501746CDE900450222AB
:10B424000646FFF7A2FF48B9102239463046CDE957
:10B43400084502B0BDE8F041FFF797BF02B0BDE890
:10B44400F0812DE9F04F00231688138090F82D30F9
:10B4540085B007460D46144653B3082E01D80C2078
:10B4640026E102A8FFF779FF002840F02181138824
:10B474000822CA54238801339BB21B222380CA5456
:10B484002088013080B2208006220DF10901284471
:10B4940005F067FC23889DF8082006339BB212F060
:10B4A400FE0218BF01222380EA542388013323803B
:10B4B400BB78FBB123880433B342D0D802A8FFF78A
:10B4C4004EFF002840F0F48023880322EA542388A6
:10B4D40001339BB219222380EA542388BDF8082043
:10B4E40001339BB2E9182380EA54120A4A70238874
:10B4F40002332380FA789AB12388D91CB142AED89A
:10B504000221E954238801339BB201212380E954A9
:10B5140023880B449BB22380EA5423880B44238062
:10B524007A68AAB12388D91CB14298D8022192F929
:10B534000020E954238801339BB20A212380E95473
:10B54400238801339BB22380EA5423880133238068
:10B554003B89002B40F0A0803B8A5BB1CDE90046DB
:10B564002B460722032107F11000FFF750FF0028A4
:10B5740040F09E803B8B5BB1CDE900462B46152203
:10B58400142107F11800FFF742FF002840F09080D3
:10B594003A6A002A40F08F80D7F82480B8F1000F6F
:10B5A40030D0B8F804302188981C8A1C0244B24276
:10B5B4003FF655AFFE283FF652AF03336B54238852
:10B5C40001339BB2FF222380EA54238801339BB2C8
:10B5D4002380B8F80020EA54E918120A4A70208837
:10B5E400023080B22080B8F804205AB1D8F808108C
:10B5F40000296AD0284405F0B4FB2388B8F8042055
:10B604001344238097F82C30002B40F0998038782D
:10B6140000284DD03B88012B57D021888A1CB24288
:10B624003FF61DAF012805D17B7802330B449E42BF
:10B63400FFF415AF023E761A04A9B6B221F8086DDC
:10B64400A818FFF78EFE98BB3978BDF808200229A8
:10B6540000F0BB807B78934202D3B24240F2B380C5
:10B66400012940F0B4809BB29E42C0F0B080ADF896
:10B6740008300821BDF80830FE2B3FF6F0AE2288D2
:10B684000133AB542288013292B22280A954228819
:10B694001344238000200BE0CDE900462B4606220C
:10B6A400022107F10800FFF7B2FE00283FF454AF6F
:10B6B40005B0BDE8F08FB4F800C00CF10603B34246
:10B6C4003FF6CDAE1188052901D80720F0E76FF4C5
:10B6D400486E01EB0E039BB24FF27D3E7345F4D9E5
:10B6E4005388052BF1D96FF44860181880B270455F
:10B6F400EBD94FF6FF70814203D0834201D09942C7
:10B70400E3D8052305F80C30238801339BB21221BA
:10B714002380E954238801339BB223801188E954A0
:10B72400E818090A4170238802339BB223805288A7
:10B73400EA54E918120A4A702388023323802BE75B
:10B74400BB6A002BC1D04FF000094FF00C0A4FF038
:10B75400160B97F82C305FFA89F293427FF657AFB5
:10B76400B96A0AFB02F201EB0208B8F80430981C2B
:10B77400FE283FF674AE208803332B54238801330C
:10B784009BB2238005F803B0238801339BB2238046
:10B794008A5AEA54E918120A4A702088023080B2A0
:10B7A4002080B8F804205AB1D8F8081000298CD0A9
:10B7B400284405F0D6FA2388B8F8042013442380DB
:10B7C40009F10109C5E7092154E7B242FBD9ADF8F3
:10B7D40008604EE770B5C0B14AB116880024B4427F
:10B7E40003D305196D789D4208D0A14201D80020E9
:10B7F4000BE0055D01352C44A4B2F0E7A142F6D973
:10B80400A31C1380005D013880B270BD37B502AC53
:10B81400002324F8023D134622460546FFF7DAFFCB
:10B8240010B1BDF80600284403B030BD75DF704781
:10B8340076DF70477ADF70477BDF7047034B1A88E7
:10B8440082420CBF18460020704700BFEC31002034
:10B85400024B9B6903B11847704700BFD0310020E9
:10B8640037B585B22846FFF7E9FF034670B1164C99
:10B87400017A227B91420BD200F10A012846FFF79C
:10B88400D5FFE8B1112801D0FFF7E2FF03B030BDC6
:10B89400237C0022027243B13B212846FFF7C8FFF4
:10B8A40030F0080301D0FFF7D3FF6369002BEDD01C
:10B8B40000228DF80420ADF8065001A89847E5E76A
:10B8C4001A7A01321A72E1E7D031002013B50B461F
:10B8D400497A0F4C024669B9D4E901101C7A002C4C
:10B8E40018BF01465868FBF7A5FD08B1FFF7B0FF84
:10B8F40002B010BD002119726369002BF8D0012138
:10B90400ADF806008DF8041001A89847F0E700BFD1
:10B91400D03100208388B3F5FA7F28BF6FF4F97221
:10B9240030B528BF9C1805884A8838BF0024954242
:10B934000CD84088904209D38A88A24206D303F2E5
:10B94400F310904234BF0020012030BD0020FCE7FA
:10B954000388112B70B5014648D002D8102B1ED095
:10B9640070BD122B52D0502BFAD12F4BC288DB89D9
:10B974009A42F5D1038A022BF2D186883046FFF72A
:10B984005DFF05460028EBD001F1120000F0E9F953
:10B9940030BB6868FBF792FD0028E1D009E0C37B67
:10B9A400012BDDD14FF6FF70FFF748FF054620B9A4
:10B9B4000420BDE87040FFF74BBF1C4A8E88068008
:10B9C400002303721368C5F80A300A3053684360D1
:10B9D4001031FFF79FFF144B6872DB89002BBFD136
:10B9E40029463046BDE87040FFF770BF8088FFF7F6
:10B9F40025FF04460028B3D04068FBF75FFD08B17B
:10BA0400FFF726FF4FF6FF732380A9E786883046A9
:10BA1400FFF714FF05460028A2D008310A30FFF7CB
:10BA240079FF6872DCE700BFD031002000320020CB
:10BA3400F8B5064650B305460FCD154F3C460FC426
:10BA440095E8070084E807003068124B3B60B8B102
:10BA5400FFF7F0FEC8B931680A681A604A685A608C
:10BA64000D480E4A4FF6FF7303800D4B40F8043F18
:10BA74000021FBF7CDFC002814BF0320002004E0C4
:10BA84001846FFF7D9FE0028EAD0F8BD0E20FCE7DF
:10BA9400D031002000320020EC31002065B80200D3
:10BAA40008320020F7B5174601900E4691B1019C6B
:10BAB4006CB100252C46294601A8FBF71EFE18B1DF
:10BAC4003946A8B2B04701340135142DF3D12046CC
